{
  "contractName": "ElectionRegistry",
  "abi": [
    {
      "anonymous": false,
      "inputs": [
        {
          "indexed": false,
          "name": "election",
          "type": "address"
        }
      ],
      "name": "logRegistration",
      "type": "event"
    },
    {
      "constant": false,
      "inputs": [
        {
          "name": "owner",
          "type": "address"
        },
        {
          "name": "election",
          "type": "address"
        }
      ],
      "name": "register",
      "outputs": [],
      "payable": false,
      "stateMutability": "nonpayable",
      "type": "function"
    },
    {
      "constant": false,
      "inputs": [
        {
          "name": "user",
          "type": "address"
        }
      ],
      "name": "findContract",
      "outputs": [
        {
          "name": "",
          "type": "address[]"
        }
      ],
      "payable": false,
      "stateMutability": "nonpayable",
      "type": "function"
    },
    {
      "constant": false,
      "inputs": [
        {
          "name": "candidates",
          "type": "bytes32[]"
        },
        {
          "name": "budget",
          "type": "uint64"
        }
      ],
      "name": "deployElection",
      "outputs": [
        {
          "name": "Election",
          "type": "address"
        }
      ],
      "payable": true,
      "stateMutability": "payable",
      "type": "function"
    },
    {
      "constant": true,
      "inputs": [],
      "name": "getBalance",
      "outputs": [
        {
          "name": "",
          "type": "uint256"
        }
      ],
      "payable": false,
      "stateMutability": "view",
      "type": "function"
    }
  ],
  "bytecode": "0x608060405234801561001057600080fd5b506124b3806100206000396000f3fe60806040526004361061003f5760003560e01c806312065fe01461004457806333a6f0661461006f5780636f398cd91461017b578063aa67735414610221575b600080fd5b34801561005057600080fd5b50610059610292565b6040518082815260200191505060405180910390f35b6101396004803603604081101561008557600080fd5b81019080803590602001906401000000008111156100a257600080fd5b8201836020820111156100b457600080fd5b803590602001918460208302840111640100000000831117156100d657600080fd5b919080806020026020016040519081016040528093929190818152602001838360200280828437600081840152601f19601f820116905080830192505050505050509192919290803567ffffffffffffffff1690602001909291905050506102b1565b604051808273ffffffffffffffffffffffffffffffffffffffff1673ffffffffffffffffffffffffffffffffffffffff16815260200191505060405180910390f35b34801561018757600080fd5b506101ca6004803603602081101561019e57600080fd5b81019080803573ffffffffffffffffffffffffffffffffffffffff1690602001909291905050506103ab565b6040518080602001828103825283818151815260200191508051906020019060200280838360005b8381101561020d5780820151818401526020810190506101f2565b505050509050019250505060405180910390f35b34801561022d57600080fd5b506102906004803603604081101561024457600080fd5b81019080803573ffffffffffffffffffffffffffffffffffffffff169060200190929190803573ffffffffffffffffffffffffffffffffffffffff169060200190929190505050610477565b005b60003073ffffffffffffffffffffffffffffffffffffffff1631905090565b60008167ffffffffffffffff16341015610316576040517f08c379a00000000000000000000000000000000000000000000000000000000081526004018080602001828103825260228152602001806124666022913960400191505060405180910390fd5b6000828460405161032690610580565b8080602001828103825283818151815260200191508051906020019060200280838360005b8381101561036657808201518184015260208101905061034b565b50505050905001925050506040518091039082f08015801561038c573d6000803e3d6000fd5b509050905060008190506103a03382610477565b809250505092915050565b60606000808373ffffffffffffffffffffffffffffffffffffffff1673ffffffffffffffffffffffffffffffffffffffff16815260200190815260200160002080548060200260200160405190810160405280929190818152602001828054801561046b57602002820191906000526020600020905b8160009054906101000a900473ffffffffffffffffffffffffffffffffffffffff1673ffffffffffffffffffffffffffffffffffffffff1681526020019060010190808311610421575b50505050509050919050565b6000808373ffffffffffffffffffffffffffffffffffffffff1673ffffffffffffffffffffffffffffffffffffffff1681526020019081526020016000208190806001815401808255809150509060018203906000526020600020016000909192909190916101000a81548173ffffffffffffffffffffffffffffffffffffffff021916908373ffffffffffffffffffffffffffffffffffffffff160217905550507fea5095b1d03455120ecf3f286349998c6a1de73db9ffa4fb3f7e59f4135c1e7181604051808273ffffffffffffffffffffffffffffffffffffffff1673ffffffffffffffffffffffffffffffffffffffff16815260200191505060405180910390a15050565b611ed88061058e8339019056fe608060405260405162001ed838038062001ed8833981018060405260208110156200002957600080fd5b8101908080516401000000008111156200004257600080fd5b828101905060208101848111156200005957600080fd5b81518560208202830111640100000000821117156200007757600080fd5b50509291905050508060019080519060200190620000979291906200009f565b505062000119565b828054828255906000526020600020908101928215620000de579160200282015b82811115620000dd578251825591602001919060010190620000c0565b5b509050620000ed9190620000f1565b5090565b6200011691905b8082111562000112576000816000905550600101620000f8565b5090565b90565b611daf80620001296000396000f3fe60806040526004361061007b5760003560e01c8063415df87c1161004e578063415df87c146101b9578063613d46e31461033f5780637021939f146104c2578063b13c744b146105115761007b565b806306a49fce1461008057806312065fe0146100ec5780632f265cf714610117578063392e667814610166575b600080fd5b34801561008c57600080fd5b50610095610560565b6040518080602001828103825283818151815260200191508051906020019060200280838360005b838110156100d85780820151818401526020810190506100bd565b505050509050019250505060405180910390f35b3480156100f857600080fd5b506101016105b8565b6040518082815260200191505060405180910390f35b34801561012357600080fd5b506101506004803603602081101561013a57600080fd5b81019080803590602001909291905050506105d7565b6040518082815260200191505060405180910390f35b34801561017257600080fd5b5061019f6004803603602081101561018957600080fd5b810190808035906020019092919050505061066e565b604051808215151515815260200191505060405180910390f35b3480156101c557600080fd5b5061032560048036036101608110156101dd57600080fd5b8101908080604001906002806020026040519081016040528092919082600260200280828437600081840152601f19601f82011690508083019250505050505091929192908060800190600280602002604051908101604052809291906000905b82821015610292578382604002016002806020026040519081016040528092919082600260200280828437600081840152601f19601f8201169050808301925050505050508152602001906001019061023e565b50505050919291929080604001906002806020026040519081016040528092919082600260200280828437600081840152601f19601f820116905080830192505050505050919291929080606001906003806020026040519081016040528092919082600360200280828437600081840152601f19601f82011690508083019250505050505091929192905050506106c4565b604051808215151515815260200191505060405180910390f35b6104a8600480360361018081101561035657600080fd5b810190808035906020019092919080604001906002806020026040519081016040528092919082600260200280828437600081840152601f19601f82011690508083019250505050505091929192908060800190600280602002604051908101604052809291906000905b82821015610415578382604002016002806020026040519081016040528092919082600260200280828437600081840152601f19601f820116905080830192505050505050815260200190600101906103c1565b50505050919291929080604001906002806020026040519081016040528092919082600260200280828437600081840152601f19601f820116905080830192505050505050919291929080606001906003806020026040519081016040528092919082600360200280828437600081840152601f19601f820116905080830192505050505050919291929050505061090b565b604051808215151515815260200191505060405180910390f35b3480156104ce57600080fd5b506104fb600480360360208110156104e557600080fd5b8101908080359060200190929190505050610a9c565b6040518082815260200191505060405180910390f35b34801561051d57600080fd5b5061054a6004803603602081101561053457600080fd5b8101908080359060200190929190505050610ab4565b6040518082815260200191505060405180910390f35b606060018054806020026020016040519081016040528092919081815260200182805480156105ae57602002820191906000526020600020905b81548152602001906001019080831161059a575b5050505050905090565b60003073ffffffffffffffffffffffffffffffffffffffff1631905090565b60006105e28261066e565b610654576040517f08c379a00000000000000000000000000000000000000000000000000000000081526004018080602001828103825260168152602001807f496e76616c69642063616e646964617465206e616d650000000000000000000081525060200191505060405180910390fd5b600080838152602001908152602001600020549050919050565b600080600090505b6001805490508110156106b957826001828154811061069157fe5b906000526020600020015414156106ac5760019150506106bf565b8080600101915050610676565b50600090505b919050565b60006106ce611bd0565b6040518060400160405280876000600281106106e657fe5b60200201518152602001876001600281106106fd57fe5b60200201518152508160000181905250604051806040016040528060405180604001604052808860006002811061073057fe5b602002015160006002811061074157fe5b602002015181526020018860006002811061075857fe5b602002015160016002811061076957fe5b6020020151815250815260200160405180604001604052808860016002811061078e57fe5b602002015160006002811061079f57fe5b60200201518152602001886001600281106107b657fe5b60200201516001600281106107c757fe5b602002015181525081525081602001819052506040518060400160405280856000600281106107f257fe5b602002015181526020018560016002811061080957fe5b602002015181525081604001819052506060600360405190808252806020026020018201604052801561084b5781602001602082028038833980820191505090505b50905060008090505b60038110156108935784816003811061086957fe5b602002015182828151811061087a57fe5b6020026020010181815250508080600101915050610854565b5060006108a08284610ad5565b14156108fc577f3f3cfdb26fb5f9f1786ab4f1a1f9cd4c0b5e726cbdfc26e495261731aad44e39604051808060200182810382526022815260200180611d626022913960400191505060405180910390a1600192505050610903565b6000925050505b949350505050565b6000610919858585856106c4565b61098b576040517f08c379a00000000000000000000000000000000000000000000000000000000081526004018080602001828103825260158152602001807f496e636f72726563742070726f6f6620676976656e000000000000000000000081525060200191505060405180910390fd5b6001600260003373ffffffffffffffffffffffffffffffffffffffff1673ffffffffffffffffffffffffffffffffffffffff16815260200190815260200160002060006101000a81548160ff0219169083151502179055506109ec8661066e565b610a5e576040517f08c379a00000000000000000000000000000000000000000000000000000000081526004018080602001828103825260168152602001807f496e76616c69642063616e646964617465206e616d650000000000000000000081525060200191505060405180910390fd5b600160008088815260200190815260200160002060008282540192505081905550610a8e3364e8d4a51000610c85565b506001905095945050505050565b60006020528060005260406000206000915090505481565b60018181548110610ac157fe5b906000526020600020016000915090505481565b6000807f30644e72e131a029b85045b68181585d2833e84879b9709143e1f593f00000019050610b03611c04565b610b0b610e21565b90508060a0015151600186510114610b2257600080fd5b610b2a611c59565b6040518060400160405280600081526020016000815250905060008090505b8651811015610bc05783878281518110610b5f57fe5b602002602001015110610b7157600080fd5b610bb182610bac8560a001516001850181518110610b8b57fe5b60200260200101518a8581518110610b9f57fe5b602002602001015161133c565b6113d0565b91508080600101915050610b49565b50610be3818360a00151600081518110610bd657fe5b60200260200101516113d0565b9050610c338260200151836040015183856080015189604001518760000151610c1c610c178d600001518b602001516113d0565b611483565b610c2e8d602001518b6040015161151d565b61171b565b610c435760019350505050610c7f565b610c6785600001518360800151610c5d8560600151611483565b886020015161187f565b610c775760029350505050610c7f565b600093505050505b92915050565b6000813073ffffffffffffffffffffffffffffffffffffffff1631108015610cfe575060011515600260008573ffffffffffffffffffffffffffffffffffffffff1673ffffffffffffffffffffffffffffffffffffffff16815260200190815260200160002060009054906101000a900460ff16151514155b15610d0c5760009050610e1b565b6000600260008573ffffffffffffffffffffffffffffffffffffffff1673ffffffffffffffffffffffffffffffffffffffff16815260200190815260200160002060006101000a81548160ff0219169083151502179055508273ffffffffffffffffffffffffffffffffffffffff166108fc839081150290604051600060405180830381858888f19350505050158015610daa573d6000803e3d6000fd5b507f6202b9210eddfec514dee7725e74c49be931243a5fda51c01552a5fb07e893dd8383604051808373ffffffffffffffffffffffffffffffffffffffff1673ffffffffffffffffffffffffffffffffffffffff1681526020018281526020019250505060405180910390a1600190505b92915050565b610e29611c04565b604051806040016040528060405180604001604052807f0fea20ba467638092edaab455502aaad077b39044a43db413807e7874e4a2fa181526020017f08e25fe90a1ebea197a014d93d49b4a9e8eb172bdce06ed370eb39590526cf73815250815260200160405180604001604052807f2b4459ce2d1b3b36e922d0b8c647bb1ff12422f1702b09284ed8346ab2ef673181526020017f15bd0730dbc7a0482f02af7f8cd6511c0833753459cdd149fa94152dc70feaea815250815250816000018190525060405180604001604052807f101302ce45f94c55a6aec1bb6bd7f2d7db7c7694c3280ec8918fe1e01d03455881526020017f2eeb1d6774a27eb23ae0a0b3318dc77a33192945b38ac2e3132dc2bfe11f5b568152508160200181905250604051806040016040528060405180604001604052807e2cbb39ce893a8a0904e34b673acb9c2c0e3cff34a51d2370d88f833364d9bd81526020017f1be111b982bee17f41f5aec9399a8750ddc18807ce83384c2b251d5361c0312c815250815260200160405180604001604052807f124a4eb8e6caa2ec92e4e6bd74de41f4fbf138b1f3323294f63d3c97028f624381526020017f2f2b9867c6f514b879bb43296ce63e4e443a4acaa089a36023ee0e5f8afd8454815250815250816040018190525060405180604001604052807f279df5b20e06e097022f58a77c51b028026628f77ec8213b212a4125485c6a6681526020017f0dff62916f69d766e7f19950da686d2fba43de1d024344f2381f238534ba4fb18152508160600181905250604051806040016040528060405180604001604052807f086387566b565807f26743c7f2ebb3ba2d8659f136f977fa8dee25a995ab8b9081526020017f10f2a3ba9e02edf2e3c63c8663ddddadbc0b8d8540f4b05787bdeb81afa56041815250815260200160405180604001604052807f21843e22094d9b30ec6ae0dc7cbf6c75f0d3f59f878307425f32bb22ae90a17381526020017f1e35c7a9d892080c1b798ca5450f82aad3d9f1041e108e9e512aff20d7cf5f338152508152508160800181905250600460405190808252806020026020018201604052801561116c57816020015b611159611c73565b8152602001906001900390816111515790505b508160a0018190525060405180604001604052807f2e0e968a8cd5bcae2afa5ced6b9ef88f1af7d46eed8683f6d6d2889eef29b86a81526020017f26d645d1cd29e5c224d852be8ba7ff60dbeab6bc33e91274fb6c4a63a19c07fb8152508160a001516000815181106111db57fe5b602002602001018190525060405180604001604052807f2ed52e461ee405b80d8152844233bcbd93709426c38658a9c07543fcabd2380d81526020017f2bc3e91d617a09fdc66f9b66caab2479bae2b44794d72b8b2c26e41e87ccc0c48152508160a0015160018151811061124c57fe5b602002602001018190525060405180604001604052807f150d55fee766c560f430ddabbf774a7f4efef3e70f33c882dafb617725d6475781526020017f16a5dda1f842d5b7741a94cf700a6305cf2463e2f8fd79850e4071b6f1b21e2b8152508160a001516002815181106112bd57fe5b602002602001018190525060405180604001604052807f175eedcbfe47eff10fb2324af41b66fb3bcbb00812180ba013107b9363d6f58281526020017f077c0d3488124a12aaf3ec65d7e3a78a34d27b48b34d1fe03da1b3784328b3cd8152508160a0015160038151811061132e57fe5b602002602001018190525090565b611344611c59565b61134c611c8d565b83600001518160006003811061135e57fe5b60200201818152505083602001518160016003811061137957fe5b602002018181525050828160026003811061139057fe5b6020020181815250506000606083608084600060076107d05a03f1905080600081146113bb576113bd565bfe5b50806113c857600080fd5b505092915050565b6113d8611c59565b6113e0611caf565b8360000151816000600481106113f257fe5b60200201818152505083602001518160016004811061140d57fe5b60200201818152505082600001518160026004811061142857fe5b60200201818152505082602001518160036004811061144357fe5b602002018181525050600060608360c084600060066107d05a03f19050806000811461146e57611470565bfe5b508061147b57600080fd5b505092915050565b61148b611c59565b60007f30644e72e131a029b85045b68181585d97816a916871ca8d3c208c16d87cfd479050600083600001511480156114c8575060008360200151145b156114ec576040518060400160405280600081526020016000815250915050611518565b6040518060400160405280846000015181526020018285602001518161150e57fe5b0683038152509150505b919050565b611525611cd1565b73__BN256G2_______________________________6361a931ec846000015160016002811061155057fe5b6020020151856000015160006002811061156657fe5b6020020151866020015160016002811061157c57fe5b6020020151876020015160006002811061159257fe5b602002015187600001516001600281106115a857fe5b602002015188600001516000600281106115be57fe5b602002015189602001516001600281106115d457fe5b60200201518a602001516000600281106115ea57fe5b60200201516040518963ffffffff1660e01b8152600401808981526020018881526020018781526020018681526020018581526020018481526020018381526020018281526020019850505050505050505060806040518083038186803b15801561165457600080fd5b505af4158015611668573d6000803e3d6000fd5b505050506040513d608081101561167e57600080fd5b810190808051906020019092919080519060200190929190805190602001909291908051906020019092919050505084600001516001600281106116be57fe5b6020020185600001516000600281106116d357fe5b6020020186602001516001600281106116e857fe5b6020020187602001516000600281106116fd57fe5b60200201848152508481525084815250848152505050505092915050565b60006060600460405190808252806020026020018201604052801561175a57816020015b611747611c73565b81526020019060019003908161173f5790505b5090506060600460405190808252806020026020018201604052801561179a57816020015b611787611cf7565b81526020019060019003908161177f5790505b5090508a826000815181106117ab57fe5b602002602001018190525088826001815181106117c457fe5b602002602001018190525086826002815181106117dd57fe5b602002602001018190525084826003815181106117f657fe5b6020026020010181905250898160008151811061180f57fe5b6020026020010181905250878160018151811061182857fe5b6020026020010181905250858160028151811061184157fe5b6020026020010181905250838160038151811061185a57fe5b602002602001018190525061186f828261197b565b9250505098975050505050505050565b6000606060026040519080825280602002602001820160405280156118be57816020015b6118ab611c73565b8152602001906001900390816118a35790505b509050606060026040519080825280602002602001820160405280156118fe57816020015b6118eb611cf7565b8152602001906001900390816118e35790505b509050868260008151811061190f57fe5b6020026020010181905250848260018151811061192857fe5b6020026020010181905250858160008151811061194157fe5b6020026020010181905250838160018151811061195a57fe5b602002602001018190525061196f828261197b565b92505050949350505050565b6000815183511461198b57600080fd5b60008351905060006006820290506060816040519080825280602002602001820160405280156119ca5781602001602082028038833980820191505090505b50905060008090505b83811015611b70578681815181106119e757fe5b602002602001015160000151826000600684020181518110611a0557fe5b602002602001018181525050868181518110611a1d57fe5b602002602001015160200151826001600684020181518110611a3b57fe5b602002602001018181525050858181518110611a5357fe5b602002602001015160000151600060028110611a6b57fe5b6020020151826002600684020181518110611a8257fe5b602002602001018181525050858181518110611a9a57fe5b602002602001015160000151600160028110611ab257fe5b6020020151826003600684020181518110611ac957fe5b602002602001018181525050858181518110611ae157fe5b602002602001015160200151600060028110611af957fe5b6020020151826004600684020181518110611b1057fe5b602002602001018181525050858181518110611b2857fe5b602002602001015160200151600160028110611b4057fe5b6020020151826005600684020181518110611b5757fe5b60200260200101818152505080806001019150506119d3565b50611b79611d1d565b60006020826020860260208601600060086107d05a03f190508060008114611ba057611ba2565bfe5b5080611bad57600080fd5b600082600060018110611bbc57fe5b602002015114159550505050505092915050565b604051806101000160405280611be4611c73565b8152602001611bf1611cf7565b8152602001611bfe611c73565b81525090565b604051806102200160405280611c18611cf7565b8152602001611c25611c73565b8152602001611c32611cf7565b8152602001611c3f611c73565b8152602001611c4c611cf7565b8152602001606081525090565b604051806040016040528060008152602001600081525090565b604051806040016040528060008152602001600081525090565b6040518060600160405280600390602082028038833980820191505090505090565b6040518060800160405280600490602082028038833980820191505090505090565b6040518060800160405280611ce4611d3f565b8152602001611cf1611d3f565b81525090565b6040518060800160405280611d0a611d3f565b8152602001611d17611d3f565b81525090565b6040518060200160405280600190602082028038833980820191505090505090565b604051806040016040528060029060208202803883398082019150509050509056fe5472616e73616374696f6e207375636365737366756c6c792076657269666965642ea165627a7a72305820e4f52601e448b29cdc380278d0ead74c8ab28fab642963abb00054e5b8073b840029496e737566696369656e742066756e64732073656e7420746f20656c656374696f6ea165627a7a723058208a96859a750bafbda3bd218855ad4ab3e752997a5e895a10f698a23862e494de0029",
  "source": "pragma solidity >=0.4.0 <0.6.0;\n\nimport \"./Voting.sol\";\n\ncontract ElectionRegistry {\n  mapping(address => address[]) user_elections;\n  event logRegistration(address election);\n  \n  function register(address owner, address election) public {\n    user_elections[owner].push(election); // -1 is very important\n    emit logRegistration(election);\n  }\n\n  function findContract(address user) public returns (address[] memory){\n    return user_elections[user];\n  }\n  \n  function deployElection(bytes32[] memory candidates, uint64 budget) public payable returns (address Election) {\n    require(msg.value >= budget, \"Insuficient funds sent to election\");\n    Voting election = (new Voting).value(budget)(candidates);\n    address electionAdd = address(election);\n    register(msg.sender, electionAdd);\n    return electionAdd;\n  }\n  \n  function getBalance() public view returns (uint) {\n    return address(this).balance;\n  }\n}",
  "sourcePath": "/Users/alvaro/uni/Bachelor Arbeit/Ethereum-Anonymous-Voting/contracts/ElectionRegistry.sol",
  "compiler": {
    "name": "solc",
    "version": "0.5.8+commit.23d335f2.Emscripten.clang"
  },
  "schemaVersion": "3.0.16",
  "updatedAt": "2020-02-03T16:02:22.415Z",
  "devdoc": {
    "methods": {}
  },
  "userdoc": {
    "methods": {}
  }
}