{
  "contractName": "Voting",
  "abi": [
    {
      "inputs": [
        {
          "internalType": "address",
          "name": "registryAdd",
          "type": "address"
        },
        {
          "internalType": "bytes32",
          "name": "root",
          "type": "bytes32"
        },
        {
          "internalType": "uint8[]",
          "name": "provingSetup",
          "type": "uint8[]"
        },
        {
          "internalType": "bytes32[]",
          "name": "registry",
          "type": "bytes32[]"
        },
        {
          "internalType": "bytes32[]",
          "name": "candidateNames",
          "type": "bytes32[]"
        }
      ],
      "stateMutability": "payable",
      "type": "constructor"
    },
    {
      "anonymous": false,
      "inputs": [
        {
          "indexed": false,
          "internalType": "string",
          "name": "s",
          "type": "string"
        }
      ],
      "name": "Verified",
      "type": "event"
    },
    {
      "anonymous": false,
      "inputs": [
        {
          "indexed": false,
          "internalType": "address",
          "name": "receiver",
          "type": "address"
        },
        {
          "indexed": false,
          "internalType": "uint256",
          "name": "amount",
          "type": "uint256"
        }
      ],
      "name": "logWithdrawal",
      "type": "event"
    },
    {
      "inputs": [
        {
          "internalType": "uint256",
          "name": "",
          "type": "uint256"
        }
      ],
      "name": "candidateList",
      "outputs": [
        {
          "internalType": "bytes32",
          "name": "",
          "type": "bytes32"
        }
      ],
      "stateMutability": "view",
      "type": "function"
    },
    {
      "inputs": [],
      "name": "merkleRoot",
      "outputs": [
        {
          "internalType": "bytes32",
          "name": "",
          "type": "bytes32"
        }
      ],
      "stateMutability": "view",
      "type": "function"
    },
    {
      "inputs": [
        {
          "internalType": "uint256",
          "name": "",
          "type": "uint256"
        }
      ],
      "name": "provingKey",
      "outputs": [
        {
          "internalType": "uint8",
          "name": "",
          "type": "uint8"
        }
      ],
      "stateMutability": "view",
      "type": "function"
    },
    {
      "inputs": [
        {
          "internalType": "uint256[2]",
          "name": "a",
          "type": "uint256[2]"
        },
        {
          "internalType": "uint256[2][2]",
          "name": "b",
          "type": "uint256[2][2]"
        },
        {
          "internalType": "uint256[2]",
          "name": "c",
          "type": "uint256[2]"
        },
        {
          "internalType": "uint256[1]",
          "name": "input",
          "type": "uint256[1]"
        }
      ],
      "name": "verifyTx",
      "outputs": [
        {
          "internalType": "bool",
          "name": "r",
          "type": "bool"
        }
      ],
      "stateMutability": "nonpayable",
      "type": "function"
    },
    {
      "inputs": [
        {
          "internalType": "uint256",
          "name": "",
          "type": "uint256"
        }
      ],
      "name": "voters",
      "outputs": [
        {
          "internalType": "bytes32",
          "name": "",
          "type": "bytes32"
        }
      ],
      "stateMutability": "view",
      "type": "function"
    },
    {
      "inputs": [
        {
          "internalType": "bytes32",
          "name": "",
          "type": "bytes32"
        }
      ],
      "name": "votesReceived",
      "outputs": [
        {
          "internalType": "uint256",
          "name": "",
          "type": "uint256"
        }
      ],
      "stateMutability": "view",
      "type": "function"
    },
    {
      "inputs": [],
      "name": "getCandidates",
      "outputs": [
        {
          "internalType": "bytes32[]",
          "name": "",
          "type": "bytes32[]"
        }
      ],
      "stateMutability": "view",
      "type": "function"
    },
    {
      "inputs": [],
      "name": "getVoters",
      "outputs": [
        {
          "internalType": "bytes32[]",
          "name": "",
          "type": "bytes32[]"
        }
      ],
      "stateMutability": "view",
      "type": "function"
    },
    {
      "inputs": [],
      "name": "getProvingKey",
      "outputs": [
        {
          "internalType": "uint8[]",
          "name": "",
          "type": "uint8[]"
        }
      ],
      "stateMutability": "view",
      "type": "function"
    },
    {
      "inputs": [],
      "name": "getBalance",
      "outputs": [
        {
          "internalType": "uint256",
          "name": "",
          "type": "uint256"
        }
      ],
      "stateMutability": "view",
      "type": "function"
    },
    {
      "inputs": [
        {
          "internalType": "bytes32",
          "name": "candidate",
          "type": "bytes32"
        }
      ],
      "name": "totalVotesFor",
      "outputs": [
        {
          "internalType": "uint256",
          "name": "",
          "type": "uint256"
        }
      ],
      "stateMutability": "view",
      "type": "function"
    },
    {
      "inputs": [
        {
          "internalType": "bytes32",
          "name": "candidate",
          "type": "bytes32"
        },
        {
          "internalType": "uint256[2]",
          "name": "a",
          "type": "uint256[2]"
        },
        {
          "internalType": "uint256[2][2]",
          "name": "b",
          "type": "uint256[2][2]"
        },
        {
          "internalType": "uint256[2]",
          "name": "c",
          "type": "uint256[2]"
        },
        {
          "internalType": "uint256[1]",
          "name": "input",
          "type": "uint256[1]"
        }
      ],
      "name": "voteForCandidate",
      "outputs": [
        {
          "internalType": "bool",
          "name": "",
          "type": "bool"
        }
      ],
      "stateMutability": "payable",
      "type": "function"
    },
    {
      "inputs": [
        {
          "internalType": "bytes32",
          "name": "candidate",
          "type": "bytes32"
        }
      ],
      "name": "validCandidate",
      "outputs": [
        {
          "internalType": "bool",
          "name": "",
          "type": "bool"
        }
      ],
      "stateMutability": "view",
      "type": "function"
    }
  ],
  "bytecode": "0x60806040526040516200248738038062002487833981810160405260a08110156200002957600080fd5b810190808051906020019092919080519060200190929190805160405193929190846401000000008211156200005e57600080fd5b838201915060208201858111156200007557600080fd5b82518660208202830111640100000000821117156200009357600080fd5b8083526020830192505050908051906020019060200280838360005b83811015620000cc578082015181840152602081019050620000af565b5050505090500160405260200180516040519392919084640100000000821115620000f657600080fd5b838201915060208201858111156200010d57600080fd5b82518660208202830111640100000000821117156200012b57600080fd5b8083526020830192505050908051906020019060200280838360005b838110156200016457808201518184015260208101905062000147565b50505050905001604052602001805160405193929190846401000000008211156200018e57600080fd5b83820191506020820185811115620001a557600080fd5b8251866020820283011164010000000082111715620001c357600080fd5b8083526020830192505050908051906020019060200280838360005b83811015620001fc578082015181840152602081019050620001df565b505050509050016040525050508360018190555082600290805190602001906200022892919062000358565b5081600490805190602001906200024192919062000406565b5080600390805190602001906200025a92919062000406565b508473ffffffffffffffffffffffffffffffffffffffff1663aa67735433306040518363ffffffff1660e01b8152600401808373ffffffffffffffffffffffffffffffffffffffff1673ffffffffffffffffffffffffffffffffffffffff1681526020018273ffffffffffffffffffffffffffffffffffffffff1673ffffffffffffffffffffffffffffffffffffffff16815260200192505050602060405180830381600087803b1580156200030f57600080fd5b505af115801562000324573d6000803e3d6000fd5b505050506040513d60208110156200033b57600080fd5b8101908080519060200190929190505050505050505050620004b3565b82805482825590600052602060002090601f01602090048101928215620003f35791602002820160005b83821115620003c257835183826101000a81548160ff021916908360ff160217905550926020019260010160208160000104928301926001030262000382565b8015620003f15782816101000a81549060ff0219169055600101602081600001049283019260010302620003c2565b505b50905062000402919062000458565b5090565b82805482825590600052602060002090810192821562000445579160200282015b828111156200044457825182559160200191906001019062000427565b5b5090506200045491906200048b565b5090565b6200048891905b808211156200048457600081816101000a81549060ff0219169055506001016200045f565b5090565b90565b620004b091905b80821115620004ac57600081600090555060010162000492565b5090565b90565b611fc480620004c36000396000f3fe6080604052600436106100c25760003560e01c8063704b6f431161007f578063cdd7225311610059578063cdd722531461038a578063da58c7d9146103f6578063dd12931314610445578063eed655f9146105cb576100c2565b8063704b6f431461027a578063aef194fe146102e6578063b13c744b1461033b576100c2565b806306a49fce146100c757806312065fe0146101335780632eb4a7ab1461015e5780632f265cf714610189578063392e6678146101d85780637021939f1461022b575b600080fd5b3480156100d357600080fd5b506100dc61074e565b6040518080602001828103825283818151815260200191508051906020019060200280838360005b8381101561011f578082015181840152602081019050610104565b505050509050019250505060405180910390f35b34801561013f57600080fd5b506101486107a6565b6040518082815260200191505060405180910390f35b34801561016a57600080fd5b506101736107ae565b6040518082815260200191505060405180910390f35b34801561019557600080fd5b506101c2600480360360208110156101ac57600080fd5b81019080803590602001909291905050506107b4565b6040518082815260200191505060405180910390f35b3480156101e457600080fd5b50610211600480360360208110156101fb57600080fd5b810190808035906020019092919050505061084b565b604051808215151515815260200191505060405180910390f35b34801561023757600080fd5b506102646004803603602081101561024e57600080fd5b81019080803590602001909291905050506108a1565b6040518082815260200191505060405180910390f35b34801561028657600080fd5b5061028f6108b9565b6040518080602001828103825283818151815260200191508051906020019060200280838360005b838110156102d25780820151818401526020810190506102b7565b505050509050019250505060405180910390f35b3480156102f257600080fd5b5061031f6004803603602081101561030957600080fd5b8101908080359060200190929190505050610937565b604051808260ff1660ff16815260200191505060405180910390f35b34801561034757600080fd5b506103746004803603602081101561035e57600080fd5b8101908080359060200190929190505050610968565b6040518082815260200191505060405180910390f35b34801561039657600080fd5b5061039f610989565b6040518080602001828103825283818151815260200191508051906020019060200280838360005b838110156103e25780820151818401526020810190506103c7565b505050509050019250505060405180910390f35b34801561040257600080fd5b5061042f6004803603602081101561041957600080fd5b81019080803590602001909291905050506109e1565b6040518082815260200191505060405180910390f35b34801561045157600080fd5b506105b1600480360361012081101561046957600080fd5b8101908080604001906002806020026040519081016040528092919082600260200280828437600081840152601f19601f82011690508083019250505050505091929192908060800190600280602002604051908101604052809291906000905b8282101561051e578382604002016002806020026040519081016040528092919082600260200280828437600081840152601f19601f820116905080830192505050505050815260200190600101906104ca565b50505050919291929080604001906002806020026040519081016040528092919082600260200280828437600081840152601f19601f820116905080830192505050505050919291929080602001906001806020026040519081016040528092919082600160200280828437600081840152601f19601f8201169050808301925050505050509192919290505050610a02565b604051808215151515815260200191505060405180910390f35b61073460048036036101408110156105e257600080fd5b810190808035906020019092919080604001906002806020026040519081016040528092919082600260200280828437600081840152601f19601f82011690508083019250505050505091929192908060800190600280602002604051908101604052809291906000905b828210156106a1578382604002016002806020026040519081016040528092919082600260200280828437600081840152601f19601f8201169050808301925050505050508152602001906001019061064d565b50505050919291929080604001906002806020026040519081016040528092919082600260200280828437600081840152601f19601f820116905080830192505050505050919291929080602001906001806020026040519081016040528092919082600160200280828437600081840152601f19601f8201169050808301925050505050509192919290505050610c49565b604051808215151515815260200191505060405180910390f35b6060600380548060200260200160405190810160405280929190818152602001828054801561079c57602002820191906000526020600020905b815481526020019060010190808311610788575b5050505050905090565b600047905090565b60015481565b60006107bf8261084b565b610831576040517f08c379a00000000000000000000000000000000000000000000000000000000081526004018080602001828103825260168152602001807f496e76616c69642063616e646964617465206e616d650000000000000000000081525060200191505060405180910390fd5b600080838152602001908152602001600020549050919050565b600080600090505b60038054905081101561089657826003828154811061086e57fe5b9060005260206000200154141561088957600191505061089c565b8080600101915050610853565b50600090505b919050565b60006020528060005260406000206000915090505481565b6060600280548060200260200160405190810160405280929190818152602001828054801561092d57602002820191906000526020600020906000905b82829054906101000a900460ff1660ff16815260200190600101906020826000010492830192600103820291508084116108f65790505b5050505050905090565b6002818154811061094457fe5b9060005260206000209060209182820401919006915054906101000a900460ff1681565b6003818154811061097557fe5b906000526020600020016000915090505481565b606060048054806020026020016040519081016040528092919081815260200182805480156109d757602002820191906000526020600020905b8154815260200190600101908083116109c3575b5050505050905090565b600481815481106109ee57fe5b906000526020600020016000915090505481565b6000610a0c611ddd565b604051806040016040528087600060028110610a2457fe5b6020020151815260200187600160028110610a3b57fe5b602002015181525081600001819052506040518060400160405280604051806040016040528088600060028110610a6e57fe5b6020020151600060028110610a7f57fe5b6020020151815260200188600060028110610a9657fe5b6020020151600160028110610aa757fe5b60200201518152508152602001604051806040016040528088600160028110610acc57fe5b6020020151600060028110610add57fe5b6020020151815260200188600160028110610af457fe5b6020020151600160028110610b0557fe5b60200201518152508152508160200181905250604051806040016040528085600060028110610b3057fe5b6020020151815260200185600160028110610b4757fe5b6020020151815250816040018190525060606001604051908082528060200260200182016040528015610b895781602001602082028038833980820191505090505b50905060008090505b6001811015610bd157848160018110610ba757fe5b6020020151828281518110610bb857fe5b6020026020010181815250508080600101915050610b92565b506000610bde8284610dda565b1415610c3a577f3f3cfdb26fb5f9f1786ab4f1a1f9cd4c0b5e726cbdfc26e495261731aad44e39604051808060200182810382526022815260200180611f6d6022913960400191505060405180910390a1600192505050610c41565b6000925050505b949350505050565b6000610c5785858585610a02565b610cc9576040517f08c379a00000000000000000000000000000000000000000000000000000000081526004018080602001828103825260158152602001807f496e636f72726563742070726f6f6620676976656e000000000000000000000081525060200191505060405180910390fd5b6001600560003373ffffffffffffffffffffffffffffffffffffffff1673ffffffffffffffffffffffffffffffffffffffff16815260200190815260200160002060006101000a81548160ff021916908315150217905550610d2a8661084b565b610d9c576040517f08c379a00000000000000000000000000000000000000000000000000000000081526004018080602001828103825260168152602001807f496e76616c69642063616e646964617465206e616d650000000000000000000081525060200191505060405180910390fd5b600160008088815260200190815260200160002060008282540192505081905550610dcc3364e8d4a51000610f8a565b506001905095945050505050565b6000807f30644e72e131a029b85045b68181585d2833e84879b9709143e1f593f00000019050610e08611e10565b610e1061110f565b90508060a0015151600186510114610e2757600080fd5b610e2f611e64565b6040518060400160405280600081526020016000815250905060008090505b8651811015610ec55783878281518110610e6457fe5b602002602001015110610e7657600080fd5b610eb682610eb18560a001516001850181518110610e9057fe5b60200260200101518a8581518110610ea457fe5b6020026020010151611549565b6115dd565b91508080600101915050610e4e565b50610ee8818360a00151600081518110610edb57fe5b60200260200101516115dd565b9050610f388260200151836040015183856080015189604001518760000151610f21610f1c8d600001518b602001516115dd565b611690565b610f338d602001518b6040015161172a565b611928565b610f485760019350505050610f84565b610f6c85600001518360800151610f628560600151611690565b8860200151611a8c565b610f7c5760029350505050610f84565b600093505050505b92915050565b60008147108015610fec575060011515600560008573ffffffffffffffffffffffffffffffffffffffff1673ffffffffffffffffffffffffffffffffffffffff16815260200190815260200160002060009054906101000a900460ff16151514155b15610ffa5760009050611109565b6000600560008573ffffffffffffffffffffffffffffffffffffffff1673ffffffffffffffffffffffffffffffffffffffff16815260200190815260200160002060006101000a81548160ff0219169083151502179055508273ffffffffffffffffffffffffffffffffffffffff166108fc839081150290604051600060405180830381858888f19350505050158015611098573d6000803e3d6000fd5b507f6202b9210eddfec514dee7725e74c49be931243a5fda51c01552a5fb07e893dd8383604051808373ffffffffffffffffffffffffffffffffffffffff1673ffffffffffffffffffffffffffffffffffffffff1681526020018281526020019250505060405180910390a1600190505b92915050565b611117611e10565b604051806040016040528060405180604001604052807f236eb04095c8d78760f4bc300e854d1e4c75f59e9f50c758f5adb8dcb139b59c81526020017f1b642ebfc582a6ef3387e5c2e142793bb617c80f4767c6e316120ac0dd1dfd93815250815260200160405180604001604052807f1424d47ecddc2545f52fdea519fec03ded183b61777666bd97c53cb02d1850c581526020017f15feb27df3c7134c99a1641cf45bb25c0cee0a84d0774de1302f9ac6322b2956815250815250816000018190525060405180604001604052807f263bd730bd9cb46f5eeb1450a2796c0e1386e938848bdcab703c612a4eacdb0081526020017f305df95ff9c5211ddfea635e32a08aa482b5ff7cf60a3533deaa116393fe05798152508160200181905250604051806040016040528060405180604001604052807f2d7ccda63c9b6b33584dc3d488d794dc4c2a335890019b565106172a6f0995c881526020017f06b4f6fdcca368915603aa9b027a39d960616ae08498e7f719a485e241c88d33815250815260200160405180604001604052807f1765a9baa2d80e7963ef379901272c80893dd04a7855214d032b5677485e0c0e81526020017f279ed417f9a3431b36210506301180414beb6508a680541a57b411a1992ec0db815250815250816040018190525060405180604001604052807f26d1068b69126d1f25e127a582ea33b6f7e5e0123693c02d0425e2c766f87d8a81526020017f1d80b26e20b1b7011a971d379aa8e9c62883c6eb8398fc7c96842e5ad4ad82308152508160600181905250604051806040016040528060405180604001604052807f141d18ee1dc1333db43085acef8f1ef9e819610c644a302016c131e0d8dc3de581526020017f0be9ab823e72f87351a6abf0bb46b780fd270ab37e7f91177e6d65c315f3b30d815250815260200160405180604001604052807f298776596c52ecf026936922dad6ef6e8c3f8a869c164a75c6a03056ba393ad781526020017f22a615aef27c83fb66f67138a03bc142dd81c018f8291a17174c4725d6a082e78152508152508160800181905250600260405190808252806020026020018201604052801561145b57816020015b611448611e7e565b8152602001906001900390816114405790505b508160a0018190525060405180604001604052807f2d6d5ab97d6a7ad61ecb0f48d0092f8257ceefd0a23315f8ccd39d18ea8a20ec81526020017f0abe8a242e07f4f9bd58afd0881796c066f8e55ceb0c61658531b49b9019bb0e8152508160a001516000815181106114ca57fe5b602002602001018190525060405180604001604052807f0116e082cfe1c693c309e97be1d2d613d02bae73b748e7e79bcf2dcebdcbb9c981526020017f2ee470d8d4d6fdc53de90fb3de6461f355a153879fe4dd4648a5d1209f6fd9248152508160a0015160018151811061153b57fe5b602002602001018190525090565b611551611e64565b611559611e98565b83600001518160006003811061156b57fe5b60200201818152505083602001518160016003811061158657fe5b602002018181525050828160026003811061159d57fe5b6020020181815250506000606083608084600060076107d05a03f1905080600081146115c8576115ca565bfe5b50806115d557600080fd5b505092915050565b6115e5611e64565b6115ed611eba565b8360000151816000600481106115ff57fe5b60200201818152505083602001518160016004811061161a57fe5b60200201818152505082600001518160026004811061163557fe5b60200201818152505082602001518160036004811061165057fe5b602002018181525050600060608360c084600060066107d05a03f19050806000811461167b5761167d565bfe5b508061168857600080fd5b505092915050565b611698611e64565b60007f30644e72e131a029b85045b68181585d97816a916871ca8d3c208c16d87cfd479050600083600001511480156116d5575060008360200151145b156116f9576040518060400160405280600081526020016000815250915050611725565b6040518060400160405280846000015181526020018285602001518161171b57fe5b0683038152509150505b919050565b611732611edc565b73__BN256G2_______________________________6361a931ec846000015160016002811061175d57fe5b6020020151856000015160006002811061177357fe5b6020020151866020015160016002811061178957fe5b6020020151876020015160006002811061179f57fe5b602002015187600001516001600281106117b557fe5b602002015188600001516000600281106117cb57fe5b602002015189602001516001600281106117e157fe5b60200201518a602001516000600281106117f757fe5b60200201516040518963ffffffff1660e01b8152600401808981526020018881526020018781526020018681526020018581526020018481526020018381526020018281526020019850505050505050505060806040518083038186803b15801561186157600080fd5b505af4158015611875573d6000803e3d6000fd5b505050506040513d608081101561188b57600080fd5b810190808051906020019092919080519060200190929190805190602001909291908051906020019092919050505084600001516001600281106118cb57fe5b6020020185600001516000600281106118e057fe5b6020020186602001516001600281106118f557fe5b60200201876020015160006002811061190a57fe5b60200201848152508481525084815250848152505050505092915050565b60006060600460405190808252806020026020018201604052801561196757816020015b611954611e7e565b81526020019060019003908161194c5790505b509050606060046040519080825280602002602001820160405280156119a757816020015b611994611f02565b81526020019060019003908161198c5790505b5090508a826000815181106119b857fe5b602002602001018190525088826001815181106119d157fe5b602002602001018190525086826002815181106119ea57fe5b60200260200101819052508482600381518110611a0357fe5b60200260200101819052508981600081518110611a1c57fe5b60200260200101819052508781600181518110611a3557fe5b60200260200101819052508581600281518110611a4e57fe5b60200260200101819052508381600381518110611a6757fe5b6020026020010181905250611a7c8282611b88565b9250505098975050505050505050565b600060606002604051908082528060200260200182016040528015611acb57816020015b611ab8611e7e565b815260200190600190039081611ab05790505b50905060606002604051908082528060200260200182016040528015611b0b57816020015b611af8611f02565b815260200190600190039081611af05790505b5090508682600081518110611b1c57fe5b60200260200101819052508482600181518110611b3557fe5b60200260200101819052508581600081518110611b4e57fe5b60200260200101819052508381600181518110611b6757fe5b6020026020010181905250611b7c8282611b88565b92505050949350505050565b60008151835114611b9857600080fd5b6000835190506000600682029050606081604051908082528060200260200182016040528015611bd75781602001602082028038833980820191505090505b50905060008090505b83811015611d7d57868181518110611bf457fe5b602002602001015160000151826000600684020181518110611c1257fe5b602002602001018181525050868181518110611c2a57fe5b602002602001015160200151826001600684020181518110611c4857fe5b602002602001018181525050858181518110611c6057fe5b602002602001015160000151600060028110611c7857fe5b6020020151826002600684020181518110611c8f57fe5b602002602001018181525050858181518110611ca757fe5b602002602001015160000151600160028110611cbf57fe5b6020020151826003600684020181518110611cd657fe5b602002602001018181525050858181518110611cee57fe5b602002602001015160200151600060028110611d0657fe5b6020020151826004600684020181518110611d1d57fe5b602002602001018181525050858181518110611d3557fe5b602002602001015160200151600160028110611d4d57fe5b6020020151826005600684020181518110611d6457fe5b6020026020010181815250508080600101915050611be0565b50611d86611f28565b60006020826020860260208601600060086107d05a03f190508060008114611dad57611daf565bfe5b5080611dba57600080fd5b600082600060018110611dc957fe5b602002015114159550505050505092915050565b6040518060600160405280611df0611e7e565b8152602001611dfd611f02565b8152602001611e0a611e7e565b81525090565b6040518060c00160405280611e23611f02565b8152602001611e30611e7e565b8152602001611e3d611f02565b8152602001611e4a611e7e565b8152602001611e57611f02565b8152602001606081525090565b604051806040016040528060008152602001600081525090565b604051806040016040528060008152602001600081525090565b6040518060600160405280600390602082028038833980820191505090505090565b6040518060800160405280600490602082028038833980820191505090505090565b6040518060400160405280611eef611f4a565b8152602001611efc611f4a565b81525090565b6040518060400160405280611f15611f4a565b8152602001611f22611f4a565b81525090565b6040518060200160405280600190602082028038833980820191505090505090565b604051806040016040528060029060208202803883398082019150509050509056fe5472616e73616374696f6e207375636365737366756c6c792076657269666965642ea2646970667358221220ab676fee811dce82a7c321eef54ea8f7293779da45843507912eaa4c2ca8fcf564736f6c63430006010033",
  "source": "pragma solidity ^0.6.1;\n\nimport './verifier.sol';\nimport './ElectionRegistry.sol';\n\n\ncontract Voting is Verifier {\n  /* mapping field below is equivalent to an associative array or hash.\n  The key of the mapping is candidate name stored as type bytes32 and value is\n  an unsigned integer to store the vote count\n  */\n\n  mapping (bytes32 => uint256) public votesReceived;\n\n  /* Solidity doesn't let you pass in an array of strings in the constructor (yet).\n  We will use an array of bytes32 instead to store the list of candidates\n  */\n\n  bytes32 public merkleRoot;\n  uint8[] public provingKey;\n  bytes32[] public candidateList;\n  bytes32[] public voters;\n\n  // withdraw tocken variables\n  mapping (address => bool) votingRecord;\n  event logWithdrawal(address receiver, uint amount);\n\n  constructor(\n    address registryAdd,\n    bytes32 root,\n    uint8[] memory provingSetup,\n    bytes32[] memory registry,\n    bytes32[] memory candidateNames\n  ) public payable {\n    merkleRoot = root;\n    provingKey = provingSetup;\n    voters = registry;\n    candidateList = candidateNames;\n    ElectionRegistry(registryAdd).register(msg.sender, address(this));\n  }\n\n  function getCandidates() public view returns (bytes32[] memory) {\n    return candidateList;\n  }\n\n  function getVoters() public view returns (bytes32[] memory) {\n    return voters;\n  }\n\n  function getProvingKey() public view returns (uint8[] memory) {\n    return provingKey;\n  }\n\n  function getBalance() public view returns (uint) {\n    return address(this).balance;\n  }\n\n  // This function returns the total votes a candidate has received so far\n  function totalVotesFor(bytes32 candidate) public view returns (uint256) {\n    require(validCandidate(candidate), \"Invalid candidate name\");\n    return votesReceived[candidate];\n  }\n\n  // This function increments the vote count for the specified candidate. This\n  // is equivalent to casting a vote\n  function voteForCandidate(\n    bytes32 candidate,\n    uint[2] memory a,\n    uint[2][2] memory b,\n    uint[2] memory c,\n    uint[1] memory input\n  ) public payable returns (bool) {\n    require(verifyTx(a, b, c, input), \"Incorrect proof given\");\n    votingRecord[msg.sender] = true;\n    require(validCandidate(candidate), \"Invalid candidate name\");\n    votesReceived[candidate] += 1;\n    withdraw(msg.sender, 1 szabo);\n    return true;\n  }\n\n  function withdraw(address payable voter, uint amount) internal returns (bool success) {\n    if (address(this).balance < amount && votingRecord[voter] != true) return false;\n    votingRecord[voter] = false;\n    voter.transfer(amount);\n    emit logWithdrawal(voter, amount);\n    return true;\n  }\n\n  function validCandidate(bytes32 candidate) public view returns (bool) {\n    for(uint i = 0; i < candidateList.length; i++) {\n      if (candidateList[i] == candidate) {\n        return true;\n      }\n    }\n    return false;\n  }\n\n}",
  "sourcePath": "/Users/alvaro/uni/Bachelor Arbeit/Ethereum-Anonymous-Voting/contracts/Voting.sol",
  "compiler": {
    "name": "solc",
    "version": "0.6.1+commit.e6f7d5a4.Emscripten.clang"
  },
  "schemaVersion": "3.0.23",
  "updatedAt": "2020-03-02T15:07:43.227Z",
  "devdoc": {
    "methods": {}
  },
  "userdoc": {
    "methods": {}
  }
}