{
  "contractName": "Voting",
  "abi": [
    {
      "inputs": [
        {
          "internalType": "address",
          "name": "registryAdd",
          "type": "address"
        },
        {
          "internalType": "bytes32",
          "name": "root",
          "type": "bytes32"
        },
        {
          "internalType": "bytes32[]",
          "name": "registry",
          "type": "bytes32[]"
        },
        {
          "internalType": "bytes32[]",
          "name": "candidateNames",
          "type": "bytes32[]"
        }
      ],
      "stateMutability": "payable",
      "type": "constructor",
      "payable": true
    },
    {
      "anonymous": false,
      "inputs": [
        {
          "indexed": false,
          "internalType": "string",
          "name": "s",
          "type": "string"
        }
      ],
      "name": "Verified",
      "type": "event"
    },
    {
      "anonymous": false,
      "inputs": [
        {
          "indexed": false,
          "internalType": "address",
          "name": "receiver",
          "type": "address"
        },
        {
          "indexed": false,
          "internalType": "uint256",
          "name": "amount",
          "type": "uint256"
        }
      ],
      "name": "logWithdrawal",
      "type": "event"
    },
    {
      "inputs": [
        {
          "internalType": "uint256",
          "name": "",
          "type": "uint256"
        }
      ],
      "name": "candidateList",
      "outputs": [
        {
          "internalType": "bytes32",
          "name": "",
          "type": "bytes32"
        }
      ],
      "stateMutability": "view",
      "type": "function",
      "constant": true
    },
    {
      "inputs": [],
      "name": "merkleRoot",
      "outputs": [
        {
          "internalType": "bytes32",
          "name": "",
          "type": "bytes32"
        }
      ],
      "stateMutability": "view",
      "type": "function",
      "constant": true
    },
    {
      "inputs": [
        {
          "components": [
            {
              "components": [
                {
                  "internalType": "uint256",
                  "name": "X",
                  "type": "uint256"
                },
                {
                  "internalType": "uint256",
                  "name": "Y",
                  "type": "uint256"
                }
              ],
              "internalType": "struct Pairing.G1Point",
              "name": "a",
              "type": "tuple"
            },
            {
              "components": [
                {
                  "internalType": "uint256[2]",
                  "name": "X",
                  "type": "uint256[2]"
                },
                {
                  "internalType": "uint256[2]",
                  "name": "Y",
                  "type": "uint256[2]"
                }
              ],
              "internalType": "struct Pairing.G2Point",
              "name": "b",
              "type": "tuple"
            },
            {
              "components": [
                {
                  "internalType": "uint256",
                  "name": "X",
                  "type": "uint256"
                },
                {
                  "internalType": "uint256",
                  "name": "Y",
                  "type": "uint256"
                }
              ],
              "internalType": "struct Pairing.G1Point",
              "name": "c",
              "type": "tuple"
            }
          ],
          "internalType": "struct Verifier.Proof",
          "name": "proof",
          "type": "tuple"
        },
        {
          "internalType": "uint256[1]",
          "name": "input",
          "type": "uint256[1]"
        }
      ],
      "name": "verifyTx",
      "outputs": [
        {
          "internalType": "bool",
          "name": "r",
          "type": "bool"
        }
      ],
      "stateMutability": "nonpayable",
      "type": "function"
    },
    {
      "inputs": [
        {
          "internalType": "uint256",
          "name": "",
          "type": "uint256"
        }
      ],
      "name": "voters",
      "outputs": [
        {
          "internalType": "bytes32",
          "name": "",
          "type": "bytes32"
        }
      ],
      "stateMutability": "view",
      "type": "function",
      "constant": true
    },
    {
      "inputs": [
        {
          "internalType": "bytes32",
          "name": "",
          "type": "bytes32"
        }
      ],
      "name": "votesReceived",
      "outputs": [
        {
          "internalType": "uint256",
          "name": "",
          "type": "uint256"
        }
      ],
      "stateMutability": "view",
      "type": "function",
      "constant": true
    },
    {
      "inputs": [],
      "name": "getCandidates",
      "outputs": [
        {
          "internalType": "bytes32[]",
          "name": "",
          "type": "bytes32[]"
        }
      ],
      "stateMutability": "view",
      "type": "function",
      "constant": true
    },
    {
      "inputs": [],
      "name": "getVoters",
      "outputs": [
        {
          "internalType": "bytes32[]",
          "name": "",
          "type": "bytes32[]"
        }
      ],
      "stateMutability": "view",
      "type": "function",
      "constant": true
    },
    {
      "inputs": [],
      "name": "getRoot",
      "outputs": [
        {
          "internalType": "bytes32",
          "name": "",
          "type": "bytes32"
        }
      ],
      "stateMutability": "view",
      "type": "function",
      "constant": true
    },
    {
      "inputs": [],
      "name": "getBalance",
      "outputs": [
        {
          "internalType": "uint256",
          "name": "",
          "type": "uint256"
        }
      ],
      "stateMutability": "view",
      "type": "function",
      "constant": true
    },
    {
      "inputs": [
        {
          "internalType": "bytes32",
          "name": "candidate",
          "type": "bytes32"
        }
      ],
      "name": "totalVotesFor",
      "outputs": [
        {
          "internalType": "uint256",
          "name": "",
          "type": "uint256"
        }
      ],
      "stateMutability": "view",
      "type": "function",
      "constant": true
    },
    {
      "inputs": [
        {
          "internalType": "bytes32",
          "name": "candidate",
          "type": "bytes32"
        },
        {
          "components": [
            {
              "components": [
                {
                  "internalType": "uint256",
                  "name": "X",
                  "type": "uint256"
                },
                {
                  "internalType": "uint256",
                  "name": "Y",
                  "type": "uint256"
                }
              ],
              "internalType": "struct Pairing.G1Point",
              "name": "a",
              "type": "tuple"
            },
            {
              "components": [
                {
                  "internalType": "uint256[2]",
                  "name": "X",
                  "type": "uint256[2]"
                },
                {
                  "internalType": "uint256[2]",
                  "name": "Y",
                  "type": "uint256[2]"
                }
              ],
              "internalType": "struct Pairing.G2Point",
              "name": "b",
              "type": "tuple"
            },
            {
              "components": [
                {
                  "internalType": "uint256",
                  "name": "X",
                  "type": "uint256"
                },
                {
                  "internalType": "uint256",
                  "name": "Y",
                  "type": "uint256"
                }
              ],
              "internalType": "struct Pairing.G1Point",
              "name": "c",
              "type": "tuple"
            }
          ],
          "internalType": "struct Verifier.Proof",
          "name": "proof",
          "type": "tuple"
        },
        {
          "internalType": "uint256[1]",
          "name": "input",
          "type": "uint256[1]"
        }
      ],
      "name": "voteForCandidate",
      "outputs": [
        {
          "internalType": "bool",
          "name": "",
          "type": "bool"
        }
      ],
      "stateMutability": "payable",
      "type": "function",
      "payable": true
    },
    {
      "inputs": [
        {
          "internalType": "bytes32",
          "name": "candidate",
          "type": "bytes32"
        }
      ],
      "name": "validCandidate",
      "outputs": [
        {
          "internalType": "bool",
          "name": "",
          "type": "bool"
        }
      ],
      "stateMutability": "view",
      "type": "function",
      "constant": true
    }
  ],
  "bytecode": "0x6080604052604051620020243803806200202483398181016040526200002991908101906200024c565b8260018190555081600390805190602001906200004892919062000100565b5080600290805190602001906200006192919062000100565b508373ffffffffffffffffffffffffffffffffffffffff1663aa67735433306040518363ffffffff1660e01b81526004016200009f92919062000338565b602060405180830381600087803b158015620000ba57600080fd5b505af1158015620000cf573d6000803e3d6000fd5b505050506040513d601f19601f82011682018060405250620000f59190810190620002ea565b50505050506200048e565b8280548282559060005260206000209081019282156200013f579160200282015b828111156200013e57825182559160200191906001019062000121565b5b5090506200014e919062000152565b5090565b6200017791905b808211156200017357600081600090555060010162000159565b5090565b90565b6000815190506200018b8162000440565b92915050565b600082601f830112620001a357600080fd5b8151620001ba620001b48262000393565b62000365565b91508181835260208401935060208101905083856020840282011115620001e057600080fd5b60005b83811015620002145781620001f988826200021e565b845260208401935060208301925050600181019050620001e3565b5050505092915050565b6000815190506200022f816200045a565b92915050565b600081519050620002468162000474565b92915050565b600080600080608085870312156200026357600080fd5b600062000273878288016200017a565b945050602062000286878288016200021e565b935050604085015167ffffffffffffffff811115620002a457600080fd5b620002b28782880162000191565b925050606085015167ffffffffffffffff811115620002d057600080fd5b620002de8782880162000191565b91505092959194509250565b600060208284031215620002fd57600080fd5b60006200030d8482850162000235565b91505092915050565b620003218162000404565b82525050565b6200033281620003bc565b82525050565b60006040820190506200034f600083018562000316565b6200035e602083018462000327565b9392505050565b6000604051905081810181811067ffffffffffffffff821117156200038957600080fd5b8060405250919050565b600067ffffffffffffffff821115620003ab57600080fd5b602082029050602081019050919050565b6000620003c982620003da565b9050919050565b6000819050919050565b600073ffffffffffffffffffffffffffffffffffffffff82169050919050565b6000819050919050565b6000620004118262000418565b9050919050565b600062000425826200042c565b9050919050565b60006200043982620003da565b9050919050565b6200044b81620003bc565b81146200045757600080fd5b50565b6200046581620003d0565b81146200047157600080fd5b50565b6200047f81620003fa565b81146200048b57600080fd5b50565b611b86806200049e6000396000f3fe6080604052600436106100a75760003560e01c80637021939f116100645780637021939f146101d2578063b13c744b1461020f578063c35f98c51461024c578063cdd722531461027c578063da58c7d9146102a7578063f48d7729146102e4576100a7565b806306a49fce146100ac57806312065fe0146100d75780632eb4a7ab146101025780632f265cf71461012d578063392e66781461016a5780635ca1e165146101a7575b600080fd5b3480156100b857600080fd5b506100c1610321565b6040516100ce919061191e565b60405180910390f35b3480156100e357600080fd5b506100ec610379565b6040516100f991906119d6565b60405180910390f35b34801561010e57600080fd5b50610117610381565b604051610124919061195b565b60405180910390f35b34801561013957600080fd5b50610154600480360361014f919081019061166d565b610387565b60405161016191906119d6565b60405180910390f35b34801561017657600080fd5b50610191600480360361018c919081019061166d565b6103eb565b60405161019e9190611940565b60405180910390f35b3480156101b357600080fd5b506101bc610441565b6040516101c9919061195b565b60405180910390f35b3480156101de57600080fd5b506101f960048036036101f4919081019061166d565b61044b565b60405161020691906119d6565b60405180910390f35b34801561021b57600080fd5b5061023660048036036102319190810190611725565b610463565b604051610243919061195b565b60405180910390f35b61026660048036036102619190810190611696565b610484565b6040516102739190611940565b60405180910390f35b34801561028857600080fd5b506102916105ab565b60405161029e919061191e565b60405180910390f35b3480156102b357600080fd5b506102ce60048036036102c99190810190611725565b610603565b6040516102db919061195b565b60405180910390f35b3480156102f057600080fd5b5061030b600480360361030691908101906116e7565b610624565b6040516103189190611940565b60405180910390f35b6060600280548060200260200160405190810160405280929190818152602001828054801561036f57602002820191906000526020600020905b81548152602001906001019080831161035b575b5050505050905090565b600047905090565b60015481565b6000610392826103eb565b6103d1576040517f08c379a00000000000000000000000000000000000000000000000000000000081526004016103c890611976565b60405180910390fd5b600080838152602001908152602001600020549050919050565b600080600090505b60028054905081101561043657826002828154811061040e57fe5b9060005260206000200154141561042957600191505061043c565b80806001019150506103f3565b50600090505b919050565b6000600154905090565b60006020528060005260406000206000915090505481565b6002818154811061047057fe5b906000526020600020016000915090505481565b60006104908383610624565b6104cf576040517f08c379a00000000000000000000000000000000000000000000000000000000081526004016104c6906119b6565b60405180910390fd5b6001600460003373ffffffffffffffffffffffffffffffffffffffff1673ffffffffffffffffffffffffffffffffffffffff16815260200190815260200160002060006101000a81548160ff021916908315150217905550610530846103eb565b61056f576040517f08c379a000000000000000000000000000000000000000000000000000000000815260040161056690611976565b60405180910390fd5b60016000808681526020019081526020016000206000828254019250508190555061059f3364e8d4a510006106fe565b50600190509392505050565b606060038054806020026020016040519081016040528092919081815260200182805480156105f957602002820191906000526020600020905b8154815260200190600101908083116105e5575b5050505050905090565b6003818154811061061057fe5b906000526020600020016000915090505481565b6000606060016040519080825280602002602001820160405280156106585781602001602082028038833980820191505090505b50905060008090505b60018110156106a05783816001811061067657fe5b602002015182828151811061068757fe5b6020026020010181815250508080600101915050610661565b5060006106ad8286610851565b14156106f2577f3f3cfdb26fb5f9f1786ab4f1a1f9cd4c0b5e726cbdfc26e495261731aad44e396040516106e090611996565b60405180910390a160019150506106f8565b60009150505b92915050565b60008147108015610760575060011515600460008573ffffffffffffffffffffffffffffffffffffffff1673ffffffffffffffffffffffffffffffffffffffff16815260200190815260200160002060009054906101000a900460ff16151514155b1561076e576000905061084b565b6000600460008573ffffffffffffffffffffffffffffffffffffffff1673ffffffffffffffffffffffffffffffffffffffff16815260200190815260200160002060006101000a81548160ff0219169083151502179055508273ffffffffffffffffffffffffffffffffffffffff166108fc839081150290604051600060405180830381858888f1935050505015801561080c573d6000803e3d6000fd5b507f6202b9210eddfec514dee7725e74c49be931243a5fda51c01552a5fb07e893dd838360405161083e9291906118f5565b60405180910390a1600190505b92915050565b6000807f30644e72e131a029b85045b68181585d2833e84879b9709143e1f593f0000001905061087f611339565b6108876109c3565b905080608001515160018651011461089e57600080fd5b6108a6611380565b6040518060400160405280600081526020016000815250905060008090505b865181101561093c57838782815181106108db57fe5b6020026020010151106108ed57600080fd5b61092d826109288560800151600185018151811061090757fe5b60200260200101518a858151811061091b57fe5b6020026020010151610d9f565b610e33565b915080806001019150506108c5565b5061095f81836080015160008151811061095257fe5b6020026020010151610e33565b90506109a58560000151866020015161097784610ee6565b85604001516109898a60400151610ee6565b876060015161099b8960000151610ee6565b8960200151610f80565b6109b557600193505050506109bd565b600093505050505b92915050565b6109cb611339565b60405180604001604052807f1936c240636390dc823e3a728e94b208eb53c6756d81da57ec3425e05d43ac1081526020017f2d70ff78e8216bf29d58923a686d9738278b8ce2fd822e197c85b09286d155668152508160000181905250604051806040016040528060405180604001604052807f2b4daf047abe2e7f0b311118c1b963b63695dc0d769cea78849604434de055bf81526020017f29c13ecb6f33dbc4b3b8a02e2e255511ce4c26a8a2f299efcc94caf2de4fce00815250815260200160405180604001604052807f1da9020008df7f549751f8a251af3b2dc4a2ad3e0870de54acaedd9fc1b47e1781526020017f25ea0d7e2b29de431b86a943db30dbf4d98f68df9ca8a9628d14d1591e817d908152508152508160200181905250604051806040016040528060405180604001604052807f011016e22ae045444f50fb80f246ec486c7e02af09132cd38c4fcf484983e4f281526020017ee83c788c2878d1d5eba3ed49b0d81e4c0487dedc3e4d1c2baab5833785b62f815250815260200160405180604001604052807f05eb89e741ed5b5d611cebf92d1ed02cd6f3311089f0d400df7d9ced5a48fd4181526020017f132a90a3b0d369ccd66e2a5ba04a935e44d8ad5dca93a76bba592a578130a9118152508152508160400181905250604051806040016040528060405180604001604052807f065f6a3323a2abffd621fc263f348eb914904b68d5897729ae34a6b9d33f085281526020017f0c3b60f59d3bd50328a04c0ff6d979199685d0526f89f6ac29d6174ce24707a2815250815260200160405180604001604052807f26e7ebce2b44efef6b6315938e33f0a8ecc82dbad635c9efa681ed85bbb5998281526020017f12e0f3721230a0f38f6c9913048d5230fd2615ef3ff7f6ee4b20dfe0bdea1a8681525081525081606001819052506002604051908082528060200260200182016040528015610cb157816020015b610c9e61139a565b815260200190600190039081610c965790505b50816080018190525060405180604001604052807f06e8ff496b2ee89c443f83ce4e9980d04bfa7ffd54a6d929dd8c9c7167782cf981526020017f1462f2f23b9606b4d284570a4f00f5cb6d59dea9d3b3bd56a6e36ed67cd44d698152508160800151600081518110610d2057fe5b602002602001018190525060405180604001604052807f1efaa03354ac45d468a96d199c573d8746c8b960d6e973fe4fc2b5e0d8f8e51881526020017f0219e26c766c733d92bb909b8bbb9a3a915c8a06ad2d579022df9a6bb430d3c18152508160800151600181518110610d9157fe5b602002602001018190525090565b610da7611380565b610daf6113b4565b836000015181600060038110610dc157fe5b602002018181525050836020015181600160038110610ddc57fe5b6020020181815250508281600260038110610df357fe5b6020020181815250506000606083608084600060076107d05a03f190508060008114610e1e57610e20565bfe5b5080610e2b57600080fd5b505092915050565b610e3b611380565b610e436113d6565b836000015181600060048110610e5557fe5b602002018181525050836020015181600160048110610e7057fe5b602002018181525050826000015181600260048110610e8b57fe5b602002018181525050826020015181600360048110610ea657fe5b602002018181525050600060608360c084600060066107d05a03f190508060008114610ed157610ed3565bfe5b5080610ede57600080fd5b505092915050565b610eee611380565b60007f30644e72e131a029b85045b68181585d97816a916871ca8d3c208c16d87cfd47905060008360000151148015610f2b575060008360200151145b15610f4f576040518060400160405280600081526020016000815250915050610f7b565b60405180604001604052808460000151815260200182856020015181610f7157fe5b0683038152509150505b919050565b600060606004604051908082528060200260200182016040528015610fbf57816020015b610fac61139a565b815260200190600190039081610fa45790505b50905060606004604051908082528060200260200182016040528015610fff57816020015b610fec6113f8565b815260200190600190039081610fe45790505b5090508a8260008151811061101057fe5b6020026020010181905250888260018151811061102957fe5b6020026020010181905250868260028151811061104257fe5b6020026020010181905250848260038151811061105b57fe5b6020026020010181905250898160008151811061107457fe5b6020026020010181905250878160018151811061108d57fe5b602002602001018190525085816002815181106110a657fe5b602002602001018190525083816003815181106110bf57fe5b60200260200101819052506110d482826110e4565b9250505098975050505050505050565b600081518351146110f457600080fd5b60008351905060006006820290506060816040519080825280602002602001820160405280156111335781602001602082028038833980820191505090505b50905060008090505b838110156112d95786818151811061115057fe5b60200260200101516000015182600060068402018151811061116e57fe5b60200260200101818152505086818151811061118657fe5b6020026020010151602001518260016006840201815181106111a457fe5b6020026020010181815250508581815181106111bc57fe5b6020026020010151600001516000600281106111d457fe5b60200201518260026006840201815181106111eb57fe5b60200260200101818152505085818151811061120357fe5b60200260200101516000015160016002811061121b57fe5b602002015182600360068402018151811061123257fe5b60200260200101818152505085818151811061124a57fe5b60200260200101516020015160006002811061126257fe5b602002015182600460068402018151811061127957fe5b60200260200101818152505085818151811061129157fe5b6020026020010151602001516001600281106112a957fe5b60200201518260056006840201815181106112c057fe5b602002602001018181525050808060010191505061113c565b506112e261141e565b60006020826020860260208601600060086107d05a03f1905080600081146113095761130b565bfe5b508061131657600080fd5b60008260006001811061132557fe5b602002015114159550505050505092915050565b6040518060a0016040528061134c61139a565b81526020016113596113f8565b81526020016113666113f8565b81526020016113736113f8565b8152602001606081525090565b604051806040016040528060008152602001600081525090565b604051806040016040528060008152602001600081525090565b6040518060600160405280600390602082028038833980820191505090505090565b6040518060800160405280600490602082028038833980820191505090505090565b604051806040016040528061140b611440565b8152602001611418611440565b81525090565b6040518060200160405280600190602082028038833980820191505090505090565b6040518060400160405280600290602082028038833980820191505090505090565b600082601f83011261147357600080fd5b600161148661148182611a1e565b6119f1565b9150818385602084028201111561149c57600080fd5b60005b838110156114cc57816114b28882611658565b84526020840193506020830192505060018101905061149f565b5050505092915050565b600082601f8301126114e757600080fd5b60026114fa6114f582611a40565b6119f1565b9150818385602084028201111561151057600080fd5b60005b8381101561154057816115268882611658565b845260208401935060208301925050600181019050611513565b5050505092915050565b60008135905061155981611b22565b92915050565b60006040828403121561157157600080fd5b61157b60406119f1565b9050600061158b84828501611658565b600083015250602061159f84828501611658565b60208301525092915050565b6000608082840312156115bd57600080fd5b6115c760406119f1565b905060006115d7848285016114d6565b60008301525060406115eb848285016114d6565b60208301525092915050565b6000610100828403121561160a57600080fd5b61161460606119f1565b905060006116248482850161155f565b6000830152506040611638848285016115ab565b60208301525060c061164c8482850161155f565b60408301525092915050565b60008135905061166781611b39565b92915050565b60006020828403121561167f57600080fd5b600061168d8482850161154a565b91505092915050565b600080600061014084860312156116ac57600080fd5b60006116ba8682870161154a565b93505060206116cb868287016115f7565b9250506101206116dd86828701611462565b9150509250925092565b60008061012083850312156116fb57600080fd5b6000611709858286016115f7565b92505061010061171b85828601611462565b9150509250929050565b60006020828403121561173757600080fd5b600061174584828501611658565b91505092915050565b600061175a83836117e2565b60208301905092915050565b61176f81611aec565b82525050565b600061178082611a72565b61178a8185611a8a565b935061179583611a62565b8060005b838110156117c65781516117ad888261174e565b97506117b883611a7d565b925050600181019050611799565b5085935050505092915050565b6117dc81611aac565b82525050565b6117eb81611ab8565b82525050565b6117fa81611ab8565b82525050565b600061180d601683611a9b565b91507f496e76616c69642063616e646964617465206e616d65000000000000000000006000830152602082019050919050565b600061184d602283611a9b565b91507f5472616e73616374696f6e207375636365737366756c6c79207665726966696560008301527f642e0000000000000000000000000000000000000000000000000000000000006020830152604082019050919050565b60006118b3601583611a9b565b91507f496e636f72726563742070726f6f6620676976656e00000000000000000000006000830152602082019050919050565b6118ef81611ae2565b82525050565b600060408201905061190a6000830185611766565b61191760208301846118e6565b9392505050565b600060208201905081810360008301526119388184611775565b905092915050565b600060208201905061195560008301846117d3565b92915050565b600060208201905061197060008301846117f1565b92915050565b6000602082019050818103600083015261198f81611800565b9050919050565b600060208201905081810360008301526119af81611840565b9050919050565b600060208201905081810360008301526119cf816118a6565b9050919050565b60006020820190506119eb60008301846118e6565b92915050565b6000604051905081810181811067ffffffffffffffff82111715611a1457600080fd5b8060405250919050565b600067ffffffffffffffff821115611a3557600080fd5b602082029050919050565b600067ffffffffffffffff821115611a5757600080fd5b602082029050919050565b6000819050602082019050919050565b600081519050919050565b6000602082019050919050565b600082825260208201905092915050565b600082825260208201905092915050565b60008115159050919050565b6000819050919050565b600073ffffffffffffffffffffffffffffffffffffffff82169050919050565b6000819050919050565b6000611af782611afe565b9050919050565b6000611b0982611b10565b9050919050565b6000611b1b82611ac2565b9050919050565b611b2b81611ab8565b8114611b3657600080fd5b50565b611b4281611ae2565b8114611b4d57600080fd5b5056fea2646970667358221220b4898d56aa8cd668b25f071b3b9c86f9a6d116bcf1c0049e0fec9047ad44ef8564736f6c63430006010033",
  "source": "pragma solidity 0.6.1;\npragma experimental ABIEncoderV2;\n\nimport './verifier.sol';\nimport './ElectionRegistry.sol';\n\n\ncontract Voting is Verifier {\n  /* mapping field below is equivalent to an associative array or hash.\n  The key of the mapping is candidate name stored as type bytes32 and value is\n  an unsigned integer to store the vote count\n  */\n\n  mapping (bytes32 => uint256) public votesReceived;\n\n  /* Solidity doesn't let you pass in an array of strings in the constructor (yet).\n  We will use an array of bytes32 instead to store the list of candidates\n  */\n\n  bytes32 public merkleRoot;\n  bytes32[] public candidateList;\n  bytes32[] public voters;\n\n  // withdraw tocken variables\n  mapping (address => bool) votingRecord;\n  event logWithdrawal(address receiver, uint amount);\n\n  constructor(\n    address registryAdd,\n    bytes32 root,\n    bytes32[] memory registry,\n    bytes32[] memory candidateNames\n  ) public payable {\n    merkleRoot = root;\n    voters = registry;\n    candidateList = candidateNames;\n    ElectionRegistry(registryAdd).register(msg.sender, address(this));\n  }\n\n  function getCandidates() public view returns (bytes32[] memory) {\n    return candidateList;\n  }\n\n  function getVoters() public view returns (bytes32[] memory) {\n    return voters;\n  }\n\n  function getRoot() public view returns (bytes32) {\n    return merkleRoot;\n  }\n\n  function getBalance() public view returns (uint) {\n    return address(this).balance;\n  }\n\n  // This function returns the total votes a candidate has received so far\n  function totalVotesFor(bytes32 candidate) public view returns (uint256) {\n    require(validCandidate(candidate), \"Invalid candidate name\");\n    return votesReceived[candidate];\n  }\n\n  // This function increments the vote count for the specified candidate. This\n  // is equivalent to casting a vote\n  function voteForCandidate(\n    bytes32 candidate,\n    Proof memory proof,\n    uint[1] memory input\n  ) public payable returns (bool) {\n    require(verifyTx(proof, input), \"Incorrect proof given\");\n    votingRecord[msg.sender] = true;\n    require(validCandidate(candidate), \"Invalid candidate name\");\n    votesReceived[candidate] += 1;\n    withdraw(msg.sender, 1 szabo);\n    return true;\n  }\n\n  function withdraw(address payable voter, uint amount) internal returns (bool success) {\n    if (address(this).balance < amount && votingRecord[voter] != true) return false;\n    votingRecord[voter] = false;\n    voter.transfer(amount);\n    emit logWithdrawal(voter, amount);\n    return true;\n  }\n\n  function validCandidate(bytes32 candidate) public view returns (bool) {\n    for(uint i = 0; i < candidateList.length; i++) {\n      if (candidateList[i] == candidate) {\n        return true;\n      }\n    }\n    return false;\n  }\n\n}",
  "sourcePath": "/Users/alvaro/uni/Bachelor Arbeit/Ethereum-Anonymous-Voting/contracts/Voting.sol",
  "compiler": {
    "name": "solc",
    "version": "0.6.1+commit.e6f7d5a4.Emscripten.clang"
  },
  "schemaVersion": "3.0.23",
  "updatedAt": "2020-03-22T09:25:07.371Z",
  "networkType": "ethereum",
  "devdoc": {
    "methods": {}
  },
  "userdoc": {
    "methods": {}
  }
}