{
  "contractName": "Voting",
  "abi": [
    {
      "inputs": [
        {
          "internalType": "address",
          "name": "registryAddress",
          "type": "address"
        },
        {
          "internalType": "address",
          "name": "verifierAddress",
          "type": "address"
        },
        {
          "internalType": "bytes32",
          "name": "root",
          "type": "bytes32"
        },
        {
          "internalType": "bytes32[]",
          "name": "registry",
          "type": "bytes32[]"
        },
        {
          "internalType": "bytes32[]",
          "name": "candidateNames",
          "type": "bytes32[]"
        }
      ],
      "stateMutability": "payable",
      "type": "constructor"
    },
    {
      "anonymous": false,
      "inputs": [
        {
          "indexed": false,
          "internalType": "address",
          "name": "receiver",
          "type": "address"
        },
        {
          "indexed": false,
          "internalType": "uint256",
          "name": "amount",
          "type": "uint256"
        }
      ],
      "name": "logWithdrawal",
      "type": "event"
    },
    {
      "inputs": [
        {
          "internalType": "uint256",
          "name": "",
          "type": "uint256"
        }
      ],
      "name": "candidateList",
      "outputs": [
        {
          "internalType": "bytes32",
          "name": "",
          "type": "bytes32"
        }
      ],
      "stateMutability": "view",
      "type": "function"
    },
    {
      "inputs": [],
      "name": "merkleRoot",
      "outputs": [
        {
          "internalType": "bytes32",
          "name": "",
          "type": "bytes32"
        }
      ],
      "stateMutability": "view",
      "type": "function"
    },
    {
      "inputs": [],
      "name": "verifier",
      "outputs": [
        {
          "internalType": "address",
          "name": "",
          "type": "address"
        }
      ],
      "stateMutability": "view",
      "type": "function"
    },
    {
      "inputs": [
        {
          "internalType": "bytes32",
          "name": "",
          "type": "bytes32"
        }
      ],
      "name": "votesReceived",
      "outputs": [
        {
          "internalType": "uint256",
          "name": "",
          "type": "uint256"
        }
      ],
      "stateMutability": "view",
      "type": "function"
    },
    {
      "inputs": [],
      "name": "getCandidates",
      "outputs": [
        {
          "internalType": "bytes32[]",
          "name": "",
          "type": "bytes32[]"
        }
      ],
      "stateMutability": "view",
      "type": "function"
    },
    {
      "inputs": [],
      "name": "getVoters",
      "outputs": [
        {
          "internalType": "bytes32[]",
          "name": "",
          "type": "bytes32[]"
        }
      ],
      "stateMutability": "view",
      "type": "function"
    },
    {
      "inputs": [],
      "name": "getRoot",
      "outputs": [
        {
          "internalType": "bytes32",
          "name": "",
          "type": "bytes32"
        }
      ],
      "stateMutability": "view",
      "type": "function"
    },
    {
      "inputs": [],
      "name": "getBalance",
      "outputs": [
        {
          "internalType": "uint256",
          "name": "",
          "type": "uint256"
        }
      ],
      "stateMutability": "view",
      "type": "function"
    },
    {
      "inputs": [
        {
          "internalType": "bytes32",
          "name": "candidate",
          "type": "bytes32"
        }
      ],
      "name": "totalVotesFor",
      "outputs": [
        {
          "internalType": "uint256",
          "name": "",
          "type": "uint256"
        }
      ],
      "stateMutability": "view",
      "type": "function"
    },
    {
      "inputs": [
        {
          "internalType": "bytes32",
          "name": "candidate",
          "type": "bytes32"
        },
        {
          "components": [
            {
              "components": [
                {
                  "internalType": "uint256",
                  "name": "X",
                  "type": "uint256"
                },
                {
                  "internalType": "uint256",
                  "name": "Y",
                  "type": "uint256"
                }
              ],
              "internalType": "struct Pairing.G1Point",
              "name": "a",
              "type": "tuple"
            },
            {
              "components": [
                {
                  "internalType": "uint256[2]",
                  "name": "X",
                  "type": "uint256[2]"
                },
                {
                  "internalType": "uint256[2]",
                  "name": "Y",
                  "type": "uint256[2]"
                }
              ],
              "internalType": "struct Pairing.G2Point",
              "name": "b",
              "type": "tuple"
            },
            {
              "components": [
                {
                  "internalType": "uint256",
                  "name": "X",
                  "type": "uint256"
                },
                {
                  "internalType": "uint256",
                  "name": "Y",
                  "type": "uint256"
                }
              ],
              "internalType": "struct Pairing.G1Point",
              "name": "c",
              "type": "tuple"
            }
          ],
          "internalType": "struct Verifier.Proof",
          "name": "proof",
          "type": "tuple"
        },
        {
          "internalType": "uint256[3]",
          "name": "input",
          "type": "uint256[3]"
        }
      ],
      "name": "voteForCandidate",
      "outputs": [
        {
          "internalType": "bool",
          "name": "",
          "type": "bool"
        }
      ],
      "stateMutability": "nonpayable",
      "type": "function"
    },
    {
      "inputs": [
        {
          "internalType": "bytes32",
          "name": "candidate",
          "type": "bytes32"
        }
      ],
      "name": "validCandidate",
      "outputs": [
        {
          "internalType": "bool",
          "name": "",
          "type": "bool"
        }
      ],
      "stateMutability": "view",
      "type": "function"
    }
  ],
  "bytecode": "0x6080604052604051620016e7380380620016e783398181016040526200002991908101906200028e565b83600160006101000a81548173ffffffffffffffffffffffffffffffffffffffff021916908373ffffffffffffffffffffffffffffffffffffffff1602179055508260028190555081600490805190602001906200008992919062000142565b508060039080519060200190620000a292919062000142565b508473ffffffffffffffffffffffffffffffffffffffff1663050dc17733306040518363ffffffff1660e01b8152600401620000e092919062000390565b602060405180830381600087803b158015620000fb57600080fd5b505af115801562000110573d6000803e3d6000fd5b505050506040513d601f19601f8201168201806040525062000136919081019062000342565b505050505050620004e6565b82805482825590600052602060002090810192821562000181579160200282015b828111156200018057825182559160200191906001019062000163565b5b50905062000190919062000194565b5090565b620001b991905b80821115620001b55760008160009055506001016200019b565b5090565b90565b600081519050620001cd8162000498565b92915050565b600082601f830112620001e557600080fd5b8151620001fc620001f682620003eb565b620003bd565b915081818352602084019350602081019050838560208402820111156200022257600080fd5b60005b838110156200025657816200023b888262000260565b84526020840193506020830192505060018101905062000225565b5050505092915050565b6000815190506200027181620004b2565b92915050565b6000815190506200028881620004cc565b92915050565b600080600080600060a08688031215620002a757600080fd5b6000620002b788828901620001bc565b9550506020620002ca88828901620001bc565b9450506040620002dd8882890162000260565b935050606086015167ffffffffffffffff811115620002fb57600080fd5b6200030988828901620001d3565b925050608086015167ffffffffffffffff8111156200032757600080fd5b6200033588828901620001d3565b9150509295509295909350565b6000602082840312156200035557600080fd5b6000620003658482850162000277565b91505092915050565b62000379816200045c565b82525050565b6200038a8162000414565b82525050565b6000604082019050620003a760008301856200036e565b620003b660208301846200037f565b9392505050565b6000604051905081810181811067ffffffffffffffff82111715620003e157600080fd5b8060405250919050565b600067ffffffffffffffff8211156200040357600080fd5b602082029050602081019050919050565b6000620004218262000432565b9050919050565b6000819050919050565b600073ffffffffffffffffffffffffffffffffffffffff82169050919050565b6000819050919050565b6000620004698262000470565b9050919050565b60006200047d8262000484565b9050919050565b6000620004918262000432565b9050919050565b620004a38162000414565b8114620004af57600080fd5b50565b620004bd8162000428565b8114620004c957600080fd5b50565b620004d78162000452565b8114620004e357600080fd5b50565b6111f180620004f66000396000f3fe608060405234801561001057600080fd5b50600436106100a95760003560e01c8063392e667811610071578063392e6678146101565780635ca1e165146101865780637021939f146101a4578063af8d2c22146101d4578063b13c744b14610204578063cdd7225314610234576100a9565b806306a49fce146100ae57806312065fe0146100cc5780632b7ac3f3146100ea5780632eb4a7ab146101085780632f265cf714610126575b600080fd5b6100b6610252565b6040516100c39190610ee7565b60405180910390f35b6100d46102aa565b6040516100e19190610fea565b60405180910390f35b6100f26102b2565b6040516100ff9190610ecc565b60405180910390f35b6101106102d8565b60405161011d9190610f24565b60405180910390f35b610140600480360361013b9190810190610a16565b6102de565b60405161014d9190610fea565b60405180910390f35b610170600480360361016b9190810190610a16565b610342565b60405161017d9190610f09565b60405180910390f35b61018e610398565b60405161019b9190610f24565b60405180910390f35b6101be60048036036101b99190810190610a16565b6103a2565b6040516101cb9190610fea565b60405180910390f35b6101ee60048036036101e99190810190610a3f565b6103ba565b6040516101fb9190610f09565b60405180910390f35b61021e60048036036102199190810190610a90565b610616565b60405161022b9190610f24565b60405180910390f35b61023c610637565b6040516102499190610ee7565b60405180910390f35b606060038054806020026020016040519081016040528092919081815260200182805480156102a057602002820191906000526020600020905b81548152602001906001019080831161028c575b5050505050905090565b600047905090565b600160009054906101000a900473ffffffffffffffffffffffffffffffffffffffff1681565b60025481565b60006102e982610342565b610328576040517f08c379a000000000000000000000000000000000000000000000000000000000815260040161031f90610f3f565b60405180910390fd5b600080838152602001908152602001600020549050919050565b600080600090505b60038054905081101561038d57826003828154811061036557fe5b90600052602060002001541415610380576001915050610393565b808060010191505061034a565b50600090505b919050565b6000600254905090565b60006020528060005260406000206000915090505481565b60006103c584610342565b610404576040517f08c379a00000000000000000000000000000000000000000000000000000000081526004016103fb90610f3f565b60405180910390fd5b60008260016003811061041357fe5b602002015160808460006003811061042757fe5b6020020151901b0160001b90506002548114610478576040517f08c379a000000000000000000000000000000000000000000000000000000000815260040161046f90610f9f565b60405180910390fd5b6000610484858561068f565b905061048f8161078b565b6104ce576040517f08c379a00000000000000000000000000000000000000000000000000000000081526004016104c590610f5f565b60405180910390fd5b600160009054906101000a900473ffffffffffffffffffffffffffffffffffffffff1673ffffffffffffffffffffffffffffffffffffffff16630f9c5d4986866040518363ffffffff1660e01b815260040161052b929190610fbf565b602060405180830381600087803b15801561054557600080fd5b505af1158015610559573d6000803e3d6000fd5b505050506040513d601f19601f8201168201806040525061057d91908101906109ed565b6105bc576040517f08c379a00000000000000000000000000000000000000000000000000000000081526004016105b390610f7f565b60405180910390fd5b60016005600083815260200190815260200160002060006101000a81548160ff0219169083151502179055506001600080888152602001908152602001600020600082825401925050819055506001925050509392505050565b6003818154811061062357fe5b906000526020600020016000915090505481565b6060600480548060200260200160405190810160405280929190818152602001828054801561068557602002820191906000526020600020905b815481526020019060010190808311610671575b5050505050905090565b60008260000151600001518360000151602001518460200151600001516000600281106106b857fe5b60200201518560200151600001516001600281106106d257fe5b60200201518660200151602001516000600281106106ec57fe5b602002015187602001516020015160016002811061070657fe5b60200201518860400151600001518960400151602001518960006003811061072a57fe5b60200201518a60016003811061073c57fe5b60200201518b60026003811061074e57fe5b602002015160405160200161076d9b9a99989796959493929190610e07565b60405160208183030381529060405280519060200120905092915050565b6000600115156005600084815260200190815260200160002060009054906101000a900460ff16151514156107c357600090506107c8565b600190505b919050565b600082601f8301126107de57600080fd5b60026107f16107ec82611032565b611005565b9150818385602084028201111561080757600080fd5b60005b83811015610837578161081d88826109d8565b84526020840193506020830192505060018101905061080a565b5050505092915050565b600082601f83011261085257600080fd5b600361086561086082611054565b611005565b9150818385602084028201111561087b57600080fd5b60005b838110156108ab578161089188826109d8565b84526020840193506020830192505060018101905061087e565b5050505092915050565b6000815190506108c481611176565b92915050565b6000813590506108d98161118d565b92915050565b6000604082840312156108f157600080fd5b6108fb6040611005565b9050600061090b848285016109d8565b600083015250602061091f848285016109d8565b60208301525092915050565b60006080828403121561093d57600080fd5b6109476040611005565b90506000610957848285016107cd565b600083015250604061096b848285016107cd565b60208301525092915050565b6000610100828403121561098a57600080fd5b6109946060611005565b905060006109a4848285016108df565b60008301525060406109b88482850161092b565b60208301525060c06109cc848285016108df565b60408301525092915050565b6000813590506109e7816111a4565b92915050565b6000602082840312156109ff57600080fd5b6000610a0d848285016108b5565b91505092915050565b600060208284031215610a2857600080fd5b6000610a36848285016108ca565b91505092915050565b60008060006101808486031215610a5557600080fd5b6000610a63868287016108ca565b9350506020610a7486828701610977565b925050610120610a8686828701610841565b9150509250925092565b600060208284031215610aa257600080fd5b6000610ab0848285016109d8565b91505092915050565b6000610ac58383610c13565b60208301905092915050565b6000610add8383610dd2565b60208301905092915050565b610af28161111a565b82525050565b6000610b038261109a565b610b0d81856110e2565b9350610b1883611076565b8060005b83811015610b49578151610b308882610ab9565b9750610b3b836110bb565b925050600181019050610b1c565b5085935050505092915050565b610b5f816110a5565b610b6981846110f3565b9250610b7482611086565b8060005b83811015610ba5578151610b8c8782610ad1565b9650610b97836110c8565b925050600181019050610b78565b505050505050565b610bb6816110b0565b610bc081846110fe565b9250610bcb82611090565b8060005b83811015610bfc578151610be38782610ad1565b9650610bee836110d5565b925050600181019050610bcf565b505050505050565b610c0d8161112c565b82525050565b610c1c81611138565b82525050565b610c2b81611138565b82525050565b6000610c3e601683611109565b91507f496e76616c69642063616e646964617465206e616d65000000000000000000006000830152602082019050919050565b6000610c7e601283611109565b91507f50726f6f6620616c7265616479207573656400000000000000000000000000006000830152602082019050919050565b6000610cbe601583611109565b91507f496e636f72726563742070726f6f6620676976656e00000000000000000000006000830152602082019050919050565b6000610cfe601083611109565b91507f496e76616c696420656c656374696f6e000000000000000000000000000000006000830152602082019050919050565b604082016000820151610d476000850182610dd2565b506020820151610d5a6020850182610dd2565b50505050565b608082016000820151610d766000850182610b56565b506020820151610d896040850182610b56565b50505050565b61010082016000820151610da66000850182610d31565b506020820151610db96040850182610d60565b506040820151610dcc60c0850182610d31565b50505050565b610ddb81611162565b82525050565b610dea81611162565b82525050565b610e01610dfc82611162565b61116c565b82525050565b6000610e13828e610df0565b602082019150610e23828d610df0565b602082019150610e33828c610df0565b602082019150610e43828b610df0565b602082019150610e53828a610df0565b602082019150610e638289610df0565b602082019150610e738288610df0565b602082019150610e838287610df0565b602082019150610e938286610df0565b602082019150610ea38285610df0565b602082019150610eb38284610df0565b6020820191508190509c9b505050505050505050505050565b6000602082019050610ee16000830184610ae9565b92915050565b60006020820190508181036000830152610f018184610af8565b905092915050565b6000602082019050610f1e6000830184610c04565b92915050565b6000602082019050610f396000830184610c22565b92915050565b60006020820190508181036000830152610f5881610c31565b9050919050565b60006020820190508181036000830152610f7881610c71565b9050919050565b60006020820190508181036000830152610f9881610cb1565b9050919050565b60006020820190508181036000830152610fb881610cf1565b9050919050565b600061016082019050610fd56000830185610d8f565b610fe3610100830184610bad565b9392505050565b6000602082019050610fff6000830184610de1565b92915050565b6000604051905081810181811067ffffffffffffffff8211171561102857600080fd5b8060405250919050565b600067ffffffffffffffff82111561104957600080fd5b602082029050919050565b600067ffffffffffffffff82111561106b57600080fd5b602082029050919050565b6000819050602082019050919050565b6000819050919050565b6000819050919050565b600081519050919050565b600060029050919050565b600060039050919050565b6000602082019050919050565b6000602082019050919050565b6000602082019050919050565b600082825260208201905092915050565b600081905092915050565b600081905092915050565b600082825260208201905092915050565b600061112582611142565b9050919050565b60008115159050919050565b6000819050919050565b600073ffffffffffffffffffffffffffffffffffffffff82169050919050565b6000819050919050565b6000819050919050565b61117f8161112c565b811461118a57600080fd5b50565b61119681611138565b81146111a157600080fd5b50565b6111ad81611162565b81146111b857600080fd5b5056fea2646970667358221220c6b884d34ec13b8006e960090bc6c59825ada6a4298c18e7acf7a3ca2d7901b864736f6c63430006010033",
  "source": "pragma solidity 0.6.1;\npragma experimental ABIEncoderV2;\n\nimport './Verifier.sol';\nimport './ElectionRegistry.sol';\n\n\ncontract Voting {\n  /* mapping field below is equivalent to an associative array or hash.\n  The key of the mapping is candidate name stored as type bytes32 and value is\n  an unsigned integer to store the vote count\n  */\n\n  mapping (bytes32 => uint256) public votesReceived;\n\n  /* Solidity doesn't let you pass in an array of strings in the constructor (yet).\n  We will use an array of bytes32 instead to store the list of candidates\n  */\n  address public verifier;\n  bytes32 public merkleRoot;\n  bytes32[] public candidateList;\n  bytes32[] private voters;\n\n  // withdraw tocken variables\n  mapping (bytes32 => bool) votingRecord;\n  event logWithdrawal(address receiver, uint amount);\n\n  constructor(\n    address registryAddress,\n    address verifierAddress,\n    bytes32 root,\n    bytes32[] memory registry,\n    bytes32[] memory candidateNames\n  ) public payable {\n    verifier = verifierAddress;\n    merkleRoot = root;\n    voters = registry;\n    candidateList = candidateNames;\n    ElectionRegistry(registryAddress).registerElection(msg.sender, address(this));\n  }\n\n  function getCandidates() public view returns (bytes32[] memory) {\n    return candidateList;\n  }\n\n  function getVoters() public view returns (bytes32[] memory) {\n    return voters;\n  }\n\n  function getRoot() public view returns (bytes32) {\n    return merkleRoot;\n  }\n\n  function getBalance() public view returns (uint) {\n    return address(this).balance;\n  }\n\n  // This function returns the total votes a candidate has received so far\n  function totalVotesFor(bytes32 candidate) public view returns (uint256) {\n    require(validCandidate(candidate), \"Invalid candidate name\");\n    return votesReceived[candidate];\n  }\n\n  // This function increments the vote count for the specified candidate. This\n  // is equivalent to casting a vote\n  function voteForCandidate(\n    bytes32 candidate,\n    Verifier.Proof memory proof,\n    uint[3] memory input\n  ) public returns (bool) {\n    require(validCandidate(candidate), \"Invalid candidate name\");\n    bytes32 electionRoot = bytes32((input[0] << (16 * 8)) + input[1]);\n    require(electionRoot == merkleRoot, \"Invalid election\");\n    bytes32 hashedProof = serializeProof(proof, input);\n    require(unusedProof(hashedProof), \"Proof already used\");\n    require(Verifier(verifier).verifyTx(proof, input), \"Incorrect proof given\");\n    votingRecord[hashedProof] = true;\n    votesReceived[candidate] += 1;\n    return true;\n  }\n\n  function validCandidate(bytes32 candidate) public view returns (bool) {\n    for(uint i = 0; i < candidateList.length; i++) {\n      if (candidateList[i] == candidate) {\n        return true;\n      }\n    }\n    return false;\n  }\n\n  function serializeProof(Verifier.Proof memory proof, uint256[3] memory input) internal pure returns (bytes32) {\n    return keccak256(abi.encodePacked(\n      proof.a.X,\n      proof.a.Y,\n      proof.b.X[0],\n      proof.b.X[1],\n      proof.b.Y[0],\n      proof.b.Y[1],\n      proof.c.X,\n      proof.c.Y,\n      input[0],\n      input[1],\n      input[2]\n    ));\n  }\n\n  function unusedProof(bytes32 proof) internal view returns (bool) {\n    if (votingRecord[proof] == true) {\n        return false;\n    } else {\n        return true;\n    }\n  }\n}",
  "sourcePath": "/Users/alvaro/uni/Bachelor Arbeit/Ethereum-Anonymous-Voting/contracts/Voting.sol",
  "compiler": {
    "name": "solc",
    "version": "0.6.1+commit.e6f7d5a4.Emscripten.clang"
  },
  "schemaVersion": "3.0.23",
  "updatedAt": "2020-04-27T13:53:59.199Z",
  "networkType": "ethereum",
  "devdoc": {
    "methods": {}
  },
  "userdoc": {
    "methods": {}
  }
}