{
  "contractName": "Voting",
  "abi": [
    {
      "inputs": [
        {
          "internalType": "bytes32",
          "name": "root",
          "type": "bytes32"
        },
        {
          "internalType": "bytes32[]",
          "name": "registry",
          "type": "bytes32[]"
        },
        {
          "internalType": "bytes32[]",
          "name": "candidateNames",
          "type": "bytes32[]"
        }
      ],
      "stateMutability": "payable",
      "type": "constructor",
      "payable": true
    },
    {
      "anonymous": false,
      "inputs": [
        {
          "indexed": false,
          "internalType": "string",
          "name": "s",
          "type": "string"
        }
      ],
      "name": "Verified",
      "type": "event"
    },
    {
      "anonymous": false,
      "inputs": [
        {
          "indexed": false,
          "internalType": "address",
          "name": "receiver",
          "type": "address"
        },
        {
          "indexed": false,
          "internalType": "uint256",
          "name": "amount",
          "type": "uint256"
        }
      ],
      "name": "logWithdrawal",
      "type": "event"
    },
    {
      "inputs": [
        {
          "internalType": "uint256",
          "name": "",
          "type": "uint256"
        }
      ],
      "name": "candidateList",
      "outputs": [
        {
          "internalType": "bytes32",
          "name": "",
          "type": "bytes32"
        }
      ],
      "stateMutability": "view",
      "type": "function",
      "constant": true
    },
    {
      "inputs": [],
      "name": "merkleRoot",
      "outputs": [
        {
          "internalType": "bytes32",
          "name": "",
          "type": "bytes32"
        }
      ],
      "stateMutability": "view",
      "type": "function",
      "constant": true
    },
    {
      "inputs": [
        {
          "internalType": "uint256[2]",
          "name": "a",
          "type": "uint256[2]"
        },
        {
          "internalType": "uint256[2][2]",
          "name": "b",
          "type": "uint256[2][2]"
        },
        {
          "internalType": "uint256[2]",
          "name": "c",
          "type": "uint256[2]"
        },
        {
          "internalType": "uint256[1]",
          "name": "input",
          "type": "uint256[1]"
        }
      ],
      "name": "verifyTx",
      "outputs": [
        {
          "internalType": "bool",
          "name": "r",
          "type": "bool"
        }
      ],
      "stateMutability": "nonpayable",
      "type": "function"
    },
    {
      "inputs": [
        {
          "internalType": "uint256",
          "name": "",
          "type": "uint256"
        }
      ],
      "name": "voters",
      "outputs": [
        {
          "internalType": "bytes32",
          "name": "",
          "type": "bytes32"
        }
      ],
      "stateMutability": "view",
      "type": "function",
      "constant": true
    },
    {
      "inputs": [
        {
          "internalType": "bytes32",
          "name": "",
          "type": "bytes32"
        }
      ],
      "name": "votesReceived",
      "outputs": [
        {
          "internalType": "uint256",
          "name": "",
          "type": "uint256"
        }
      ],
      "stateMutability": "view",
      "type": "function",
      "constant": true
    },
    {
      "inputs": [],
      "name": "getCandidates",
      "outputs": [
        {
          "internalType": "bytes32[]",
          "name": "",
          "type": "bytes32[]"
        }
      ],
      "stateMutability": "nonpayable",
      "type": "function"
    },
    {
      "inputs": [
        {
          "internalType": "bytes32",
          "name": "candidate",
          "type": "bytes32"
        }
      ],
      "name": "totalVotesFor",
      "outputs": [
        {
          "internalType": "uint256",
          "name": "",
          "type": "uint256"
        }
      ],
      "stateMutability": "nonpayable",
      "type": "function"
    },
    {
      "inputs": [
        {
          "internalType": "bytes32",
          "name": "candidate",
          "type": "bytes32"
        },
        {
          "internalType": "uint256[2]",
          "name": "a",
          "type": "uint256[2]"
        },
        {
          "internalType": "uint256[2][2]",
          "name": "b",
          "type": "uint256[2][2]"
        },
        {
          "internalType": "uint256[2]",
          "name": "c",
          "type": "uint256[2]"
        },
        {
          "internalType": "uint256[1]",
          "name": "input",
          "type": "uint256[1]"
        }
      ],
      "name": "voteForCandidate",
      "outputs": [
        {
          "internalType": "bool",
          "name": "",
          "type": "bool"
        }
      ],
      "stateMutability": "payable",
      "type": "function",
      "payable": true
    },
    {
      "inputs": [
        {
          "internalType": "bytes32",
          "name": "candidate",
          "type": "bytes32"
        }
      ],
      "name": "validCandidate",
      "outputs": [
        {
          "internalType": "bool",
          "name": "",
          "type": "bool"
        }
      ],
      "stateMutability": "view",
      "type": "function",
      "constant": true
    },
    {
      "inputs": [],
      "name": "getBalance",
      "outputs": [
        {
          "internalType": "uint256",
          "name": "",
          "type": "uint256"
        }
      ],
      "stateMutability": "view",
      "type": "function",
      "constant": true
    }
  ],
  "bytecode": "0x608060405260405162001f9238038062001f92833981810160405260608110156200002957600080fd5b8101908080519060200190929190805160405193929190846401000000008211156200005457600080fd5b838201915060208201858111156200006b57600080fd5b82518660208202830111640100000000821117156200008957600080fd5b8083526020830192505050908051906020019060200280838360005b83811015620000c2578082015181840152602081019050620000a5565b5050505090500160405260200180516040519392919084640100000000821115620000ec57600080fd5b838201915060208201858111156200010357600080fd5b82518660208202830111640100000000821117156200012157600080fd5b8083526020830192505050908051906020019060200280838360005b838110156200015a5780820151818401526020810190506200013d565b5050505090500160405250505082600181905550816003908051906020019062000186929190620001a9565b5080600290805190602001906200019f929190620001a9565b5050505062000223565b828054828255906000526020600020908101928215620001e8579160200282015b82811115620001e7578251825591602001919060010190620001ca565b5b509050620001f79190620001fb565b5090565b6200022091905b808211156200021c57600081600090555060010162000202565b5090565b90565b611d5f80620002336000396000f3fe6080604052600436106100915760003560e01c80637021939f116100595780637021939f146101fa578063b13c744b14610249578063da58c7d914610298578063dd129313146102e7578063eed655f91461046d57610091565b806306a49fce1461009657806312065fe0146101025780632eb4a7ab1461012d5780632f265cf714610158578063392e6678146101a7575b600080fd5b3480156100a257600080fd5b506100ab6105f0565b6040518080602001828103825283818151815260200191508051906020019060200280838360005b838110156100ee5780820151818401526020810190506100d3565b505050509050019250505060405180910390f35b34801561010e57600080fd5b50610117610648565b6040518082815260200191505060405180910390f35b34801561013957600080fd5b50610142610650565b6040518082815260200191505060405180910390f35b34801561016457600080fd5b506101916004803603602081101561017b57600080fd5b8101908080359060200190929190505050610656565b6040518082815260200191505060405180910390f35b3480156101b357600080fd5b506101e0600480360360208110156101ca57600080fd5b81019080803590602001909291905050506106ed565b604051808215151515815260200191505060405180910390f35b34801561020657600080fd5b506102336004803603602081101561021d57600080fd5b8101908080359060200190929190505050610743565b6040518082815260200191505060405180910390f35b34801561025557600080fd5b506102826004803603602081101561026c57600080fd5b810190808035906020019092919050505061075b565b6040518082815260200191505060405180910390f35b3480156102a457600080fd5b506102d1600480360360208110156102bb57600080fd5b810190808035906020019092919050505061077c565b6040518082815260200191505060405180910390f35b3480156102f357600080fd5b50610453600480360361012081101561030b57600080fd5b8101908080604001906002806020026040519081016040528092919082600260200280828437600081840152601f19601f82011690508083019250505050505091929192908060800190600280602002604051908101604052809291906000905b828210156103c0578382604002016002806020026040519081016040528092919082600260200280828437600081840152601f19601f8201169050808301925050505050508152602001906001019061036c565b50505050919291929080604001906002806020026040519081016040528092919082600260200280828437600081840152601f19601f820116905080830192505050505050919291929080602001906001806020026040519081016040528092919082600160200280828437600081840152601f19601f820116905080830192505050505050919291929050505061079d565b604051808215151515815260200191505060405180910390f35b6105d6600480360361014081101561048457600080fd5b810190808035906020019092919080604001906002806020026040519081016040528092919082600260200280828437600081840152601f19601f82011690508083019250505050505091929192908060800190600280602002604051908101604052809291906000905b82821015610543578382604002016002806020026040519081016040528092919082600260200280828437600081840152601f19601f820116905080830192505050505050815260200190600101906104ef565b50505050919291929080604001906002806020026040519081016040528092919082600260200280828437600081840152601f19601f820116905080830192505050505050919291929080602001906001806020026040519081016040528092919082600160200280828437600081840152601f19601f82011690508083019250505050505091929192905050506109e4565b604051808215151515815260200191505060405180910390f35b6060600280548060200260200160405190810160405280929190818152602001828054801561063e57602002820191906000526020600020905b81548152602001906001019080831161062a575b5050505050905090565b600047905090565b60015481565b6000610661826106ed565b6106d3576040517f08c379a00000000000000000000000000000000000000000000000000000000081526004018080602001828103825260168152602001807f496e76616c69642063616e646964617465206e616d650000000000000000000081525060200191505060405180910390fd5b600080838152602001908152602001600020549050919050565b600080600090505b60028054905081101561073857826002828154811061071057fe5b9060005260206000200154141561072b57600191505061073e565b80806001019150506106f5565b50600090505b919050565b60006020528060005260406000206000915090505481565b6002818154811061076857fe5b906000526020600020016000915090505481565b6003818154811061078957fe5b906000526020600020016000915090505481565b60006107a7611b78565b6040518060400160405280876000600281106107bf57fe5b60200201518152602001876001600281106107d657fe5b60200201518152508160000181905250604051806040016040528060405180604001604052808860006002811061080957fe5b602002015160006002811061081a57fe5b602002015181526020018860006002811061083157fe5b602002015160016002811061084257fe5b6020020151815250815260200160405180604001604052808860016002811061086757fe5b602002015160006002811061087857fe5b602002015181526020018860016002811061088f57fe5b60200201516001600281106108a057fe5b602002015181525081525081602001819052506040518060400160405280856000600281106108cb57fe5b60200201518152602001856001600281106108e257fe5b60200201518152508160400181905250606060016040519080825280602002602001820160405280156109245781602001602082028038833980820191505090505b50905060008090505b600181101561096c5784816001811061094257fe5b602002015182828151811061095357fe5b602002602001018181525050808060010191505061092d565b5060006109798284610b75565b14156109d5577f3f3cfdb26fb5f9f1786ab4f1a1f9cd4c0b5e726cbdfc26e495261731aad44e39604051808060200182810382526022815260200180611d086022913960400191505060405180910390a16001925050506109dc565b6000925050505b949350505050565b60006109f28585858561079d565b610a64576040517f08c379a00000000000000000000000000000000000000000000000000000000081526004018080602001828103825260158152602001807f496e636f72726563742070726f6f6620676976656e000000000000000000000081525060200191505060405180910390fd5b6001600460003373ffffffffffffffffffffffffffffffffffffffff1673ffffffffffffffffffffffffffffffffffffffff16815260200190815260200160002060006101000a81548160ff021916908315150217905550610ac5866106ed565b610b37576040517f08c379a00000000000000000000000000000000000000000000000000000000081526004018080602001828103825260168152602001807f496e76616c69642063616e646964617465206e616d650000000000000000000081525060200191505060405180910390fd5b600160008088815260200190815260200160002060008282540192505081905550610b673364e8d4a51000610d25565b506001905095945050505050565b6000807f30644e72e131a029b85045b68181585d2833e84879b9709143e1f593f00000019050610ba3611bab565b610bab610eaa565b90508060a0015151600186510114610bc257600080fd5b610bca611bff565b6040518060400160405280600081526020016000815250905060008090505b8651811015610c605783878281518110610bff57fe5b602002602001015110610c1157600080fd5b610c5182610c4c8560a001516001850181518110610c2b57fe5b60200260200101518a8581518110610c3f57fe5b60200260200101516112e4565b611378565b91508080600101915050610be9565b50610c83818360a00151600081518110610c7657fe5b6020026020010151611378565b9050610cd38260200151836040015183856080015189604001518760000151610cbc610cb78d600001518b60200151611378565b61142b565b610cce8d602001518b604001516114c5565b6116c3565b610ce35760019350505050610d1f565b610d0785600001518360800151610cfd856060015161142b565b8860200151611827565b610d175760029350505050610d1f565b600093505050505b92915050565b60008147108015610d87575060011515600460008573ffffffffffffffffffffffffffffffffffffffff1673ffffffffffffffffffffffffffffffffffffffff16815260200190815260200160002060009054906101000a900460ff16151514155b15610d955760009050610ea4565b6000600460008573ffffffffffffffffffffffffffffffffffffffff1673ffffffffffffffffffffffffffffffffffffffff16815260200190815260200160002060006101000a81548160ff0219169083151502179055508273ffffffffffffffffffffffffffffffffffffffff166108fc839081150290604051600060405180830381858888f19350505050158015610e33573d6000803e3d6000fd5b507f6202b9210eddfec514dee7725e74c49be931243a5fda51c01552a5fb07e893dd8383604051808373ffffffffffffffffffffffffffffffffffffffff1673ffffffffffffffffffffffffffffffffffffffff1681526020018281526020019250505060405180910390a1600190505b92915050565b610eb2611bab565b604051806040016040528060405180604001604052807f236eb04095c8d78760f4bc300e854d1e4c75f59e9f50c758f5adb8dcb139b59c81526020017f1b642ebfc582a6ef3387e5c2e142793bb617c80f4767c6e316120ac0dd1dfd93815250815260200160405180604001604052807f1424d47ecddc2545f52fdea519fec03ded183b61777666bd97c53cb02d1850c581526020017f15feb27df3c7134c99a1641cf45bb25c0cee0a84d0774de1302f9ac6322b2956815250815250816000018190525060405180604001604052807f263bd730bd9cb46f5eeb1450a2796c0e1386e938848bdcab703c612a4eacdb0081526020017f305df95ff9c5211ddfea635e32a08aa482b5ff7cf60a3533deaa116393fe05798152508160200181905250604051806040016040528060405180604001604052807f2d7ccda63c9b6b33584dc3d488d794dc4c2a335890019b565106172a6f0995c881526020017f06b4f6fdcca368915603aa9b027a39d960616ae08498e7f719a485e241c88d33815250815260200160405180604001604052807f1765a9baa2d80e7963ef379901272c80893dd04a7855214d032b5677485e0c0e81526020017f279ed417f9a3431b36210506301180414beb6508a680541a57b411a1992ec0db815250815250816040018190525060405180604001604052807f26d1068b69126d1f25e127a582ea33b6f7e5e0123693c02d0425e2c766f87d8a81526020017f1d80b26e20b1b7011a971d379aa8e9c62883c6eb8398fc7c96842e5ad4ad82308152508160600181905250604051806040016040528060405180604001604052807f141d18ee1dc1333db43085acef8f1ef9e819610c644a302016c131e0d8dc3de581526020017f0be9ab823e72f87351a6abf0bb46b780fd270ab37e7f91177e6d65c315f3b30d815250815260200160405180604001604052807f298776596c52ecf026936922dad6ef6e8c3f8a869c164a75c6a03056ba393ad781526020017f22a615aef27c83fb66f67138a03bc142dd81c018f8291a17174c4725d6a082e7815250815250816080018190525060026040519080825280602002602001820160405280156111f657816020015b6111e3611c19565b8152602001906001900390816111db5790505b508160a0018190525060405180604001604052807f2d6d5ab97d6a7ad61ecb0f48d0092f8257ceefd0a23315f8ccd39d18ea8a20ec81526020017f0abe8a242e07f4f9bd58afd0881796c066f8e55ceb0c61658531b49b9019bb0e8152508160a0015160008151811061126557fe5b602002602001018190525060405180604001604052807f0116e082cfe1c693c309e97be1d2d613d02bae73b748e7e79bcf2dcebdcbb9c981526020017f2ee470d8d4d6fdc53de90fb3de6461f355a153879fe4dd4648a5d1209f6fd9248152508160a001516001815181106112d657fe5b602002602001018190525090565b6112ec611bff565b6112f4611c33565b83600001518160006003811061130657fe5b60200201818152505083602001518160016003811061132157fe5b602002018181525050828160026003811061133857fe5b6020020181815250506000606083608084600060076107d05a03f19050806000811461136357611365565bfe5b508061137057600080fd5b505092915050565b611380611bff565b611388611c55565b83600001518160006004811061139a57fe5b6020020181815250508360200151816001600481106113b557fe5b6020020181815250508260000151816002600481106113d057fe5b6020020181815250508260200151816003600481106113eb57fe5b602002018181525050600060608360c084600060066107d05a03f19050806000811461141657611418565bfe5b508061142357600080fd5b505092915050565b611433611bff565b60007f30644e72e131a029b85045b68181585d97816a916871ca8d3c208c16d87cfd47905060008360000151148015611470575060008360200151145b156114945760405180604001604052806000815260200160008152509150506114c0565b604051806040016040528084600001518152602001828560200151816114b657fe5b0683038152509150505b919050565b6114cd611c77565b73__BN256G2_______________________________6361a931ec84600001516001600281106114f857fe5b6020020151856000015160006002811061150e57fe5b6020020151866020015160016002811061152457fe5b6020020151876020015160006002811061153a57fe5b6020020151876000015160016002811061155057fe5b6020020151886000015160006002811061156657fe5b6020020151896020015160016002811061157c57fe5b60200201518a6020015160006002811061159257fe5b60200201516040518963ffffffff1660e01b8152600401808981526020018881526020018781526020018681526020018581526020018481526020018381526020018281526020019850505050505050505060806040518083038186803b1580156115fc57600080fd5b505af4158015611610573d6000803e3d6000fd5b505050506040513d608081101561162657600080fd5b8101908080519060200190929190805190602001909291908051906020019092919080519060200190929190505050846000015160016002811061166657fe5b60200201856000015160006002811061167b57fe5b60200201866020015160016002811061169057fe5b6020020187602001516000600281106116a557fe5b60200201848152508481525084815250848152505050505092915050565b60006060600460405190808252806020026020018201604052801561170257816020015b6116ef611c19565b8152602001906001900390816116e75790505b5090506060600460405190808252806020026020018201604052801561174257816020015b61172f611c9d565b8152602001906001900390816117275790505b5090508a8260008151811061175357fe5b6020026020010181905250888260018151811061176c57fe5b6020026020010181905250868260028151811061178557fe5b6020026020010181905250848260038151811061179e57fe5b602002602001018190525089816000815181106117b757fe5b602002602001018190525087816001815181106117d057fe5b602002602001018190525085816002815181106117e957fe5b6020026020010181905250838160038151811061180257fe5b60200260200101819052506118178282611923565b9250505098975050505050505050565b60006060600260405190808252806020026020018201604052801561186657816020015b611853611c19565b81526020019060019003908161184b5790505b509050606060026040519080825280602002602001820160405280156118a657816020015b611893611c9d565b81526020019060019003908161188b5790505b50905086826000815181106118b757fe5b602002602001018190525084826001815181106118d057fe5b602002602001018190525085816000815181106118e957fe5b6020026020010181905250838160018151811061190257fe5b60200260200101819052506119178282611923565b92505050949350505050565b6000815183511461193357600080fd5b60008351905060006006820290506060816040519080825280602002602001820160405280156119725781602001602082028038833980820191505090505b50905060008090505b83811015611b185786818151811061198f57fe5b6020026020010151600001518260006006840201815181106119ad57fe5b6020026020010181815250508681815181106119c557fe5b6020026020010151602001518260016006840201815181106119e357fe5b6020026020010181815250508581815181106119fb57fe5b602002602001015160000151600060028110611a1357fe5b6020020151826002600684020181518110611a2a57fe5b602002602001018181525050858181518110611a4257fe5b602002602001015160000151600160028110611a5a57fe5b6020020151826003600684020181518110611a7157fe5b602002602001018181525050858181518110611a8957fe5b602002602001015160200151600060028110611aa157fe5b6020020151826004600684020181518110611ab857fe5b602002602001018181525050858181518110611ad057fe5b602002602001015160200151600160028110611ae857fe5b6020020151826005600684020181518110611aff57fe5b602002602001018181525050808060010191505061197b565b50611b21611cc3565b60006020826020860260208601600060086107d05a03f190508060008114611b4857611b4a565bfe5b5080611b5557600080fd5b600082600060018110611b6457fe5b602002015114159550505050505092915050565b6040518060600160405280611b8b611c19565b8152602001611b98611c9d565b8152602001611ba5611c19565b81525090565b6040518060c00160405280611bbe611c9d565b8152602001611bcb611c19565b8152602001611bd8611c9d565b8152602001611be5611c19565b8152602001611bf2611c9d565b8152602001606081525090565b604051806040016040528060008152602001600081525090565b604051806040016040528060008152602001600081525090565b6040518060600160405280600390602082028038833980820191505090505090565b6040518060800160405280600490602082028038833980820191505090505090565b6040518060400160405280611c8a611ce5565b8152602001611c97611ce5565b81525090565b6040518060400160405280611cb0611ce5565b8152602001611cbd611ce5565b81525090565b6040518060200160405280600190602082028038833980820191505090505090565b604051806040016040528060029060208202803883398082019150509050509056fe5472616e73616374696f6e207375636365737366756c6c792076657269666965642ea26469706673582212208e4cb64be7c597c16925bc2568dd7e1e5fa688cbc2413e1b1d657f590015727d64736f6c63430006010033",
  "source": "pragma solidity ^0.6.1;\n\nimport './verifier.sol';\n\n\ncontract Voting is Verifier {\n  /* mapping field below is equivalent to an associative array or hash.\n  The key of the mapping is candidate name stored as type bytes32 and value is\n  an unsigned integer to store the vote count\n  */\n\n  mapping (bytes32 => uint256) public votesReceived;\n\n  /* Solidity doesn't let you pass in an array of strings in the constructor (yet).\n  We will use an array of bytes32 instead to store the list of candidates\n  */\n\n  bytes32 public merkleRoot;\n  bytes32[] public candidateList;\n  bytes32[] public voters;\n\n  // withdraw tocken variables\n  mapping (address => bool) votingRecord;\n  event logWithdrawal(address receiver, uint amount);\n\n  constructor(bytes32 root, bytes32[] memory registry, bytes32[] memory candidateNames) public payable {\n    merkleRoot = root;\n    voters = registry;\n    candidateList = candidateNames;\n  }\n\n  function getCandidates() public returns (bytes32[] memory) {\n    return candidateList;\n  }\n\n  // This function returns the total votes a candidate has received so far\n  function totalVotesFor(bytes32 candidate) public returns (uint256) {\n    require(validCandidate(candidate), \"Invalid candidate name\");\n    return votesReceived[candidate];\n  }\n\n  // This function increments the vote count for the specified candidate. This\n  // is equivalent to casting a vote\n  function voteForCandidate(\n    bytes32 candidate,\n    uint[2] memory a,\n    uint[2][2] memory b,\n    uint[2] memory c,\n    uint[1] memory input\n  ) public payable returns (bool) {\n    require(verifyTx(a, b, c, input), \"Incorrect proof given\");\n    votingRecord[msg.sender] = true;\n    require(validCandidate(candidate), \"Invalid candidate name\");\n    votesReceived[candidate] += 1;\n    withdraw(msg.sender, 1 szabo);\n    return true;\n  }\n\n  function withdraw(address payable voter, uint amount) internal returns (bool success) {\n    if (address(this).balance < amount && votingRecord[voter] != true) return false;\n    votingRecord[voter] = false;\n    voter.transfer(amount);\n    emit logWithdrawal(voter, amount);\n    return true;\n  }\n\n  function validCandidate(bytes32 candidate) public view returns (bool) {\n    for(uint i = 0; i < candidateList.length; i++) {\n      if (candidateList[i] == candidate) {\n        return true;\n      }\n    }\n    return false;\n  }\n\n  function getBalance() public view returns (uint) {\n    return address(this).balance;\n  }\n}",
  "sourcePath": "/Users/alvaro/uni/Bachelor Arbeit/Ethereum-Anonymous-Voting/contracts/Voting.sol",
  "compiler": {
    "name": "solc",
    "version": "0.6.1+commit.e6f7d5a4.Emscripten.clang"
  },
  "schemaVersion": "3.0.23",
  "updatedAt": "2020-02-28T09:59:05.468Z",
  "networkType": "ethereum",
  "devdoc": {
    "methods": {}
  },
  "userdoc": {
    "methods": {}
  }
}