{
  "contractName": "Voting",
  "abi": [
    {
      "constant": true,
      "inputs": [],
      "name": "merkleRoot",
      "outputs": [
        {
          "name": "",
          "type": "bytes32"
        }
      ],
      "payable": false,
      "stateMutability": "view",
      "type": "function"
    },
    {
      "constant": false,
      "inputs": [
        {
          "name": "a",
          "type": "uint256[2]"
        },
        {
          "name": "b",
          "type": "uint256[2][2]"
        },
        {
          "name": "c",
          "type": "uint256[2]"
        },
        {
          "name": "input",
          "type": "uint256[3]"
        }
      ],
      "name": "verifyTx",
      "outputs": [
        {
          "name": "r",
          "type": "bool"
        }
      ],
      "payable": false,
      "stateMutability": "nonpayable",
      "type": "function"
    },
    {
      "constant": true,
      "inputs": [
        {
          "name": "",
          "type": "bytes32"
        }
      ],
      "name": "votesReceived",
      "outputs": [
        {
          "name": "",
          "type": "uint256"
        }
      ],
      "payable": false,
      "stateMutability": "view",
      "type": "function"
    },
    {
      "constant": true,
      "inputs": [
        {
          "name": "",
          "type": "uint256"
        }
      ],
      "name": "candidateList",
      "outputs": [
        {
          "name": "",
          "type": "bytes32"
        }
      ],
      "payable": false,
      "stateMutability": "view",
      "type": "function"
    },
    {
      "constant": true,
      "inputs": [
        {
          "name": "",
          "type": "uint256"
        }
      ],
      "name": "voters",
      "outputs": [
        {
          "name": "",
          "type": "bytes32"
        }
      ],
      "payable": false,
      "stateMutability": "view",
      "type": "function"
    },
    {
      "inputs": [
        {
          "name": "root",
          "type": "bytes32"
        },
        {
          "name": "registry",
          "type": "bytes32[]"
        },
        {
          "name": "candidateNames",
          "type": "bytes32[]"
        }
      ],
      "payable": true,
      "stateMutability": "payable",
      "type": "constructor"
    },
    {
      "anonymous": false,
      "inputs": [
        {
          "indexed": false,
          "name": "receiver",
          "type": "address"
        },
        {
          "indexed": false,
          "name": "amount",
          "type": "uint256"
        }
      ],
      "name": "logWithdrawal",
      "type": "event"
    },
    {
      "anonymous": false,
      "inputs": [
        {
          "indexed": false,
          "name": "s",
          "type": "string"
        }
      ],
      "name": "Verified",
      "type": "event"
    },
    {
      "constant": false,
      "inputs": [],
      "name": "getCandidates",
      "outputs": [
        {
          "name": "",
          "type": "bytes32[]"
        }
      ],
      "payable": false,
      "stateMutability": "nonpayable",
      "type": "function"
    },
    {
      "constant": false,
      "inputs": [
        {
          "name": "candidate",
          "type": "bytes32"
        }
      ],
      "name": "totalVotesFor",
      "outputs": [
        {
          "name": "",
          "type": "uint256"
        }
      ],
      "payable": false,
      "stateMutability": "nonpayable",
      "type": "function"
    },
    {
      "constant": false,
      "inputs": [
        {
          "name": "candidate",
          "type": "bytes32"
        },
        {
          "name": "a",
          "type": "uint256[2]"
        },
        {
          "name": "b",
          "type": "uint256[2][2]"
        },
        {
          "name": "c",
          "type": "uint256[2]"
        },
        {
          "name": "input",
          "type": "uint256[3]"
        }
      ],
      "name": "voteForCandidate",
      "outputs": [
        {
          "name": "",
          "type": "bool"
        }
      ],
      "payable": true,
      "stateMutability": "payable",
      "type": "function"
    },
    {
      "constant": true,
      "inputs": [
        {
          "name": "candidate",
          "type": "bytes32"
        }
      ],
      "name": "validCandidate",
      "outputs": [
        {
          "name": "",
          "type": "bool"
        }
      ],
      "payable": false,
      "stateMutability": "view",
      "type": "function"
    },
    {
      "constant": true,
      "inputs": [],
      "name": "getBalance",
      "outputs": [
        {
          "name": "",
          "type": "uint256"
        }
      ],
      "payable": false,
      "stateMutability": "view",
      "type": "function"
    }
  ],
  "bytecode": "0x60806040526040516200200d3803806200200d833981018060405260608110156200002957600080fd5b810190808051906020019092919080516401000000008111156200004c57600080fd5b828101905060208101848111156200006357600080fd5b81518560208202830111640100000000821117156200008157600080fd5b505092919060200180516401000000008111156200009e57600080fd5b82810190506020810184811115620000b557600080fd5b8151856020820283011164010000000082111715620000d357600080fd5b5050929190505050826001819055508160039080519060200190620000fa9291906200011d565b508060029080519060200190620001139291906200011d565b5050505062000197565b8280548282559060005260206000209081019282156200015c579160200282015b828111156200015b5782518255916020019190600101906200013e565b5b5090506200016b91906200016f565b5090565b6200019491905b808211156200019057600081600090555060010162000176565b5090565b90565b611e6680620001a76000396000f3fe6080604052600436106100915760003560e01c8063415df87c11610059578063415df87c146101fa578063613d46e3146103805780637021939f14610503578063b13c744b14610552578063da58c7d9146105a157610091565b806306a49fce1461009657806312065fe0146101025780632eb4a7ab1461012d5780632f265cf714610158578063392e6678146101a7575b600080fd5b3480156100a257600080fd5b506100ab6105f0565b6040518080602001828103825283818151815260200191508051906020019060200280838360005b838110156100ee5780820151818401526020810190506100d3565b505050509050019250505060405180910390f35b34801561010e57600080fd5b50610117610648565b6040518082815260200191505060405180910390f35b34801561013957600080fd5b50610142610667565b6040518082815260200191505060405180910390f35b34801561016457600080fd5b506101916004803603602081101561017b57600080fd5b810190808035906020019092919050505061066d565b6040518082815260200191505060405180910390f35b3480156101b357600080fd5b506101e0600480360360208110156101ca57600080fd5b8101908080359060200190929190505050610704565b604051808215151515815260200191505060405180910390f35b34801561020657600080fd5b50610366600480360361016081101561021e57600080fd5b8101908080604001906002806020026040519081016040528092919082600260200280828437600081840152601f19601f82011690508083019250505050505091929192908060800190600280602002604051908101604052809291906000905b828210156102d3578382604002016002806020026040519081016040528092919082600260200280828437600081840152601f19601f8201169050808301925050505050508152602001906001019061027f565b50505050919291929080604001906002806020026040519081016040528092919082600260200280828437600081840152601f19601f820116905080830192505050505050919291929080606001906003806020026040519081016040528092919082600360200280828437600081840152601f19601f820116905080830192505050505050919291929050505061075a565b604051808215151515815260200191505060405180910390f35b6104e9600480360361018081101561039757600080fd5b810190808035906020019092919080604001906002806020026040519081016040528092919082600260200280828437600081840152601f19601f82011690508083019250505050505091929192908060800190600280602002604051908101604052809291906000905b82821015610456578382604002016002806020026040519081016040528092919082600260200280828437600081840152601f19601f82011690508083019250505050505081526020019060010190610402565b50505050919291929080604001906002806020026040519081016040528092919082600260200280828437600081840152601f19601f820116905080830192505050505050919291929080606001906003806020026040519081016040528092919082600360200280828437600081840152601f19601f82011690508083019250505050505091929192905050506109a1565b604051808215151515815260200191505060405180910390f35b34801561050f57600080fd5b5061053c6004803603602081101561052657600080fd5b8101908080359060200190929190505050610b32565b6040518082815260200191505060405180910390f35b34801561055e57600080fd5b5061058b6004803603602081101561057557600080fd5b8101908080359060200190929190505050610b4a565b6040518082815260200191505060405180910390f35b3480156105ad57600080fd5b506105da600480360360208110156105c457600080fd5b8101908080359060200190929190505050610b6b565b6040518082815260200191505060405180910390f35b6060600280548060200260200160405190810160405280929190818152602001828054801561063e57602002820191906000526020600020905b81548152602001906001019080831161062a575b5050505050905090565b60003073ffffffffffffffffffffffffffffffffffffffff1631905090565b60015481565b600061067882610704565b6106ea576040517f08c379a00000000000000000000000000000000000000000000000000000000081526004018080602001828103825260168152602001807f496e76616c69642063616e646964617465206e616d650000000000000000000081525060200191505060405180910390fd5b600080838152602001908152602001600020549050919050565b600080600090505b60028054905081101561074f57826002828154811061072757fe5b90600052602060002001541415610742576001915050610755565b808060010191505061070c565b50600090505b919050565b6000610764611c87565b60405180604001604052808760006002811061077c57fe5b602002015181526020018760016002811061079357fe5b6020020151815250816000018190525060405180604001604052806040518060400160405280886000600281106107c657fe5b60200201516000600281106107d757fe5b60200201518152602001886000600281106107ee57fe5b60200201516001600281106107ff57fe5b6020020151815250815260200160405180604001604052808860016002811061082457fe5b602002015160006002811061083557fe5b602002015181526020018860016002811061084c57fe5b602002015160016002811061085d57fe5b6020020151815250815250816020018190525060405180604001604052808560006002811061088857fe5b602002015181526020018560016002811061089f57fe5b60200201518152508160400181905250606060036040519080825280602002602001820160405280156108e15781602001602082028038833980820191505090505b50905060008090505b6003811015610929578481600381106108ff57fe5b602002015182828151811061091057fe5b60200260200101818152505080806001019150506108ea565b5060006109368284610b8c565b1415610992577f3f3cfdb26fb5f9f1786ab4f1a1f9cd4c0b5e726cbdfc26e495261731aad44e39604051808060200182810382526022815260200180611e196022913960400191505060405180910390a1600192505050610999565b6000925050505b949350505050565b60006109af8585858561075a565b610a21576040517f08c379a00000000000000000000000000000000000000000000000000000000081526004018080602001828103825260158152602001807f496e636f72726563742070726f6f6620676976656e000000000000000000000081525060200191505060405180910390fd5b6001600460003373ffffffffffffffffffffffffffffffffffffffff1673ffffffffffffffffffffffffffffffffffffffff16815260200190815260200160002060006101000a81548160ff021916908315150217905550610a8286610704565b610af4576040517f08c379a00000000000000000000000000000000000000000000000000000000081526004018080602001828103825260168152602001807f496e76616c69642063616e646964617465206e616d650000000000000000000081525060200191505060405180910390fd5b600160008088815260200190815260200160002060008282540192505081905550610b243364e8d4a51000610d3c565b506001905095945050505050565b60006020528060005260406000206000915090505481565b60028181548110610b5757fe5b906000526020600020016000915090505481565b60038181548110610b7857fe5b906000526020600020016000915090505481565b6000807f30644e72e131a029b85045b68181585d2833e84879b9709143e1f593f00000019050610bba611cbb565b610bc2610ed8565b90508060a0015151600186510114610bd957600080fd5b610be1611d10565b6040518060400160405280600081526020016000815250905060008090505b8651811015610c775783878281518110610c1657fe5b602002602001015110610c2857600080fd5b610c6882610c638560a001516001850181518110610c4257fe5b60200260200101518a8581518110610c5657fe5b60200260200101516113f3565b611487565b91508080600101915050610c00565b50610c9a818360a00151600081518110610c8d57fe5b6020026020010151611487565b9050610cea8260200151836040015183856080015189604001518760000151610cd3610cce8d600001518b60200151611487565b61153a565b610ce58d602001518b604001516115d4565b6117d2565b610cfa5760019350505050610d36565b610d1e85600001518360800151610d14856060015161153a565b8860200151611936565b610d2e5760029350505050610d36565b600093505050505b92915050565b6000813073ffffffffffffffffffffffffffffffffffffffff1631108015610db5575060011515600460008573ffffffffffffffffffffffffffffffffffffffff1673ffffffffffffffffffffffffffffffffffffffff16815260200190815260200160002060009054906101000a900460ff16151514155b15610dc35760009050610ed2565b6000600460008573ffffffffffffffffffffffffffffffffffffffff1673ffffffffffffffffffffffffffffffffffffffff16815260200190815260200160002060006101000a81548160ff0219169083151502179055508273ffffffffffffffffffffffffffffffffffffffff166108fc839081150290604051600060405180830381858888f19350505050158015610e61573d6000803e3d6000fd5b507f6202b9210eddfec514dee7725e74c49be931243a5fda51c01552a5fb07e893dd8383604051808373ffffffffffffffffffffffffffffffffffffffff1673ffffffffffffffffffffffffffffffffffffffff1681526020018281526020019250505060405180910390a1600190505b92915050565b610ee0611cbb565b604051806040016040528060405180604001604052807f0fea20ba467638092edaab455502aaad077b39044a43db413807e7874e4a2fa181526020017f08e25fe90a1ebea197a014d93d49b4a9e8eb172bdce06ed370eb39590526cf73815250815260200160405180604001604052807f2b4459ce2d1b3b36e922d0b8c647bb1ff12422f1702b09284ed8346ab2ef673181526020017f15bd0730dbc7a0482f02af7f8cd6511c0833753459cdd149fa94152dc70feaea815250815250816000018190525060405180604001604052807f101302ce45f94c55a6aec1bb6bd7f2d7db7c7694c3280ec8918fe1e01d03455881526020017f2eeb1d6774a27eb23ae0a0b3318dc77a33192945b38ac2e3132dc2bfe11f5b568152508160200181905250604051806040016040528060405180604001604052807e2cbb39ce893a8a0904e34b673acb9c2c0e3cff34a51d2370d88f833364d9bd81526020017f1be111b982bee17f41f5aec9399a8750ddc18807ce83384c2b251d5361c0312c815250815260200160405180604001604052807f124a4eb8e6caa2ec92e4e6bd74de41f4fbf138b1f3323294f63d3c97028f624381526020017f2f2b9867c6f514b879bb43296ce63e4e443a4acaa089a36023ee0e5f8afd8454815250815250816040018190525060405180604001604052807f279df5b20e06e097022f58a77c51b028026628f77ec8213b212a4125485c6a6681526020017f0dff62916f69d766e7f19950da686d2fba43de1d024344f2381f238534ba4fb18152508160600181905250604051806040016040528060405180604001604052807f086387566b565807f26743c7f2ebb3ba2d8659f136f977fa8dee25a995ab8b9081526020017f10f2a3ba9e02edf2e3c63c8663ddddadbc0b8d8540f4b05787bdeb81afa56041815250815260200160405180604001604052807f21843e22094d9b30ec6ae0dc7cbf6c75f0d3f59f878307425f32bb22ae90a17381526020017f1e35c7a9d892080c1b798ca5450f82aad3d9f1041e108e9e512aff20d7cf5f338152508152508160800181905250600460405190808252806020026020018201604052801561122357816020015b611210611d2a565b8152602001906001900390816112085790505b508160a0018190525060405180604001604052807f2e0e968a8cd5bcae2afa5ced6b9ef88f1af7d46eed8683f6d6d2889eef29b86a81526020017f26d645d1cd29e5c224d852be8ba7ff60dbeab6bc33e91274fb6c4a63a19c07fb8152508160a0015160008151811061129257fe5b602002602001018190525060405180604001604052807f2ed52e461ee405b80d8152844233bcbd93709426c38658a9c07543fcabd2380d81526020017f2bc3e91d617a09fdc66f9b66caab2479bae2b44794d72b8b2c26e41e87ccc0c48152508160a0015160018151811061130357fe5b602002602001018190525060405180604001604052807f150d55fee766c560f430ddabbf774a7f4efef3e70f33c882dafb617725d6475781526020017f16a5dda1f842d5b7741a94cf700a6305cf2463e2f8fd79850e4071b6f1b21e2b8152508160a0015160028151811061137457fe5b602002602001018190525060405180604001604052807f175eedcbfe47eff10fb2324af41b66fb3bcbb00812180ba013107b9363d6f58281526020017f077c0d3488124a12aaf3ec65d7e3a78a34d27b48b34d1fe03da1b3784328b3cd8152508160a001516003815181106113e557fe5b602002602001018190525090565b6113fb611d10565b611403611d44565b83600001518160006003811061141557fe5b60200201818152505083602001518160016003811061143057fe5b602002018181525050828160026003811061144757fe5b6020020181815250506000606083608084600060076107d05a03f19050806000811461147257611474565bfe5b508061147f57600080fd5b505092915050565b61148f611d10565b611497611d66565b8360000151816000600481106114a957fe5b6020020181815250508360200151816001600481106114c457fe5b6020020181815250508260000151816002600481106114df57fe5b6020020181815250508260200151816003600481106114fa57fe5b602002018181525050600060608360c084600060066107d05a03f19050806000811461152557611527565bfe5b508061153257600080fd5b505092915050565b611542611d10565b60007f30644e72e131a029b85045b68181585d97816a916871ca8d3c208c16d87cfd4790506000836000015114801561157f575060008360200151145b156115a35760405180604001604052806000815260200160008152509150506115cf565b604051806040016040528084600001518152602001828560200151816115c557fe5b0683038152509150505b919050565b6115dc611d88565b73__BN256G2_______________________________6361a931ec846000015160016002811061160757fe5b6020020151856000015160006002811061161d57fe5b6020020151866020015160016002811061163357fe5b6020020151876020015160006002811061164957fe5b6020020151876000015160016002811061165f57fe5b6020020151886000015160006002811061167557fe5b6020020151896020015160016002811061168b57fe5b60200201518a602001516000600281106116a157fe5b60200201516040518963ffffffff1660e01b8152600401808981526020018881526020018781526020018681526020018581526020018481526020018381526020018281526020019850505050505050505060806040518083038186803b15801561170b57600080fd5b505af415801561171f573d6000803e3d6000fd5b505050506040513d608081101561173557600080fd5b8101908080519060200190929190805190602001909291908051906020019092919080519060200190929190505050846000015160016002811061177557fe5b60200201856000015160006002811061178a57fe5b60200201866020015160016002811061179f57fe5b6020020187602001516000600281106117b457fe5b60200201848152508481525084815250848152505050505092915050565b60006060600460405190808252806020026020018201604052801561181157816020015b6117fe611d2a565b8152602001906001900390816117f65790505b5090506060600460405190808252806020026020018201604052801561185157816020015b61183e611dae565b8152602001906001900390816118365790505b5090508a8260008151811061186257fe5b6020026020010181905250888260018151811061187b57fe5b6020026020010181905250868260028151811061189457fe5b602002602001018190525084826003815181106118ad57fe5b602002602001018190525089816000815181106118c657fe5b602002602001018190525087816001815181106118df57fe5b602002602001018190525085816002815181106118f857fe5b6020026020010181905250838160038151811061191157fe5b60200260200101819052506119268282611a32565b9250505098975050505050505050565b60006060600260405190808252806020026020018201604052801561197557816020015b611962611d2a565b81526020019060019003908161195a5790505b509050606060026040519080825280602002602001820160405280156119b557816020015b6119a2611dae565b81526020019060019003908161199a5790505b50905086826000815181106119c657fe5b602002602001018190525084826001815181106119df57fe5b602002602001018190525085816000815181106119f857fe5b60200260200101819052508381600181518110611a1157fe5b6020026020010181905250611a268282611a32565b92505050949350505050565b60008151835114611a4257600080fd5b6000835190506000600682029050606081604051908082528060200260200182016040528015611a815781602001602082028038833980820191505090505b50905060008090505b83811015611c2757868181518110611a9e57fe5b602002602001015160000151826000600684020181518110611abc57fe5b602002602001018181525050868181518110611ad457fe5b602002602001015160200151826001600684020181518110611af257fe5b602002602001018181525050858181518110611b0a57fe5b602002602001015160000151600060028110611b2257fe5b6020020151826002600684020181518110611b3957fe5b602002602001018181525050858181518110611b5157fe5b602002602001015160000151600160028110611b6957fe5b6020020151826003600684020181518110611b8057fe5b602002602001018181525050858181518110611b9857fe5b602002602001015160200151600060028110611bb057fe5b6020020151826004600684020181518110611bc757fe5b602002602001018181525050858181518110611bdf57fe5b602002602001015160200151600160028110611bf757fe5b6020020151826005600684020181518110611c0e57fe5b6020026020010181815250508080600101915050611a8a565b50611c30611dd4565b60006020826020860260208601600060086107d05a03f190508060008114611c5757611c59565bfe5b5080611c6457600080fd5b600082600060018110611c7357fe5b602002015114159550505050505092915050565b604051806101000160405280611c9b611d2a565b8152602001611ca8611dae565b8152602001611cb5611d2a565b81525090565b604051806102200160405280611ccf611dae565b8152602001611cdc611d2a565b8152602001611ce9611dae565b8152602001611cf6611d2a565b8152602001611d03611dae565b8152602001606081525090565b604051806040016040528060008152602001600081525090565b604051806040016040528060008152602001600081525090565b6040518060600160405280600390602082028038833980820191505090505090565b6040518060800160405280600490602082028038833980820191505090505090565b6040518060800160405280611d9b611df6565b8152602001611da8611df6565b81525090565b6040518060800160405280611dc1611df6565b8152602001611dce611df6565b81525090565b6040518060200160405280600190602082028038833980820191505090505090565b604051806040016040528060029060208202803883398082019150509050509056fe5472616e73616374696f6e207375636365737366756c6c792076657269666965642ea165627a7a7230582099b85af18e0ee5112a1807517305b8a13d948b35de6e0166475f8b6f039476700029",
  "source": "pragma solidity >=0.4.0 <0.6.0;\n// We have to specify what version of compiler this code will compile with\n\nimport './verifier.sol';\n\n\ncontract Voting is Verifier {\n  /* mapping field below is equivalent to an associative array or hash.\n  The key of the mapping is candidate name stored as type bytes32 and value is\n  an unsigned integer to store the vote count\n  */\n\n  mapping (bytes32 => uint256) public votesReceived;\n\n  /* Solidity doesn't let you pass in an array of strings in the constructor (yet).\n  We will use an array of bytes32 instead to store the list of candidates\n  */\n\n  bytes32 public merkleRoot;\n  bytes32[] public candidateList;\n  bytes32[] public voters;\n\n  // withdraw tocken variables\n  mapping (address => bool) votingRecord;\n  event logWithdrawal(address receiver, uint amount);\n\n  constructor(bytes32 root, bytes32[] memory registry, bytes32[] memory candidateNames) public payable {\n    merkleRoot = root;\n    voters = registry;\n    candidateList = candidateNames;\n  }\n\n  function getCandidates() public returns (bytes32[] memory) {\n    return candidateList;\n  }\n\n  // This function returns the total votes a candidate has received so far\n  function totalVotesFor(bytes32 candidate) public returns (uint256) {\n    require(validCandidate(candidate), \"Invalid candidate name\");\n    return votesReceived[candidate];\n  }\n\n  // This function increments the vote count for the specified candidate. This\n  // is equivalent to casting a vote\n  function voteForCandidate(\n    bytes32 candidate,\n    uint[2] memory a,\n    uint[2][2] memory b,\n    uint[2] memory c,\n    uint[3] memory input\n  ) public payable returns (bool) {\n    require(verifyTx(a, b, c, input), \"Incorrect proof given\");\n    votingRecord[msg.sender] = true;\n    require(validCandidate(candidate), \"Invalid candidate name\");\n    votesReceived[candidate] += 1;\n    withdraw(msg.sender, 1 szabo);\n    return true;\n  }\n\n  function withdraw(address payable voter, uint amount) internal returns (bool success) {\n    if (address(this).balance < amount && votingRecord[voter] != true) return false;\n    votingRecord[voter] = false;\n    voter.transfer(amount);\n    emit logWithdrawal(voter, amount);\n    return true;\n  }\n\n  function validCandidate(bytes32 candidate) public view returns (bool) {\n    for(uint i = 0; i < candidateList.length; i++) {\n      if (candidateList[i] == candidate) {\n        return true;\n      }\n    }\n    return false;\n  }\n\n  function getBalance() public view returns (uint) {\n    return address(this).balance;\n  }\n}",
  "sourcePath": "/Users/alvaro/uni/Bachelor Arbeit/Ethereum-Anonymous-Voting/contracts/Voting.sol",
  "compiler": {
    "name": "solc",
    "version": "0.5.8+commit.23d335f2.Emscripten.clang"
  },
  "schemaVersion": "3.0.16",
  "updatedAt": "2020-02-17T21:54:04.636Z",
  "devdoc": {
    "methods": {}
  },
  "userdoc": {
    "methods": {}
  }
}