{
  "contractName": "Voting",
  "abi": [
    {
      "inputs": [
        {
          "internalType": "address",
          "name": "registryAdd",
          "type": "address"
        },
        {
          "internalType": "bytes32",
          "name": "root",
          "type": "bytes32"
        },
        {
          "internalType": "bytes32[]",
          "name": "registry",
          "type": "bytes32[]"
        },
        {
          "internalType": "bytes32[]",
          "name": "candidateNames",
          "type": "bytes32[]"
        }
      ],
      "stateMutability": "payable",
      "type": "constructor",
      "payable": true
    },
    {
      "anonymous": false,
      "inputs": [
        {
          "indexed": false,
          "internalType": "string",
          "name": "s",
          "type": "string"
        }
      ],
      "name": "Verified",
      "type": "event"
    },
    {
      "anonymous": false,
      "inputs": [
        {
          "indexed": false,
          "internalType": "address",
          "name": "receiver",
          "type": "address"
        },
        {
          "indexed": false,
          "internalType": "uint256",
          "name": "amount",
          "type": "uint256"
        }
      ],
      "name": "logWithdrawal",
      "type": "event"
    },
    {
      "inputs": [
        {
          "internalType": "uint256",
          "name": "",
          "type": "uint256"
        }
      ],
      "name": "candidateList",
      "outputs": [
        {
          "internalType": "bytes32",
          "name": "",
          "type": "bytes32"
        }
      ],
      "stateMutability": "view",
      "type": "function",
      "constant": true
    },
    {
      "inputs": [],
      "name": "merkleRoot",
      "outputs": [
        {
          "internalType": "bytes32",
          "name": "",
          "type": "bytes32"
        }
      ],
      "stateMutability": "view",
      "type": "function",
      "constant": true
    },
    {
      "inputs": [
        {
          "components": [
            {
              "components": [
                {
                  "internalType": "uint256",
                  "name": "X",
                  "type": "uint256"
                },
                {
                  "internalType": "uint256",
                  "name": "Y",
                  "type": "uint256"
                }
              ],
              "internalType": "struct Pairing.G1Point",
              "name": "a",
              "type": "tuple"
            },
            {
              "components": [
                {
                  "internalType": "uint256[2]",
                  "name": "X",
                  "type": "uint256[2]"
                },
                {
                  "internalType": "uint256[2]",
                  "name": "Y",
                  "type": "uint256[2]"
                }
              ],
              "internalType": "struct Pairing.G2Point",
              "name": "b",
              "type": "tuple"
            },
            {
              "components": [
                {
                  "internalType": "uint256",
                  "name": "X",
                  "type": "uint256"
                },
                {
                  "internalType": "uint256",
                  "name": "Y",
                  "type": "uint256"
                }
              ],
              "internalType": "struct Pairing.G1Point",
              "name": "c",
              "type": "tuple"
            }
          ],
          "internalType": "struct Verifier.Proof",
          "name": "proof",
          "type": "tuple"
        },
        {
          "internalType": "uint256[1]",
          "name": "input",
          "type": "uint256[1]"
        }
      ],
      "name": "verifyTx",
      "outputs": [
        {
          "internalType": "bool",
          "name": "r",
          "type": "bool"
        }
      ],
      "stateMutability": "nonpayable",
      "type": "function"
    },
    {
      "inputs": [
        {
          "internalType": "uint256",
          "name": "",
          "type": "uint256"
        }
      ],
      "name": "voters",
      "outputs": [
        {
          "internalType": "bytes32",
          "name": "",
          "type": "bytes32"
        }
      ],
      "stateMutability": "view",
      "type": "function",
      "constant": true
    },
    {
      "inputs": [
        {
          "internalType": "bytes32",
          "name": "",
          "type": "bytes32"
        }
      ],
      "name": "votesReceived",
      "outputs": [
        {
          "internalType": "uint256",
          "name": "",
          "type": "uint256"
        }
      ],
      "stateMutability": "view",
      "type": "function",
      "constant": true
    },
    {
      "inputs": [],
      "name": "getCandidates",
      "outputs": [
        {
          "internalType": "bytes32[]",
          "name": "",
          "type": "bytes32[]"
        }
      ],
      "stateMutability": "view",
      "type": "function",
      "constant": true
    },
    {
      "inputs": [],
      "name": "getVoters",
      "outputs": [
        {
          "internalType": "bytes32[]",
          "name": "",
          "type": "bytes32[]"
        }
      ],
      "stateMutability": "view",
      "type": "function",
      "constant": true
    },
    {
      "inputs": [],
      "name": "getRoot",
      "outputs": [
        {
          "internalType": "bytes32",
          "name": "",
          "type": "bytes32"
        }
      ],
      "stateMutability": "view",
      "type": "function",
      "constant": true
    },
    {
      "inputs": [],
      "name": "getBalance",
      "outputs": [
        {
          "internalType": "uint256",
          "name": "",
          "type": "uint256"
        }
      ],
      "stateMutability": "view",
      "type": "function",
      "constant": true
    },
    {
      "inputs": [
        {
          "internalType": "bytes32",
          "name": "candidate",
          "type": "bytes32"
        }
      ],
      "name": "totalVotesFor",
      "outputs": [
        {
          "internalType": "uint256",
          "name": "",
          "type": "uint256"
        }
      ],
      "stateMutability": "view",
      "type": "function",
      "constant": true
    },
    {
      "inputs": [
        {
          "internalType": "bytes32",
          "name": "candidate",
          "type": "bytes32"
        },
        {
          "components": [
            {
              "components": [
                {
                  "internalType": "uint256",
                  "name": "X",
                  "type": "uint256"
                },
                {
                  "internalType": "uint256",
                  "name": "Y",
                  "type": "uint256"
                }
              ],
              "internalType": "struct Pairing.G1Point",
              "name": "a",
              "type": "tuple"
            },
            {
              "components": [
                {
                  "internalType": "uint256[2]",
                  "name": "X",
                  "type": "uint256[2]"
                },
                {
                  "internalType": "uint256[2]",
                  "name": "Y",
                  "type": "uint256[2]"
                }
              ],
              "internalType": "struct Pairing.G2Point",
              "name": "b",
              "type": "tuple"
            },
            {
              "components": [
                {
                  "internalType": "uint256",
                  "name": "X",
                  "type": "uint256"
                },
                {
                  "internalType": "uint256",
                  "name": "Y",
                  "type": "uint256"
                }
              ],
              "internalType": "struct Pairing.G1Point",
              "name": "c",
              "type": "tuple"
            }
          ],
          "internalType": "struct Verifier.Proof",
          "name": "proof",
          "type": "tuple"
        },
        {
          "internalType": "uint256[1]",
          "name": "input",
          "type": "uint256[1]"
        }
      ],
      "name": "voteForCandidate",
      "outputs": [
        {
          "internalType": "bool",
          "name": "",
          "type": "bool"
        }
      ],
      "stateMutability": "nonpayable",
      "type": "function"
    },
    {
      "inputs": [
        {
          "internalType": "bytes32",
          "name": "candidate",
          "type": "bytes32"
        }
      ],
      "name": "validCandidate",
      "outputs": [
        {
          "internalType": "bool",
          "name": "",
          "type": "bool"
        }
      ],
      "stateMutability": "view",
      "type": "function",
      "constant": true
    }
  ],
  "bytecode": "0x6080604052604051620020183803806200201883398181016040526200002991908101906200024c565b8260018190555081600390805190602001906200004892919062000100565b5080600290805190602001906200006192919062000100565b508373ffffffffffffffffffffffffffffffffffffffff1663aa67735433306040518363ffffffff1660e01b81526004016200009f92919062000338565b602060405180830381600087803b158015620000ba57600080fd5b505af1158015620000cf573d6000803e3d6000fd5b505050506040513d601f19601f82011682018060405250620000f59190810190620002ea565b50505050506200048e565b8280548282559060005260206000209081019282156200013f579160200282015b828111156200013e57825182559160200191906001019062000121565b5b5090506200014e919062000152565b5090565b6200017791905b808211156200017357600081600090555060010162000159565b5090565b90565b6000815190506200018b8162000440565b92915050565b600082601f830112620001a357600080fd5b8151620001ba620001b48262000393565b62000365565b91508181835260208401935060208101905083856020840282011115620001e057600080fd5b60005b83811015620002145781620001f988826200021e565b845260208401935060208301925050600181019050620001e3565b5050505092915050565b6000815190506200022f816200045a565b92915050565b600081519050620002468162000474565b92915050565b600080600080608085870312156200026357600080fd5b600062000273878288016200017a565b945050602062000286878288016200021e565b935050604085015167ffffffffffffffff811115620002a457600080fd5b620002b28782880162000191565b925050606085015167ffffffffffffffff811115620002d057600080fd5b620002de8782880162000191565b91505092959194509250565b600060208284031215620002fd57600080fd5b60006200030d8482850162000235565b91505092915050565b620003218162000404565b82525050565b6200033281620003bc565b82525050565b60006040820190506200034f600083018562000316565b6200035e602083018462000327565b9392505050565b6000604051905081810181811067ffffffffffffffff821117156200038957600080fd5b8060405250919050565b600067ffffffffffffffff821115620003ab57600080fd5b602082029050602081019050919050565b6000620003c982620003da565b9050919050565b6000819050919050565b600073ffffffffffffffffffffffffffffffffffffffff82169050919050565b6000819050919050565b6000620004118262000418565b9050919050565b600062000425826200042c565b9050919050565b60006200043982620003da565b9050919050565b6200044b81620003bc565b81146200045757600080fd5b50565b6200046581620003d0565b81146200047157600080fd5b50565b6200047f81620003fa565b81146200048b57600080fd5b50565b611b7a806200049e6000396000f3fe608060405234801561001057600080fd5b50600436106100b45760003560e01c80637021939f116100715780637021939f14610191578063b13c744b146101c1578063c35f98c5146101f1578063cdd7225314610221578063da58c7d91461023f578063f48d77291461026f576100b4565b806306a49fce146100b957806312065fe0146100d75780632eb4a7ab146100f55780632f265cf714610113578063392e6678146101435780635ca1e16514610173575b600080fd5b6100c161029f565b6040516100ce919061193e565b60405180910390f35b6100df6102f7565b6040516100ec9190611a16565b60405180910390f35b6100fd6102ff565b60405161010a919061197b565b60405180910390f35b61012d600480360361012891908101906115cb565b610305565b60405161013a9190611a16565b60405180910390f35b61015d600480360361015891908101906115cb565b610369565b60405161016a9190611960565b60405180910390f35b61017b6103bf565b604051610188919061197b565b60405180910390f35b6101ab60048036036101a691908101906115cb565b6103c9565b6040516101b89190611a16565b60405180910390f35b6101db60048036036101d69190810190611683565b6103e1565b6040516101e8919061197b565b60405180910390f35b61020b600480360361020691908101906115f4565b610402565b6040516102189190611960565b60405180910390f35b610229610544565b604051610236919061193e565b60405180910390f35b61025960048036036102549190810190611683565b61059c565b604051610266919061197b565b60405180910390f35b61028960048036036102849190810190611645565b6105bd565b6040516102969190611960565b60405180910390f35b606060028054806020026020016040519081016040528092919081815260200182805480156102ed57602002820191906000526020600020905b8154815260200190600101908083116102d9575b5050505050905090565b600047905090565b60015481565b600061031082610369565b61034f576040517f08c379a000000000000000000000000000000000000000000000000000000000815260040161034690611996565b60405180910390fd5b600080838152602001908152602001600020549050919050565b600080600090505b6002805490508110156103b457826002828154811061038c57fe5b906000526020600020015414156103a75760019150506103ba565b8080600101915050610371565b50600090505b919050565b6000600154905090565b60006020528060005260406000206000915090505481565b600281815481106103ee57fe5b906000526020600020016000915090505481565b600061040d84610369565b61044c576040517f08c379a000000000000000000000000000000000000000000000000000000000815260040161044390611996565b60405180910390fd5b60006104588484610697565b90506104638161076d565b6104a2576040517f08c379a0000000000000000000000000000000000000000000000000000000008152600401610499906119b6565b60405180910390fd5b6104ac84846105bd565b6104eb576040517f08c379a00000000000000000000000000000000000000000000000000000000081526004016104e2906119f6565b60405180910390fd5b60016004600083815260200190815260200160002060006101000a81548160ff02191690831515021790555060016000808781526020019081526020016000206000828254019250508190555060019150509392505050565b6060600380548060200260200160405190810160405280929190818152602001828054801561059257602002820191906000526020600020905b81548152602001906001019080831161057e575b5050505050905090565b600381815481106105a957fe5b906000526020600020016000915090505481565b6000606060016040519080825280602002602001820160405280156105f15781602001602082028038833980820191505090505b50905060008090505b60018110156106395783816001811061060f57fe5b602002015182828151811061062057fe5b60200260200101818152505080806001019150506105fa565b50600061064682866107af565b141561068b577f3f3cfdb26fb5f9f1786ab4f1a1f9cd4c0b5e726cbdfc26e495261731aad44e39604051610679906119d6565b60405180910390a16001915050610691565b60009150505b92915050565b60008260000151600001518360000151602001518460200151600001516000600281106106c057fe5b60200201518560200151600001516001600281106106da57fe5b60200201518660200151602001516000600281106106f457fe5b602002015187602001516020015160016002811061070e57fe5b60200201518860400151600001518960400151602001518960006001811061073257fe5b602002015160405160200161074f9998979695949392919061189b565b60405160208183030381529060405280519060200120905092915050565b6000600115156004600084815260200190815260200160002060009054906101000a900460ff16151514156107a557600090506107aa565b600190505b919050565b6000807f30644e72e131a029b85045b68181585d2833e84879b9709143e1f593f000000190506107dd611297565b6107e5610921565b90508060800151516001865101146107fc57600080fd5b6108046112de565b6040518060400160405280600081526020016000815250905060008090505b865181101561089a578387828151811061083957fe5b60200260200101511061084b57600080fd5b61088b826108868560800151600185018151811061086557fe5b60200260200101518a858151811061087957fe5b6020026020010151610cfd565b610d91565b91508080600101915050610823565b506108bd8183608001516000815181106108b057fe5b6020026020010151610d91565b9050610903856000015186602001516108d584610e44565b85604001516108e78a60400151610e44565b87606001516108f98960000151610e44565b8960200151610ede565b610913576001935050505061091b565b600093505050505b92915050565b610929611297565b60405180604001604052807f1936c240636390dc823e3a728e94b208eb53c6756d81da57ec3425e05d43ac1081526020017f2d70ff78e8216bf29d58923a686d9738278b8ce2fd822e197c85b09286d155668152508160000181905250604051806040016040528060405180604001604052807f2b4daf047abe2e7f0b311118c1b963b63695dc0d769cea78849604434de055bf81526020017f29c13ecb6f33dbc4b3b8a02e2e255511ce4c26a8a2f299efcc94caf2de4fce00815250815260200160405180604001604052807f1da9020008df7f549751f8a251af3b2dc4a2ad3e0870de54acaedd9fc1b47e1781526020017f25ea0d7e2b29de431b86a943db30dbf4d98f68df9ca8a9628d14d1591e817d908152508152508160200181905250604051806040016040528060405180604001604052807f011016e22ae045444f50fb80f246ec486c7e02af09132cd38c4fcf484983e4f281526020017ee83c788c2878d1d5eba3ed49b0d81e4c0487dedc3e4d1c2baab5833785b62f815250815260200160405180604001604052807f05eb89e741ed5b5d611cebf92d1ed02cd6f3311089f0d400df7d9ced5a48fd4181526020017f132a90a3b0d369ccd66e2a5ba04a935e44d8ad5dca93a76bba592a578130a9118152508152508160400181905250604051806040016040528060405180604001604052807f065f6a3323a2abffd621fc263f348eb914904b68d5897729ae34a6b9d33f085281526020017f0c3b60f59d3bd50328a04c0ff6d979199685d0526f89f6ac29d6174ce24707a2815250815260200160405180604001604052807f26e7ebce2b44efef6b6315938e33f0a8ecc82dbad635c9efa681ed85bbb5998281526020017f12e0f3721230a0f38f6c9913048d5230fd2615ef3ff7f6ee4b20dfe0bdea1a8681525081525081606001819052506002604051908082528060200260200182016040528015610c0f57816020015b610bfc6112f8565b815260200190600190039081610bf45790505b50816080018190525060405180604001604052807f06e8ff496b2ee89c443f83ce4e9980d04bfa7ffd54a6d929dd8c9c7167782cf981526020017f1462f2f23b9606b4d284570a4f00f5cb6d59dea9d3b3bd56a6e36ed67cd44d698152508160800151600081518110610c7e57fe5b602002602001018190525060405180604001604052807f1efaa03354ac45d468a96d199c573d8746c8b960d6e973fe4fc2b5e0d8f8e51881526020017f0219e26c766c733d92bb909b8bbb9a3a915c8a06ad2d579022df9a6bb430d3c18152508160800151600181518110610cef57fe5b602002602001018190525090565b610d056112de565b610d0d611312565b836000015181600060038110610d1f57fe5b602002018181525050836020015181600160038110610d3a57fe5b6020020181815250508281600260038110610d5157fe5b6020020181815250506000606083608084600060076107d05a03f190508060008114610d7c57610d7e565bfe5b5080610d8957600080fd5b505092915050565b610d996112de565b610da1611334565b836000015181600060048110610db357fe5b602002018181525050836020015181600160048110610dce57fe5b602002018181525050826000015181600260048110610de957fe5b602002018181525050826020015181600360048110610e0457fe5b602002018181525050600060608360c084600060066107d05a03f190508060008114610e2f57610e31565bfe5b5080610e3c57600080fd5b505092915050565b610e4c6112de565b60007f30644e72e131a029b85045b68181585d97816a916871ca8d3c208c16d87cfd47905060008360000151148015610e89575060008360200151145b15610ead576040518060400160405280600081526020016000815250915050610ed9565b60405180604001604052808460000151815260200182856020015181610ecf57fe5b0683038152509150505b919050565b600060606004604051908082528060200260200182016040528015610f1d57816020015b610f0a6112f8565b815260200190600190039081610f025790505b50905060606004604051908082528060200260200182016040528015610f5d57816020015b610f4a611356565b815260200190600190039081610f425790505b5090508a82600081518110610f6e57fe5b60200260200101819052508882600181518110610f8757fe5b60200260200101819052508682600281518110610fa057fe5b60200260200101819052508482600381518110610fb957fe5b60200260200101819052508981600081518110610fd257fe5b60200260200101819052508781600181518110610feb57fe5b6020026020010181905250858160028151811061100457fe5b6020026020010181905250838160038151811061101d57fe5b60200260200101819052506110328282611042565b9250505098975050505050505050565b6000815183511461105257600080fd5b60008351905060006006820290506060816040519080825280602002602001820160405280156110915781602001602082028038833980820191505090505b50905060008090505b83811015611237578681815181106110ae57fe5b6020026020010151600001518260006006840201815181106110cc57fe5b6020026020010181815250508681815181106110e457fe5b60200260200101516020015182600160068402018151811061110257fe5b60200260200101818152505085818151811061111a57fe5b60200260200101516000015160006002811061113257fe5b602002015182600260068402018151811061114957fe5b60200260200101818152505085818151811061116157fe5b60200260200101516000015160016002811061117957fe5b602002015182600360068402018151811061119057fe5b6020026020010181815250508581815181106111a857fe5b6020026020010151602001516000600281106111c057fe5b60200201518260046006840201815181106111d757fe5b6020026020010181815250508581815181106111ef57fe5b60200260200101516020015160016002811061120757fe5b602002015182600560068402018151811061121e57fe5b602002602001018181525050808060010191505061109a565b5061124061137c565b60006020826020860260208601600060086107d05a03f19050806000811461126757611269565bfe5b508061127457600080fd5b60008260006001811061128357fe5b602002015114159550505050505092915050565b6040518060a001604052806112aa6112f8565b81526020016112b7611356565b81526020016112c4611356565b81526020016112d1611356565b8152602001606081525090565b604051806040016040528060008152602001600081525090565b604051806040016040528060008152602001600081525090565b6040518060600160405280600390602082028038833980820191505090505090565b6040518060800160405280600490602082028038833980820191505090505090565b604051806040016040528061136961139e565b815260200161137661139e565b81525090565b6040518060200160405280600190602082028038833980820191505090505090565b6040518060400160405280600290602082028038833980820191505090505090565b600082601f8301126113d157600080fd5b60016113e46113df82611a5e565b611a31565b915081838560208402820111156113fa57600080fd5b60005b8381101561142a578161141088826115b6565b8452602084019350602083019250506001810190506113fd565b5050505092915050565b600082601f83011261144557600080fd5b600261145861145382611a80565b611a31565b9150818385602084028201111561146e57600080fd5b60005b8381101561149e578161148488826115b6565b845260208401935060208301925050600181019050611471565b5050505092915050565b6000813590506114b781611b16565b92915050565b6000604082840312156114cf57600080fd5b6114d96040611a31565b905060006114e9848285016115b6565b60008301525060206114fd848285016115b6565b60208301525092915050565b60006080828403121561151b57600080fd5b6115256040611a31565b9050600061153584828501611434565b600083015250604061154984828501611434565b60208301525092915050565b6000610100828403121561156857600080fd5b6115726060611a31565b90506000611582848285016114bd565b600083015250604061159684828501611509565b60208301525060c06115aa848285016114bd565b60408301525092915050565b6000813590506115c581611b2d565b92915050565b6000602082840312156115dd57600080fd5b60006115eb848285016114a8565b91505092915050565b6000806000610140848603121561160a57600080fd5b6000611618868287016114a8565b935050602061162986828701611555565b92505061012061163b868287016113c0565b9150509250925092565b600080610120838503121561165957600080fd5b600061166785828601611555565b925050610100611679858286016113c0565b9150509250929050565b60006020828403121561169557600080fd5b60006116a3848285016115b6565b91505092915050565b60006116b88383611731565b60208301905092915050565b60006116cf82611ab2565b6116d98185611aca565b93506116e483611aa2565b8060005b838110156117155781516116fc88826116ac565b975061170783611abd565b9250506001810190506116e8565b5085935050505092915050565b61172b81611aec565b82525050565b61173a81611af8565b82525050565b61174981611af8565b82525050565b600061175c601683611adb565b91507f496e76616c69642063616e646964617465206e616d65000000000000000000006000830152602082019050919050565b600061179c601283611adb565b91507f50726f6f6620616c7265616479207573656400000000000000000000000000006000830152602082019050919050565b60006117dc602283611adb565b91507f5472616e73616374696f6e207375636365737366756c6c79207665726966696560008301527f642e0000000000000000000000000000000000000000000000000000000000006020830152604082019050919050565b6000611842601583611adb565b91507f496e636f72726563742070726f6f6620676976656e00000000000000000000006000830152602082019050919050565b61187e81611b02565b82525050565b61189561189082611b02565b611b0c565b82525050565b60006118a7828c611884565b6020820191506118b7828b611884565b6020820191506118c7828a611884565b6020820191506118d78289611884565b6020820191506118e78288611884565b6020820191506118f78287611884565b6020820191506119078286611884565b6020820191506119178285611884565b6020820191506119278284611884565b6020820191508190509a9950505050505050505050565b6000602082019050818103600083015261195881846116c4565b905092915050565b60006020820190506119756000830184611722565b92915050565b60006020820190506119906000830184611740565b92915050565b600060208201905081810360008301526119af8161174f565b9050919050565b600060208201905081810360008301526119cf8161178f565b9050919050565b600060208201905081810360008301526119ef816117cf565b9050919050565b60006020820190508181036000830152611a0f81611835565b9050919050565b6000602082019050611a2b6000830184611875565b92915050565b6000604051905081810181811067ffffffffffffffff82111715611a5457600080fd5b8060405250919050565b600067ffffffffffffffff821115611a7557600080fd5b602082029050919050565b600067ffffffffffffffff821115611a9757600080fd5b602082029050919050565b6000819050602082019050919050565b600081519050919050565b6000602082019050919050565b600082825260208201905092915050565b600082825260208201905092915050565b60008115159050919050565b6000819050919050565b6000819050919050565b6000819050919050565b611b1f81611af8565b8114611b2a57600080fd5b50565b611b3681611b02565b8114611b4157600080fd5b5056fea2646970667358221220e0be6d3889f45742be8fa891e6a02beeb01d47d4fbef093c2dadbeb0c3b68ef264736f6c63430006010033",
  "source": "pragma solidity 0.6.1;\npragma experimental ABIEncoderV2;\n\nimport './verifier.sol';\nimport './ElectionRegistry.sol';\n\n\ncontract Voting is Verifier {\n  /* mapping field below is equivalent to an associative array or hash.\n  The key of the mapping is candidate name stored as type bytes32 and value is\n  an unsigned integer to store the vote count\n  */\n\n  mapping (bytes32 => uint256) public votesReceived;\n\n  /* Solidity doesn't let you pass in an array of strings in the constructor (yet).\n  We will use an array of bytes32 instead to store the list of candidates\n  */\n\n  bytes32 public merkleRoot;\n  bytes32[] public candidateList;\n  bytes32[] public voters;\n\n  // withdraw tocken variables\n  mapping (bytes32 => bool) votingRecord;\n  event logWithdrawal(address receiver, uint amount);\n\n  constructor(\n    address registryAdd,\n    bytes32 root,\n    bytes32[] memory registry,\n    bytes32[] memory candidateNames\n  ) public payable {\n    merkleRoot = root;\n    voters = registry;\n    candidateList = candidateNames;\n    ElectionRegistry(registryAdd).register(msg.sender, address(this));\n  }\n\n  function getCandidates() public view returns (bytes32[] memory) {\n    return candidateList;\n  }\n\n  function getVoters() public view returns (bytes32[] memory) {\n    return voters;\n  }\n\n  function getRoot() public view returns (bytes32) {\n    return merkleRoot;\n  }\n\n  function getBalance() public view returns (uint) {\n    return address(this).balance;\n  }\n\n  // This function returns the total votes a candidate has received so far\n  function totalVotesFor(bytes32 candidate) public view returns (uint256) {\n    require(validCandidate(candidate), \"Invalid candidate name\");\n    return votesReceived[candidate];\n  }\n\n  // This function increments the vote count for the specified candidate. This\n  // is equivalent to casting a vote\n  function voteForCandidate(\n    bytes32 candidate,\n    Proof memory proof,\n    uint[1] memory input\n  ) public returns (bool) {\n    require(validCandidate(candidate), \"Invalid candidate name\");\n    bytes32 hashedProof = serializeProof(proof, input);\n    require(unusedProof(hashedProof), \"Proof already used\");\n    require(verifyTx(proof, input), \"Incorrect proof given\");\n    votingRecord[hashedProof] = true;\n    votesReceived[candidate] += 1;\n    return true;\n  }\n\n  function validCandidate(bytes32 candidate) public view returns (bool) {\n    for(uint i = 0; i < candidateList.length; i++) {\n      if (candidateList[i] == candidate) {\n        return true;\n      }\n    }\n    return false;\n  }\n\n  function serializeProof(Proof memory proof, uint256[1] memory input) internal pure returns (bytes32) {\n    return keccak256(abi.encodePacked(\n      proof.a.X,\n      proof.a.Y,\n      proof.b.X[0],\n      proof.b.X[1],\n      proof.b.Y[0],\n      proof.b.Y[1],\n      proof.c.X,\n      proof.c.Y,\n      input[0]));\n  }\n\n  function unusedProof(bytes32 proof) internal view returns (bool) {\n    if (votingRecord[proof] == true) {\n        return false;\n    } else {\n        return true;\n    }\n  }\n}",
  "sourcePath": "/Users/alvaro/uni/Bachelor Arbeit/Ethereum-Anonymous-Voting/contracts/Voting.sol",
  "compiler": {
    "name": "solc",
    "version": "0.6.1+commit.e6f7d5a4.Emscripten.clang"
  },
  "schemaVersion": "3.0.23",
  "updatedAt": "2020-04-04T16:15:35.575Z",
  "networkType": "ethereum",
  "devdoc": {
    "methods": {}
  },
  "userdoc": {
    "methods": {}
  }
}