{
  "contractName": "Voting",
  "abi": [
    {
      "constant": false,
      "inputs": [
        {
          "name": "a",
          "type": "uint256[2]"
        },
        {
          "name": "b",
          "type": "uint256[2][2]"
        },
        {
          "name": "c",
          "type": "uint256[2]"
        },
        {
          "name": "input",
          "type": "uint256[3]"
        }
      ],
      "name": "verifyTx",
      "outputs": [
        {
          "name": "r",
          "type": "bool"
        }
      ],
      "payable": false,
      "stateMutability": "nonpayable",
      "type": "function"
    },
    {
      "constant": true,
      "inputs": [
        {
          "name": "",
          "type": "bytes32"
        }
      ],
      "name": "votesReceived",
      "outputs": [
        {
          "name": "",
          "type": "uint256"
        }
      ],
      "payable": false,
      "stateMutability": "view",
      "type": "function"
    },
    {
      "constant": true,
      "inputs": [],
      "name": "registry",
      "outputs": [
        {
          "name": "",
          "type": "address"
        }
      ],
      "payable": false,
      "stateMutability": "view",
      "type": "function"
    },
    {
      "constant": true,
      "inputs": [
        {
          "name": "",
          "type": "uint256"
        }
      ],
      "name": "candidateList",
      "outputs": [
        {
          "name": "",
          "type": "bytes32"
        }
      ],
      "payable": false,
      "stateMutability": "view",
      "type": "function"
    },
    {
      "inputs": [
        {
          "name": "candidateNames",
          "type": "bytes32[]"
        },
        {
          "name": "registryAdd",
          "type": "address"
        }
      ],
      "payable": true,
      "stateMutability": "payable",
      "type": "constructor"
    },
    {
      "anonymous": false,
      "inputs": [
        {
          "indexed": false,
          "name": "receiver",
          "type": "address"
        },
        {
          "indexed": false,
          "name": "amount",
          "type": "uint256"
        }
      ],
      "name": "logWithdrawal",
      "type": "event"
    },
    {
      "anonymous": false,
      "inputs": [
        {
          "indexed": false,
          "name": "s",
          "type": "string"
        }
      ],
      "name": "Verified",
      "type": "event"
    },
    {
      "constant": false,
      "inputs": [],
      "name": "getCandidates",
      "outputs": [
        {
          "name": "",
          "type": "bytes32[]"
        }
      ],
      "payable": false,
      "stateMutability": "nonpayable",
      "type": "function"
    },
    {
      "constant": false,
      "inputs": [
        {
          "name": "candidate",
          "type": "bytes32"
        }
      ],
      "name": "totalVotesFor",
      "outputs": [
        {
          "name": "",
          "type": "uint256"
        }
      ],
      "payable": false,
      "stateMutability": "nonpayable",
      "type": "function"
    },
    {
      "constant": false,
      "inputs": [
        {
          "name": "candidate",
          "type": "bytes32"
        },
        {
          "name": "a",
          "type": "uint256[2]"
        },
        {
          "name": "b",
          "type": "uint256[2][2]"
        },
        {
          "name": "c",
          "type": "uint256[2]"
        },
        {
          "name": "input",
          "type": "uint256[3]"
        }
      ],
      "name": "voteForCandidate",
      "outputs": [
        {
          "name": "",
          "type": "bool"
        }
      ],
      "payable": true,
      "stateMutability": "payable",
      "type": "function"
    },
    {
      "constant": true,
      "inputs": [
        {
          "name": "candidate",
          "type": "bytes32"
        }
      ],
      "name": "validCandidate",
      "outputs": [
        {
          "name": "",
          "type": "bool"
        }
      ],
      "payable": false,
      "stateMutability": "view",
      "type": "function"
    },
    {
      "constant": true,
      "inputs": [],
      "name": "getBalance",
      "outputs": [
        {
          "name": "",
          "type": "uint256"
        }
      ],
      "payable": false,
      "stateMutability": "view",
      "type": "function"
    }
  ],
  "bytecode": "0x60806040526040516200209e3803806200209e833981018060405260408110156200002957600080fd5b8101908080516401000000008111156200004257600080fd5b828101905060208101848111156200005957600080fd5b81518560208202830111640100000000821117156200007757600080fd5b5050929190602001805190602001909291905050508160019080519060200190620000a4929190620001dd565b5080600260006101000a81548173ffffffffffffffffffffffffffffffffffffffff021916908373ffffffffffffffffffffffffffffffffffffffff160217905550600260009054906101000a900473ffffffffffffffffffffffffffffffffffffffff1673ffffffffffffffffffffffffffffffffffffffff1663aa67735433306040518363ffffffff1660e01b8152600401808373ffffffffffffffffffffffffffffffffffffffff1673ffffffffffffffffffffffffffffffffffffffff1681526020018273ffffffffffffffffffffffffffffffffffffffff1673ffffffffffffffffffffffffffffffffffffffff16815260200192505050600060405180830381600087803b158015620001bc57600080fd5b505af1158015620001d1573d6000803e3d6000fd5b50505050505062000257565b8280548282559060005260206000209081019282156200021c579160200282015b828111156200021b578251825591602001919060010190620001fe565b5b5090506200022b91906200022f565b5090565b6200025491905b808211156200025057600081600090555060010162000236565b5090565b90565b611e3780620002676000396000f3fe6080604052600436106100865760003560e01c8063415df87c11610059578063415df87c146101c4578063613d46e31461034a5780637021939f146104cd5780637b1039991461051c578063b13c744b1461057357610086565b806306a49fce1461008b57806312065fe0146100f75780632f265cf714610122578063392e667814610171575b600080fd5b34801561009757600080fd5b506100a06105c2565b6040518080602001828103825283818151815260200191508051906020019060200280838360005b838110156100e35780820151818401526020810190506100c8565b505050509050019250505060405180910390f35b34801561010357600080fd5b5061010c61061a565b6040518082815260200191505060405180910390f35b34801561012e57600080fd5b5061015b6004803603602081101561014557600080fd5b8101908080359060200190929190505050610639565b6040518082815260200191505060405180910390f35b34801561017d57600080fd5b506101aa6004803603602081101561019457600080fd5b81019080803590602001909291905050506106d0565b604051808215151515815260200191505060405180910390f35b3480156101d057600080fd5b5061033060048036036101608110156101e857600080fd5b8101908080604001906002806020026040519081016040528092919082600260200280828437600081840152601f19601f82011690508083019250505050505091929192908060800190600280602002604051908101604052809291906000905b8282101561029d578382604002016002806020026040519081016040528092919082600260200280828437600081840152601f19601f82011690508083019250505050505081526020019060010190610249565b50505050919291929080604001906002806020026040519081016040528092919082600260200280828437600081840152601f19601f820116905080830192505050505050919291929080606001906003806020026040519081016040528092919082600360200280828437600081840152601f19601f8201169050808301925050505050509192919290505050610726565b604051808215151515815260200191505060405180910390f35b6104b3600480360361018081101561036157600080fd5b810190808035906020019092919080604001906002806020026040519081016040528092919082600260200280828437600081840152601f19601f82011690508083019250505050505091929192908060800190600280602002604051908101604052809291906000905b82821015610420578382604002016002806020026040519081016040528092919082600260200280828437600081840152601f19601f820116905080830192505050505050815260200190600101906103cc565b50505050919291929080604001906002806020026040519081016040528092919082600260200280828437600081840152601f19601f820116905080830192505050505050919291929080606001906003806020026040519081016040528092919082600360200280828437600081840152601f19601f820116905080830192505050505050919291929050505061096d565b604051808215151515815260200191505060405180910390f35b3480156104d957600080fd5b50610506600480360360208110156104f057600080fd5b8101908080359060200190929190505050610afe565b6040518082815260200191505060405180910390f35b34801561052857600080fd5b50610531610b16565b604051808273ffffffffffffffffffffffffffffffffffffffff1673ffffffffffffffffffffffffffffffffffffffff16815260200191505060405180910390f35b34801561057f57600080fd5b506105ac6004803603602081101561059657600080fd5b8101908080359060200190929190505050610b3c565b6040518082815260200191505060405180910390f35b6060600180548060200260200160405190810160405280929190818152602001828054801561061057602002820191906000526020600020905b8154815260200190600101908083116105fc575b5050505050905090565b60003073ffffffffffffffffffffffffffffffffffffffff1631905090565b6000610644826106d0565b6106b6576040517f08c379a00000000000000000000000000000000000000000000000000000000081526004018080602001828103825260168152602001807f496e76616c69642063616e646964617465206e616d650000000000000000000081525060200191505060405180910390fd5b600080838152602001908152602001600020549050919050565b600080600090505b60018054905081101561071b5782600182815481106106f357fe5b9060005260206000200154141561070e576001915050610721565b80806001019150506106d8565b50600090505b919050565b6000610730611c58565b60405180604001604052808760006002811061074857fe5b602002015181526020018760016002811061075f57fe5b60200201518152508160000181905250604051806040016040528060405180604001604052808860006002811061079257fe5b60200201516000600281106107a357fe5b60200201518152602001886000600281106107ba57fe5b60200201516001600281106107cb57fe5b602002015181525081526020016040518060400160405280886001600281106107f057fe5b602002015160006002811061080157fe5b602002015181526020018860016002811061081857fe5b602002015160016002811061082957fe5b6020020151815250815250816020018190525060405180604001604052808560006002811061085457fe5b602002015181526020018560016002811061086b57fe5b60200201518152508160400181905250606060036040519080825280602002602001820160405280156108ad5781602001602082028038833980820191505090505b50905060008090505b60038110156108f5578481600381106108cb57fe5b60200201518282815181106108dc57fe5b60200260200101818152505080806001019150506108b6565b5060006109028284610b5d565b141561095e577f3f3cfdb26fb5f9f1786ab4f1a1f9cd4c0b5e726cbdfc26e495261731aad44e39604051808060200182810382526022815260200180611dea6022913960400191505060405180910390a1600192505050610965565b6000925050505b949350505050565b600061097b85858585610726565b6109ed576040517f08c379a00000000000000000000000000000000000000000000000000000000081526004018080602001828103825260158152602001807f496e636f72726563742070726f6f6620676976656e000000000000000000000081525060200191505060405180910390fd5b6001600360003373ffffffffffffffffffffffffffffffffffffffff1673ffffffffffffffffffffffffffffffffffffffff16815260200190815260200160002060006101000a81548160ff021916908315150217905550610a4e866106d0565b610ac0576040517f08c379a00000000000000000000000000000000000000000000000000000000081526004018080602001828103825260168152602001807f496e76616c69642063616e646964617465206e616d650000000000000000000081525060200191505060405180910390fd5b600160008088815260200190815260200160002060008282540192505081905550610af03364e8d4a51000610d0d565b506001905095945050505050565b60006020528060005260406000206000915090505481565b600260009054906101000a900473ffffffffffffffffffffffffffffffffffffffff1681565b60018181548110610b4957fe5b906000526020600020016000915090505481565b6000807f30644e72e131a029b85045b68181585d2833e84879b9709143e1f593f00000019050610b8b611c8c565b610b93610ea9565b90508060a0015151600186510114610baa57600080fd5b610bb2611ce1565b6040518060400160405280600081526020016000815250905060008090505b8651811015610c485783878281518110610be757fe5b602002602001015110610bf957600080fd5b610c3982610c348560a001516001850181518110610c1357fe5b60200260200101518a8581518110610c2757fe5b60200260200101516113c4565b611458565b91508080600101915050610bd1565b50610c6b818360a00151600081518110610c5e57fe5b6020026020010151611458565b9050610cbb8260200151836040015183856080015189604001518760000151610ca4610c9f8d600001518b60200151611458565b61150b565b610cb68d602001518b604001516115a5565b6117a3565b610ccb5760019350505050610d07565b610cef85600001518360800151610ce5856060015161150b565b8860200151611907565b610cff5760029350505050610d07565b600093505050505b92915050565b6000813073ffffffffffffffffffffffffffffffffffffffff1631108015610d86575060011515600360008573ffffffffffffffffffffffffffffffffffffffff1673ffffffffffffffffffffffffffffffffffffffff16815260200190815260200160002060009054906101000a900460ff16151514155b15610d945760009050610ea3565b6000600360008573ffffffffffffffffffffffffffffffffffffffff1673ffffffffffffffffffffffffffffffffffffffff16815260200190815260200160002060006101000a81548160ff0219169083151502179055508273ffffffffffffffffffffffffffffffffffffffff166108fc839081150290604051600060405180830381858888f19350505050158015610e32573d6000803e3d6000fd5b507f6202b9210eddfec514dee7725e74c49be931243a5fda51c01552a5fb07e893dd8383604051808373ffffffffffffffffffffffffffffffffffffffff1673ffffffffffffffffffffffffffffffffffffffff1681526020018281526020019250505060405180910390a1600190505b92915050565b610eb1611c8c565b604051806040016040528060405180604001604052807f0fea20ba467638092edaab455502aaad077b39044a43db413807e7874e4a2fa181526020017f08e25fe90a1ebea197a014d93d49b4a9e8eb172bdce06ed370eb39590526cf73815250815260200160405180604001604052807f2b4459ce2d1b3b36e922d0b8c647bb1ff12422f1702b09284ed8346ab2ef673181526020017f15bd0730dbc7a0482f02af7f8cd6511c0833753459cdd149fa94152dc70feaea815250815250816000018190525060405180604001604052807f101302ce45f94c55a6aec1bb6bd7f2d7db7c7694c3280ec8918fe1e01d03455881526020017f2eeb1d6774a27eb23ae0a0b3318dc77a33192945b38ac2e3132dc2bfe11f5b568152508160200181905250604051806040016040528060405180604001604052807e2cbb39ce893a8a0904e34b673acb9c2c0e3cff34a51d2370d88f833364d9bd81526020017f1be111b982bee17f41f5aec9399a8750ddc18807ce83384c2b251d5361c0312c815250815260200160405180604001604052807f124a4eb8e6caa2ec92e4e6bd74de41f4fbf138b1f3323294f63d3c97028f624381526020017f2f2b9867c6f514b879bb43296ce63e4e443a4acaa089a36023ee0e5f8afd8454815250815250816040018190525060405180604001604052807f279df5b20e06e097022f58a77c51b028026628f77ec8213b212a4125485c6a6681526020017f0dff62916f69d766e7f19950da686d2fba43de1d024344f2381f238534ba4fb18152508160600181905250604051806040016040528060405180604001604052807f086387566b565807f26743c7f2ebb3ba2d8659f136f977fa8dee25a995ab8b9081526020017f10f2a3ba9e02edf2e3c63c8663ddddadbc0b8d8540f4b05787bdeb81afa56041815250815260200160405180604001604052807f21843e22094d9b30ec6ae0dc7cbf6c75f0d3f59f878307425f32bb22ae90a17381526020017f1e35c7a9d892080c1b798ca5450f82aad3d9f1041e108e9e512aff20d7cf5f33815250815250816080018190525060046040519080825280602002602001820160405280156111f457816020015b6111e1611cfb565b8152602001906001900390816111d95790505b508160a0018190525060405180604001604052807f2e0e968a8cd5bcae2afa5ced6b9ef88f1af7d46eed8683f6d6d2889eef29b86a81526020017f26d645d1cd29e5c224d852be8ba7ff60dbeab6bc33e91274fb6c4a63a19c07fb8152508160a0015160008151811061126357fe5b602002602001018190525060405180604001604052807f2ed52e461ee405b80d8152844233bcbd93709426c38658a9c07543fcabd2380d81526020017f2bc3e91d617a09fdc66f9b66caab2479bae2b44794d72b8b2c26e41e87ccc0c48152508160a001516001815181106112d457fe5b602002602001018190525060405180604001604052807f150d55fee766c560f430ddabbf774a7f4efef3e70f33c882dafb617725d6475781526020017f16a5dda1f842d5b7741a94cf700a6305cf2463e2f8fd79850e4071b6f1b21e2b8152508160a0015160028151811061134557fe5b602002602001018190525060405180604001604052807f175eedcbfe47eff10fb2324af41b66fb3bcbb00812180ba013107b9363d6f58281526020017f077c0d3488124a12aaf3ec65d7e3a78a34d27b48b34d1fe03da1b3784328b3cd8152508160a001516003815181106113b657fe5b602002602001018190525090565b6113cc611ce1565b6113d4611d15565b8360000151816000600381106113e657fe5b60200201818152505083602001518160016003811061140157fe5b602002018181525050828160026003811061141857fe5b6020020181815250506000606083608084600060076107d05a03f19050806000811461144357611445565bfe5b508061145057600080fd5b505092915050565b611460611ce1565b611468611d37565b83600001518160006004811061147a57fe5b60200201818152505083602001518160016004811061149557fe5b6020020181815250508260000151816002600481106114b057fe5b6020020181815250508260200151816003600481106114cb57fe5b602002018181525050600060608360c084600060066107d05a03f1905080600081146114f6576114f8565bfe5b508061150357600080fd5b505092915050565b611513611ce1565b60007f30644e72e131a029b85045b68181585d97816a916871ca8d3c208c16d87cfd47905060008360000151148015611550575060008360200151145b156115745760405180604001604052806000815260200160008152509150506115a0565b6040518060400160405280846000015181526020018285602001518161159657fe5b0683038152509150505b919050565b6115ad611d59565b73__BN256G2_______________________________6361a931ec84600001516001600281106115d857fe5b602002015185600001516000600281106115ee57fe5b6020020151866020015160016002811061160457fe5b6020020151876020015160006002811061161a57fe5b6020020151876000015160016002811061163057fe5b6020020151886000015160006002811061164657fe5b6020020151896020015160016002811061165c57fe5b60200201518a6020015160006002811061167257fe5b60200201516040518963ffffffff1660e01b8152600401808981526020018881526020018781526020018681526020018581526020018481526020018381526020018281526020019850505050505050505060806040518083038186803b1580156116dc57600080fd5b505af41580156116f0573d6000803e3d6000fd5b505050506040513d608081101561170657600080fd5b8101908080519060200190929190805190602001909291908051906020019092919080519060200190929190505050846000015160016002811061174657fe5b60200201856000015160006002811061175b57fe5b60200201866020015160016002811061177057fe5b60200201876020015160006002811061178557fe5b60200201848152508481525084815250848152505050505092915050565b6000606060046040519080825280602002602001820160405280156117e257816020015b6117cf611cfb565b8152602001906001900390816117c75790505b5090506060600460405190808252806020026020018201604052801561182257816020015b61180f611d7f565b8152602001906001900390816118075790505b5090508a8260008151811061183357fe5b6020026020010181905250888260018151811061184c57fe5b6020026020010181905250868260028151811061186557fe5b6020026020010181905250848260038151811061187e57fe5b6020026020010181905250898160008151811061189757fe5b602002602001018190525087816001815181106118b057fe5b602002602001018190525085816002815181106118c957fe5b602002602001018190525083816003815181106118e257fe5b60200260200101819052506118f78282611a03565b9250505098975050505050505050565b60006060600260405190808252806020026020018201604052801561194657816020015b611933611cfb565b81526020019060019003908161192b5790505b5090506060600260405190808252806020026020018201604052801561198657816020015b611973611d7f565b81526020019060019003908161196b5790505b509050868260008151811061199757fe5b602002602001018190525084826001815181106119b057fe5b602002602001018190525085816000815181106119c957fe5b602002602001018190525083816001815181106119e257fe5b60200260200101819052506119f78282611a03565b92505050949350505050565b60008151835114611a1357600080fd5b6000835190506000600682029050606081604051908082528060200260200182016040528015611a525781602001602082028038833980820191505090505b50905060008090505b83811015611bf857868181518110611a6f57fe5b602002602001015160000151826000600684020181518110611a8d57fe5b602002602001018181525050868181518110611aa557fe5b602002602001015160200151826001600684020181518110611ac357fe5b602002602001018181525050858181518110611adb57fe5b602002602001015160000151600060028110611af357fe5b6020020151826002600684020181518110611b0a57fe5b602002602001018181525050858181518110611b2257fe5b602002602001015160000151600160028110611b3a57fe5b6020020151826003600684020181518110611b5157fe5b602002602001018181525050858181518110611b6957fe5b602002602001015160200151600060028110611b8157fe5b6020020151826004600684020181518110611b9857fe5b602002602001018181525050858181518110611bb057fe5b602002602001015160200151600160028110611bc857fe5b6020020151826005600684020181518110611bdf57fe5b6020026020010181815250508080600101915050611a5b565b50611c01611da5565b60006020826020860260208601600060086107d05a03f190508060008114611c2857611c2a565bfe5b5080611c3557600080fd5b600082600060018110611c4457fe5b602002015114159550505050505092915050565b604051806101000160405280611c6c611cfb565b8152602001611c79611d7f565b8152602001611c86611cfb565b81525090565b604051806102200160405280611ca0611d7f565b8152602001611cad611cfb565b8152602001611cba611d7f565b8152602001611cc7611cfb565b8152602001611cd4611d7f565b8152602001606081525090565b604051806040016040528060008152602001600081525090565b604051806040016040528060008152602001600081525090565b6040518060600160405280600390602082028038833980820191505090505090565b6040518060800160405280600490602082028038833980820191505090505090565b6040518060800160405280611d6c611dc7565b8152602001611d79611dc7565b81525090565b6040518060800160405280611d92611dc7565b8152602001611d9f611dc7565b81525090565b6040518060200160405280600190602082028038833980820191505090505090565b604051806040016040528060029060208202803883398082019150509050509056fe5472616e73616374696f6e207375636365737366756c6c792076657269666965642ea165627a7a72305820fdc59f5daac472444e884b04c5e1c4e7cde14d4bc747c65ed5b7624e5b08008e0029",
  "source": "pragma solidity >=0.4.0 <0.6.0;\n// We have to specify what version of compiler this code will compile with\n\nimport './verifier.sol';\nimport './ElectionRegistry.sol';\n\ncontract Voting is Verifier {\n  /* mapping field below is equivalent to an associative array or hash.\n  The key of the mapping is candidate name stored as type bytes32 and value is\n  an unsigned integer to store the vote count\n  */\n\n  mapping (bytes32 => uint256) public votesReceived;\n\n  /* Solidity doesn't let you pass in an array of strings in the constructor (yet).\n  We will use an array of bytes32 instead to store the list of candidates\n  */\n\n  bytes32[] public candidateList;\n  ElectionRegistry public registry;\n\n  // withdraw tocken variables\n  mapping (address => bool) votingRecord;\n  event logWithdrawal(address receiver, uint amount);\n\n  constructor(bytes32[] memory candidateNames, address registryAdd) public payable {\n    candidateList = candidateNames;\n    registry = ElectionRegistry(registryAdd);\n    registry.register(msg.sender, address(this));\n  }\n\n  function getCandidates() public returns (bytes32[] memory) {\n    return candidateList;\n  }\n\n  // This function returns the total votes a candidate has received so far\n  function totalVotesFor(bytes32 candidate) public returns (uint256) {\n    require(validCandidate(candidate), \"Invalid candidate name\");\n    return votesReceived[candidate];\n  }\n\n  // This function increments the vote count for the specified candidate. This\n  // is equivalent to casting a vote\n  function voteForCandidate(\n    bytes32 candidate,\n    uint[2] memory a,\n    uint[2][2] memory b,\n    uint[2] memory c,\n    uint[3] memory input\n  ) public payable returns (bool) {\n    require(verifyTx(a, b, c, input), \"Incorrect proof given\");\n    votingRecord[msg.sender] = true;\n    require(validCandidate(candidate), \"Invalid candidate name\");\n    votesReceived[candidate] += 1;\n    withdraw(msg.sender, 1 szabo);\n    return true;\n  }\n\n  function withdraw(address payable voter, uint amount) internal returns (bool success) {\n    if (address(this).balance < amount && votingRecord[voter] != true) return false;\n    votingRecord[voter] = false;\n    voter.transfer(amount);\n    emit logWithdrawal(voter, amount);\n    return true;\n  }\n\n  function validCandidate(bytes32 candidate) public view returns (bool) {\n    for(uint i = 0; i < candidateList.length; i++) {\n      if (candidateList[i] == candidate) {\n        return true;\n      }\n    }\n    return false;\n  }\n\n  function getBalance() public view returns (uint) {\n    return address(this).balance;\n  }\n}",
  "sourcePath": "/Users/alvaro/uni/Bachelor Arbeit/Ethereum-Anonymous-Voting/contracts/Voting.sol",
  "compiler": {
    "name": "solc",
    "version": "0.5.8+commit.23d335f2.Emscripten.clang"
  },
  "schemaVersion": "3.0.16",
  "updatedAt": "2020-01-29T12:19:24.350Z",
  "devdoc": {
    "methods": {}
  },
  "userdoc": {
    "methods": {}
  }
}