{
  "contractName": "Voting",
  "abi": [
    {
      "inputs": [
        {
          "internalType": "address",
          "name": "registryAdd",
          "type": "address"
        },
        {
          "internalType": "bytes32",
          "name": "root",
          "type": "bytes32"
        },
        {
          "internalType": "bytes32[]",
          "name": "registry",
          "type": "bytes32[]"
        },
        {
          "internalType": "bytes32[]",
          "name": "candidateNames",
          "type": "bytes32[]"
        }
      ],
      "stateMutability": "payable",
      "type": "constructor",
      "payable": true
    },
    {
      "anonymous": false,
      "inputs": [
        {
          "indexed": false,
          "internalType": "string",
          "name": "s",
          "type": "string"
        }
      ],
      "name": "Verified",
      "type": "event"
    },
    {
      "anonymous": false,
      "inputs": [
        {
          "indexed": false,
          "internalType": "address",
          "name": "receiver",
          "type": "address"
        },
        {
          "indexed": false,
          "internalType": "uint256",
          "name": "amount",
          "type": "uint256"
        }
      ],
      "name": "logWithdrawal",
      "type": "event"
    },
    {
      "inputs": [
        {
          "internalType": "uint256",
          "name": "",
          "type": "uint256"
        }
      ],
      "name": "candidateList",
      "outputs": [
        {
          "internalType": "bytes32",
          "name": "",
          "type": "bytes32"
        }
      ],
      "stateMutability": "view",
      "type": "function",
      "constant": true
    },
    {
      "inputs": [],
      "name": "merkleRoot",
      "outputs": [
        {
          "internalType": "bytes32",
          "name": "",
          "type": "bytes32"
        }
      ],
      "stateMutability": "view",
      "type": "function",
      "constant": true
    },
    {
      "inputs": [
        {
          "internalType": "uint256[2]",
          "name": "a",
          "type": "uint256[2]"
        },
        {
          "internalType": "uint256[2][2]",
          "name": "b",
          "type": "uint256[2][2]"
        },
        {
          "internalType": "uint256[2]",
          "name": "c",
          "type": "uint256[2]"
        },
        {
          "internalType": "uint256[1]",
          "name": "input",
          "type": "uint256[1]"
        }
      ],
      "name": "verifyTx",
      "outputs": [
        {
          "internalType": "bool",
          "name": "r",
          "type": "bool"
        }
      ],
      "stateMutability": "nonpayable",
      "type": "function"
    },
    {
      "inputs": [
        {
          "internalType": "uint256",
          "name": "",
          "type": "uint256"
        }
      ],
      "name": "voters",
      "outputs": [
        {
          "internalType": "bytes32",
          "name": "",
          "type": "bytes32"
        }
      ],
      "stateMutability": "view",
      "type": "function",
      "constant": true
    },
    {
      "inputs": [
        {
          "internalType": "bytes32",
          "name": "",
          "type": "bytes32"
        }
      ],
      "name": "votesReceived",
      "outputs": [
        {
          "internalType": "uint256",
          "name": "",
          "type": "uint256"
        }
      ],
      "stateMutability": "view",
      "type": "function",
      "constant": true
    },
    {
      "inputs": [],
      "name": "getCandidates",
      "outputs": [
        {
          "internalType": "bytes32[]",
          "name": "",
          "type": "bytes32[]"
        }
      ],
      "stateMutability": "view",
      "type": "function",
      "constant": true
    },
    {
      "inputs": [],
      "name": "getVoters",
      "outputs": [
        {
          "internalType": "bytes32[]",
          "name": "",
          "type": "bytes32[]"
        }
      ],
      "stateMutability": "view",
      "type": "function",
      "constant": true
    },
    {
      "inputs": [],
      "name": "getRoot",
      "outputs": [
        {
          "internalType": "bytes32",
          "name": "",
          "type": "bytes32"
        }
      ],
      "stateMutability": "view",
      "type": "function",
      "constant": true
    },
    {
      "inputs": [],
      "name": "getBalance",
      "outputs": [
        {
          "internalType": "uint256",
          "name": "",
          "type": "uint256"
        }
      ],
      "stateMutability": "view",
      "type": "function",
      "constant": true
    },
    {
      "inputs": [
        {
          "internalType": "bytes32",
          "name": "candidate",
          "type": "bytes32"
        }
      ],
      "name": "totalVotesFor",
      "outputs": [
        {
          "internalType": "uint256",
          "name": "",
          "type": "uint256"
        }
      ],
      "stateMutability": "view",
      "type": "function",
      "constant": true
    },
    {
      "inputs": [
        {
          "internalType": "bytes32",
          "name": "candidate",
          "type": "bytes32"
        },
        {
          "internalType": "uint256[2]",
          "name": "a",
          "type": "uint256[2]"
        },
        {
          "internalType": "uint256[2][2]",
          "name": "b",
          "type": "uint256[2][2]"
        },
        {
          "internalType": "uint256[2]",
          "name": "c",
          "type": "uint256[2]"
        },
        {
          "internalType": "uint256[1]",
          "name": "input",
          "type": "uint256[1]"
        }
      ],
      "name": "voteForCandidate",
      "outputs": [
        {
          "internalType": "bool",
          "name": "",
          "type": "bool"
        }
      ],
      "stateMutability": "payable",
      "type": "function",
      "payable": true
    },
    {
      "inputs": [
        {
          "internalType": "bytes32",
          "name": "candidate",
          "type": "bytes32"
        }
      ],
      "name": "validCandidate",
      "outputs": [
        {
          "internalType": "bool",
          "name": "",
          "type": "bool"
        }
      ],
      "stateMutability": "view",
      "type": "function",
      "constant": true
    }
  ],
  "bytecode": "0x60806040526040516200219e3803806200219e833981810160405260808110156200002957600080fd5b810190808051906020019092919080519060200190929190805160405193929190846401000000008211156200005e57600080fd5b838201915060208201858111156200007557600080fd5b82518660208202830111640100000000821117156200009357600080fd5b8083526020830192505050908051906020019060200280838360005b83811015620000cc578082015181840152602081019050620000af565b5050505090500160405260200180516040519392919084640100000000821115620000f657600080fd5b838201915060208201858111156200010d57600080fd5b82518660208202830111640100000000821117156200012b57600080fd5b8083526020830192505050908051906020019060200280838360005b838110156200016457808201518184015260208101905062000147565b5050505090500160405250505082600181905550816003908051906020019062000190929190620002a6565b508060029080519060200190620001a9929190620002a6565b508373ffffffffffffffffffffffffffffffffffffffff1663aa67735433306040518363ffffffff1660e01b8152600401808373ffffffffffffffffffffffffffffffffffffffff1673ffffffffffffffffffffffffffffffffffffffff1681526020018273ffffffffffffffffffffffffffffffffffffffff1673ffffffffffffffffffffffffffffffffffffffff16815260200192505050602060405180830381600087803b1580156200025e57600080fd5b505af115801562000273573d6000803e3d6000fd5b505050506040513d60208110156200028a57600080fd5b8101908080519060200190929190505050505050505062000320565b828054828255906000526020600020908101928215620002e5579160200282015b82811115620002e4578251825591602001919060010190620002c7565b5b509050620002f49190620002f8565b5090565b6200031d91905b8082111562000319576000816000905550600101620002ff565b5090565b90565b611e6e80620003306000396000f3fe6080604052600436106100a75760003560e01c80637021939f116100645780637021939f1461023b578063b13c744b1461028a578063cdd72253146102d9578063da58c7d914610345578063dd12931314610394578063eed655f91461051a576100a7565b806306a49fce146100ac57806312065fe0146101185780632eb4a7ab146101435780632f265cf71461016e578063392e6678146101bd5780635ca1e16514610210575b600080fd5b3480156100b857600080fd5b506100c161069d565b6040518080602001828103825283818151815260200191508051906020019060200280838360005b838110156101045780820151818401526020810190506100e9565b505050509050019250505060405180910390f35b34801561012457600080fd5b5061012d6106f5565b6040518082815260200191505060405180910390f35b34801561014f57600080fd5b506101586106fd565b6040518082815260200191505060405180910390f35b34801561017a57600080fd5b506101a76004803603602081101561019157600080fd5b8101908080359060200190929190505050610703565b6040518082815260200191505060405180910390f35b3480156101c957600080fd5b506101f6600480360360208110156101e057600080fd5b810190808035906020019092919050505061079a565b604051808215151515815260200191505060405180910390f35b34801561021c57600080fd5b506102256107f0565b6040518082815260200191505060405180910390f35b34801561024757600080fd5b506102746004803603602081101561025e57600080fd5b81019080803590602001909291905050506107fa565b6040518082815260200191505060405180910390f35b34801561029657600080fd5b506102c3600480360360208110156102ad57600080fd5b8101908080359060200190929190505050610812565b6040518082815260200191505060405180910390f35b3480156102e557600080fd5b506102ee610833565b6040518080602001828103825283818151815260200191508051906020019060200280838360005b83811015610331578082015181840152602081019050610316565b505050509050019250505060405180910390f35b34801561035157600080fd5b5061037e6004803603602081101561036857600080fd5b810190808035906020019092919050505061088b565b6040518082815260200191505060405180910390f35b3480156103a057600080fd5b5061050060048036036101208110156103b857600080fd5b8101908080604001906002806020026040519081016040528092919082600260200280828437600081840152601f19601f82011690508083019250505050505091929192908060800190600280602002604051908101604052809291906000905b8282101561046d578382604002016002806020026040519081016040528092919082600260200280828437600081840152601f19601f82011690508083019250505050505081526020019060010190610419565b50505050919291929080604001906002806020026040519081016040528092919082600260200280828437600081840152601f19601f820116905080830192505050505050919291929080602001906001806020026040519081016040528092919082600160200280828437600081840152601f19601f82011690508083019250505050505091929192905050506108ac565b604051808215151515815260200191505060405180910390f35b610683600480360361014081101561053157600080fd5b810190808035906020019092919080604001906002806020026040519081016040528092919082600260200280828437600081840152601f19601f82011690508083019250505050505091929192908060800190600280602002604051908101604052809291906000905b828210156105f0578382604002016002806020026040519081016040528092919082600260200280828437600081840152601f19601f8201169050808301925050505050508152602001906001019061059c565b50505050919291929080604001906002806020026040519081016040528092919082600260200280828437600081840152601f19601f820116905080830192505050505050919291929080602001906001806020026040519081016040528092919082600160200280828437600081840152601f19601f8201169050808301925050505050509192919290505050610af3565b604051808215151515815260200191505060405180910390f35b606060028054806020026020016040519081016040528092919081815260200182805480156106eb57602002820191906000526020600020905b8154815260200190600101908083116106d7575b5050505050905090565b600047905090565b60015481565b600061070e8261079a565b610780576040517f08c379a00000000000000000000000000000000000000000000000000000000081526004018080602001828103825260168152602001807f496e76616c69642063616e646964617465206e616d650000000000000000000081525060200191505060405180910390fd5b600080838152602001908152602001600020549050919050565b600080600090505b6002805490508110156107e55782600282815481106107bd57fe5b906000526020600020015414156107d85760019150506107eb565b80806001019150506107a2565b50600090505b919050565b6000600154905090565b60006020528060005260406000206000915090505481565b6002818154811061081f57fe5b906000526020600020016000915090505481565b6060600380548060200260200160405190810160405280929190818152602001828054801561088157602002820191906000526020600020905b81548152602001906001019080831161086d575b5050505050905090565b6003818154811061089857fe5b906000526020600020016000915090505481565b60006108b6611c87565b6040518060400160405280876000600281106108ce57fe5b60200201518152602001876001600281106108e557fe5b60200201518152508160000181905250604051806040016040528060405180604001604052808860006002811061091857fe5b602002015160006002811061092957fe5b602002015181526020018860006002811061094057fe5b602002015160016002811061095157fe5b6020020151815250815260200160405180604001604052808860016002811061097657fe5b602002015160006002811061098757fe5b602002015181526020018860016002811061099e57fe5b60200201516001600281106109af57fe5b602002015181525081525081602001819052506040518060400160405280856000600281106109da57fe5b60200201518152602001856001600281106109f157fe5b6020020151815250816040018190525060606001604051908082528060200260200182016040528015610a335781602001602082028038833980820191505090505b50905060008090505b6001811015610a7b57848160018110610a5157fe5b6020020151828281518110610a6257fe5b6020026020010181815250508080600101915050610a3c565b506000610a888284610c84565b1415610ae4577f3f3cfdb26fb5f9f1786ab4f1a1f9cd4c0b5e726cbdfc26e495261731aad44e39604051808060200182810382526022815260200180611e176022913960400191505060405180910390a1600192505050610aeb565b6000925050505b949350505050565b6000610b01858585856108ac565b610b73576040517f08c379a00000000000000000000000000000000000000000000000000000000081526004018080602001828103825260158152602001807f496e636f72726563742070726f6f6620676976656e000000000000000000000081525060200191505060405180910390fd5b6001600460003373ffffffffffffffffffffffffffffffffffffffff1673ffffffffffffffffffffffffffffffffffffffff16815260200190815260200160002060006101000a81548160ff021916908315150217905550610bd48661079a565b610c46576040517f08c379a00000000000000000000000000000000000000000000000000000000081526004018080602001828103825260168152602001807f496e76616c69642063616e646964617465206e616d650000000000000000000081525060200191505060405180910390fd5b600160008088815260200190815260200160002060008282540192505081905550610c763364e8d4a51000610e34565b506001905095945050505050565b6000807f30644e72e131a029b85045b68181585d2833e84879b9709143e1f593f00000019050610cb2611cba565b610cba610fb9565b90508060a0015151600186510114610cd157600080fd5b610cd9611d0e565b6040518060400160405280600081526020016000815250905060008090505b8651811015610d6f5783878281518110610d0e57fe5b602002602001015110610d2057600080fd5b610d6082610d5b8560a001516001850181518110610d3a57fe5b60200260200101518a8581518110610d4e57fe5b60200260200101516113f3565b611487565b91508080600101915050610cf8565b50610d92818360a00151600081518110610d8557fe5b6020026020010151611487565b9050610de28260200151836040015183856080015189604001518760000151610dcb610dc68d600001518b60200151611487565b61153a565b610ddd8d602001518b604001516115d4565b6117d2565b610df25760019350505050610e2e565b610e1685600001518360800151610e0c856060015161153a565b8860200151611936565b610e265760029350505050610e2e565b600093505050505b92915050565b60008147108015610e96575060011515600460008573ffffffffffffffffffffffffffffffffffffffff1673ffffffffffffffffffffffffffffffffffffffff16815260200190815260200160002060009054906101000a900460ff16151514155b15610ea45760009050610fb3565b6000600460008573ffffffffffffffffffffffffffffffffffffffff1673ffffffffffffffffffffffffffffffffffffffff16815260200190815260200160002060006101000a81548160ff0219169083151502179055508273ffffffffffffffffffffffffffffffffffffffff166108fc839081150290604051600060405180830381858888f19350505050158015610f42573d6000803e3d6000fd5b507f6202b9210eddfec514dee7725e74c49be931243a5fda51c01552a5fb07e893dd8383604051808373ffffffffffffffffffffffffffffffffffffffff1673ffffffffffffffffffffffffffffffffffffffff1681526020018281526020019250505060405180910390a1600190505b92915050565b610fc1611cba565b604051806040016040528060405180604001604052807f236eb04095c8d78760f4bc300e854d1e4c75f59e9f50c758f5adb8dcb139b59c81526020017f1b642ebfc582a6ef3387e5c2e142793bb617c80f4767c6e316120ac0dd1dfd93815250815260200160405180604001604052807f1424d47ecddc2545f52fdea519fec03ded183b61777666bd97c53cb02d1850c581526020017f15feb27df3c7134c99a1641cf45bb25c0cee0a84d0774de1302f9ac6322b2956815250815250816000018190525060405180604001604052807f263bd730bd9cb46f5eeb1450a2796c0e1386e938848bdcab703c612a4eacdb0081526020017f305df95ff9c5211ddfea635e32a08aa482b5ff7cf60a3533deaa116393fe05798152508160200181905250604051806040016040528060405180604001604052807f2d7ccda63c9b6b33584dc3d488d794dc4c2a335890019b565106172a6f0995c881526020017f06b4f6fdcca368915603aa9b027a39d960616ae08498e7f719a485e241c88d33815250815260200160405180604001604052807f1765a9baa2d80e7963ef379901272c80893dd04a7855214d032b5677485e0c0e81526020017f279ed417f9a3431b36210506301180414beb6508a680541a57b411a1992ec0db815250815250816040018190525060405180604001604052807f26d1068b69126d1f25e127a582ea33b6f7e5e0123693c02d0425e2c766f87d8a81526020017f1d80b26e20b1b7011a971d379aa8e9c62883c6eb8398fc7c96842e5ad4ad82308152508160600181905250604051806040016040528060405180604001604052807f141d18ee1dc1333db43085acef8f1ef9e819610c644a302016c131e0d8dc3de581526020017f0be9ab823e72f87351a6abf0bb46b780fd270ab37e7f91177e6d65c315f3b30d815250815260200160405180604001604052807f298776596c52ecf026936922dad6ef6e8c3f8a869c164a75c6a03056ba393ad781526020017f22a615aef27c83fb66f67138a03bc142dd81c018f8291a17174c4725d6a082e78152508152508160800181905250600260405190808252806020026020018201604052801561130557816020015b6112f2611d28565b8152602001906001900390816112ea5790505b508160a0018190525060405180604001604052807f2d6d5ab97d6a7ad61ecb0f48d0092f8257ceefd0a23315f8ccd39d18ea8a20ec81526020017f0abe8a242e07f4f9bd58afd0881796c066f8e55ceb0c61658531b49b9019bb0e8152508160a0015160008151811061137457fe5b602002602001018190525060405180604001604052807f0116e082cfe1c693c309e97be1d2d613d02bae73b748e7e79bcf2dcebdcbb9c981526020017f2ee470d8d4d6fdc53de90fb3de6461f355a153879fe4dd4648a5d1209f6fd9248152508160a001516001815181106113e557fe5b602002602001018190525090565b6113fb611d0e565b611403611d42565b83600001518160006003811061141557fe5b60200201818152505083602001518160016003811061143057fe5b602002018181525050828160026003811061144757fe5b6020020181815250506000606083608084600060076107d05a03f19050806000811461147257611474565bfe5b508061147f57600080fd5b505092915050565b61148f611d0e565b611497611d64565b8360000151816000600481106114a957fe5b6020020181815250508360200151816001600481106114c457fe5b6020020181815250508260000151816002600481106114df57fe5b6020020181815250508260200151816003600481106114fa57fe5b602002018181525050600060608360c084600060066107d05a03f19050806000811461152557611527565bfe5b508061153257600080fd5b505092915050565b611542611d0e565b60007f30644e72e131a029b85045b68181585d97816a916871ca8d3c208c16d87cfd4790506000836000015114801561157f575060008360200151145b156115a35760405180604001604052806000815260200160008152509150506115cf565b604051806040016040528084600001518152602001828560200151816115c557fe5b0683038152509150505b919050565b6115dc611d86565b73__BN256G2_______________________________6361a931ec846000015160016002811061160757fe5b6020020151856000015160006002811061161d57fe5b6020020151866020015160016002811061163357fe5b6020020151876020015160006002811061164957fe5b6020020151876000015160016002811061165f57fe5b6020020151886000015160006002811061167557fe5b6020020151896020015160016002811061168b57fe5b60200201518a602001516000600281106116a157fe5b60200201516040518963ffffffff1660e01b8152600401808981526020018881526020018781526020018681526020018581526020018481526020018381526020018281526020019850505050505050505060806040518083038186803b15801561170b57600080fd5b505af415801561171f573d6000803e3d6000fd5b505050506040513d608081101561173557600080fd5b8101908080519060200190929190805190602001909291908051906020019092919080519060200190929190505050846000015160016002811061177557fe5b60200201856000015160006002811061178a57fe5b60200201866020015160016002811061179f57fe5b6020020187602001516000600281106117b457fe5b60200201848152508481525084815250848152505050505092915050565b60006060600460405190808252806020026020018201604052801561181157816020015b6117fe611d28565b8152602001906001900390816117f65790505b5090506060600460405190808252806020026020018201604052801561185157816020015b61183e611dac565b8152602001906001900390816118365790505b5090508a8260008151811061186257fe5b6020026020010181905250888260018151811061187b57fe5b6020026020010181905250868260028151811061189457fe5b602002602001018190525084826003815181106118ad57fe5b602002602001018190525089816000815181106118c657fe5b602002602001018190525087816001815181106118df57fe5b602002602001018190525085816002815181106118f857fe5b6020026020010181905250838160038151811061191157fe5b60200260200101819052506119268282611a32565b9250505098975050505050505050565b60006060600260405190808252806020026020018201604052801561197557816020015b611962611d28565b81526020019060019003908161195a5790505b509050606060026040519080825280602002602001820160405280156119b557816020015b6119a2611dac565b81526020019060019003908161199a5790505b50905086826000815181106119c657fe5b602002602001018190525084826001815181106119df57fe5b602002602001018190525085816000815181106119f857fe5b60200260200101819052508381600181518110611a1157fe5b6020026020010181905250611a268282611a32565b92505050949350505050565b60008151835114611a4257600080fd5b6000835190506000600682029050606081604051908082528060200260200182016040528015611a815781602001602082028038833980820191505090505b50905060008090505b83811015611c2757868181518110611a9e57fe5b602002602001015160000151826000600684020181518110611abc57fe5b602002602001018181525050868181518110611ad457fe5b602002602001015160200151826001600684020181518110611af257fe5b602002602001018181525050858181518110611b0a57fe5b602002602001015160000151600060028110611b2257fe5b6020020151826002600684020181518110611b3957fe5b602002602001018181525050858181518110611b5157fe5b602002602001015160000151600160028110611b6957fe5b6020020151826003600684020181518110611b8057fe5b602002602001018181525050858181518110611b9857fe5b602002602001015160200151600060028110611bb057fe5b6020020151826004600684020181518110611bc757fe5b602002602001018181525050858181518110611bdf57fe5b602002602001015160200151600160028110611bf757fe5b6020020151826005600684020181518110611c0e57fe5b6020026020010181815250508080600101915050611a8a565b50611c30611dd2565b60006020826020860260208601600060086107d05a03f190508060008114611c5757611c59565bfe5b5080611c6457600080fd5b600082600060018110611c7357fe5b602002015114159550505050505092915050565b6040518060600160405280611c9a611d28565b8152602001611ca7611dac565b8152602001611cb4611d28565b81525090565b6040518060c00160405280611ccd611dac565b8152602001611cda611d28565b8152602001611ce7611dac565b8152602001611cf4611d28565b8152602001611d01611dac565b8152602001606081525090565b604051806040016040528060008152602001600081525090565b604051806040016040528060008152602001600081525090565b6040518060600160405280600390602082028038833980820191505090505090565b6040518060800160405280600490602082028038833980820191505090505090565b6040518060400160405280611d99611df4565b8152602001611da6611df4565b81525090565b6040518060400160405280611dbf611df4565b8152602001611dcc611df4565b81525090565b6040518060200160405280600190602082028038833980820191505090505090565b604051806040016040528060029060208202803883398082019150509050509056fe5472616e73616374696f6e207375636365737366756c6c792076657269666965642ea26469706673582212202f3f72012d1e2d1c7e5528fb5ff64b14aee5bf7176f4f8e20bbb49d6e0789d0864736f6c63430006010033",
  "source": "pragma solidity ^0.6.1;\n\nimport './verifier.sol';\nimport './ElectionRegistry.sol';\n\n\ncontract Voting is Verifier {\n  /* mapping field below is equivalent to an associative array or hash.\n  The key of the mapping is candidate name stored as type bytes32 and value is\n  an unsigned integer to store the vote count\n  */\n\n  mapping (bytes32 => uint256) public votesReceived;\n\n  /* Solidity doesn't let you pass in an array of strings in the constructor (yet).\n  We will use an array of bytes32 instead to store the list of candidates\n  */\n\n  bytes32 public merkleRoot;\n  bytes32[] public candidateList;\n  bytes32[] public voters;\n\n  // withdraw tocken variables\n  mapping (address => bool) votingRecord;\n  event logWithdrawal(address receiver, uint amount);\n\n  constructor(\n    address registryAdd,\n    bytes32 root,\n    bytes32[] memory registry,\n    bytes32[] memory candidateNames\n  ) public payable {\n    merkleRoot = root;\n    voters = registry;\n    candidateList = candidateNames;\n    ElectionRegistry(registryAdd).register(msg.sender, address(this));\n  }\n\n  function getCandidates() public view returns (bytes32[] memory) {\n    return candidateList;\n  }\n\n  function getVoters() public view returns (bytes32[] memory) {\n    return voters;\n  }\n\n  function getRoot() public view returns (bytes32) {\n    return merkleRoot;\n  }\n\n  function getBalance() public view returns (uint) {\n    return address(this).balance;\n  }\n\n  // This function returns the total votes a candidate has received so far\n  function totalVotesFor(bytes32 candidate) public view returns (uint256) {\n    require(validCandidate(candidate), \"Invalid candidate name\");\n    return votesReceived[candidate];\n  }\n\n  // This function increments the vote count for the specified candidate. This\n  // is equivalent to casting a vote\n  function voteForCandidate(\n    bytes32 candidate,\n    uint[2] memory a,\n    uint[2][2] memory b,\n    uint[2] memory c,\n    uint[1] memory input\n  ) public payable returns (bool) {\n    require(verifyTx(a, b, c, input), \"Incorrect proof given\");\n    votingRecord[msg.sender] = true;\n    require(validCandidate(candidate), \"Invalid candidate name\");\n    votesReceived[candidate] += 1;\n    withdraw(msg.sender, 1 szabo);\n    return true;\n  }\n\n  function withdraw(address payable voter, uint amount) internal returns (bool success) {\n    if (address(this).balance < amount && votingRecord[voter] != true) return false;\n    votingRecord[voter] = false;\n    voter.transfer(amount);\n    emit logWithdrawal(voter, amount);\n    return true;\n  }\n\n  function validCandidate(bytes32 candidate) public view returns (bool) {\n    for(uint i = 0; i < candidateList.length; i++) {\n      if (candidateList[i] == candidate) {\n        return true;\n      }\n    }\n    return false;\n  }\n\n}",
  "sourcePath": "/Users/alvaro/uni/Bachelor Arbeit/Ethereum-Anonymous-Voting/contracts/Voting.sol",
  "compiler": {
    "name": "solc",
    "version": "0.6.1+commit.e6f7d5a4.Emscripten.clang"
  },
  "schemaVersion": "3.0.23",
  "updatedAt": "2020-03-10T17:52:44.953Z",
  "networkType": "ethereum",
  "devdoc": {
    "methods": {}
  },
  "userdoc": {
    "methods": {}
  }
}