{
  "contractName": "Voting",
  "abi": [
    {
      "constant": false,
      "inputs": [
        {
          "name": "a",
          "type": "uint256[2]"
        },
        {
          "name": "b",
          "type": "uint256[2][2]"
        },
        {
          "name": "c",
          "type": "uint256[2]"
        },
        {
          "name": "input",
          "type": "uint256[3]"
        }
      ],
      "name": "verifyTx",
      "outputs": [
        {
          "name": "r",
          "type": "bool"
        }
      ],
      "payable": false,
      "stateMutability": "nonpayable",
      "type": "function"
    },
    {
      "constant": true,
      "inputs": [
        {
          "name": "",
          "type": "bytes32"
        }
      ],
      "name": "votesReceived",
      "outputs": [
        {
          "name": "",
          "type": "uint256"
        }
      ],
      "payable": false,
      "stateMutability": "view",
      "type": "function"
    },
    {
      "constant": true,
      "inputs": [
        {
          "name": "",
          "type": "uint256"
        }
      ],
      "name": "candidateList",
      "outputs": [
        {
          "name": "",
          "type": "bytes32"
        }
      ],
      "payable": false,
      "stateMutability": "view",
      "type": "function"
    },
    {
      "inputs": [
        {
          "name": "candidateNames",
          "type": "bytes32[]"
        }
      ],
      "payable": false,
      "stateMutability": "nonpayable",
      "type": "constructor"
    },
    {
      "anonymous": false,
      "inputs": [
        {
          "indexed": false,
          "name": "s",
          "type": "string"
        }
      ],
      "name": "Verified",
      "type": "event"
    },
    {
      "constant": true,
      "inputs": [
        {
          "name": "candidate",
          "type": "bytes32"
        }
      ],
      "name": "totalVotesFor",
      "outputs": [
        {
          "name": "",
          "type": "uint256"
        }
      ],
      "payable": false,
      "stateMutability": "view",
      "type": "function"
    },
    {
      "constant": false,
      "inputs": [
        {
          "name": "candidate",
          "type": "bytes32"
        },
        {
          "name": "a",
          "type": "uint256[2]"
        },
        {
          "name": "b",
          "type": "uint256[2][2]"
        },
        {
          "name": "c",
          "type": "uint256[2]"
        },
        {
          "name": "input",
          "type": "uint256[3]"
        }
      ],
      "name": "voteForCandidate",
      "outputs": [],
      "payable": false,
      "stateMutability": "nonpayable",
      "type": "function"
    },
    {
      "constant": true,
      "inputs": [
        {
          "name": "candidate",
          "type": "bytes32"
        }
      ],
      "name": "validCandidate",
      "outputs": [
        {
          "name": "",
          "type": "bool"
        }
      ],
      "payable": false,
      "stateMutability": "view",
      "type": "function"
    }
  ],
  "bytecode": "0x60806040523480156200001157600080fd5b5060405162001a1f38038062001a1f833981018060405260208110156200003757600080fd5b8101908080516401000000008111156200005057600080fd5b828101905060208101848111156200006757600080fd5b81518560208202830111640100000000821117156200008557600080fd5b50509291905050508060019080519060200190620000a5929190620000ad565b505062000127565b828054828255906000526020600020908101928215620000ec579160200282015b82811115620000eb578251825591602001919060010190620000ce565b5b509050620000fb9190620000ff565b5090565b6200012491905b808211156200012057600081600090555060010162000106565b5090565b90565b6118e880620001376000396000f3fe608060405234801561001057600080fd5b50600436106100625760003560e01c80632f265cf714610067578063392e6678146100a9578063415df87c146100ef578063613d46e3146102685780637021939f146103d3578063b13c744b14610415575b600080fd5b6100936004803603602081101561007d57600080fd5b8101908080359060200190929190505050610457565b6040518082815260200191505060405180910390f35b6100d5600480360360208110156100bf57600080fd5b8101908080359060200190929190505050610485565b604051808215151515815260200191505060405180910390f35b61024e600480360361016081101561010657600080fd5b8101908080604001906002806020026040519081016040528092919082600260200280828437600081840152601f19601f82011690508083019250505050505091929192908060800190600280602002604051908101604052809291906000905b828210156101bb578382604002016002806020026040519081016040528092919082600260200280828437600081840152601f19601f82011690508083019250505050505081526020019060010190610167565b50505050919291929080604001906002806020026040519081016040528092919082600260200280828437600081840152601f19601f820116905080830192505050505050919291929080606001906003806020026040519081016040528092919082600360200280828437600081840152601f19601f82011690508083019250505050505091929192905050506104db565b604051808215151515815260200191505060405180910390f35b6103d1600480360361018081101561027f57600080fd5b810190808035906020019092919080604001906002806020026040519081016040528092919082600260200280828437600081840152601f19601f82011690508083019250505050505091929192908060800190600280602002604051908101604052809291906000905b8282101561033e578382604002016002806020026040519081016040528092919082600260200280828437600081840152601f19601f820116905080830192505050505050815260200190600101906102ea565b50505050919291929080604001906002806020026040519081016040528092919082600260200280828437600081840152601f19601f820116905080830192505050505050919291929080606001906003806020026040519081016040528092919082600360200280828437600081840152601f19601f8201169050808301925050505050509192919290505050610722565b005b6103ff600480360360208110156103e957600080fd5b8101908080359060200190929190505050610771565b6040518082815260200191505060405180910390f35b6104416004803603602081101561042b57600080fd5b8101908080359060200190929190505050610789565b6040518082815260200191505060405180910390f35b600061046282610485565b61046b57600080fd5b600080838152602001908152602001600020549050919050565b600080600090505b6001805490508110156104d05782600182815481106104a857fe5b906000526020600020015414156104c35760019150506104d6565b808060010191505061048d565b50600090505b919050565b60006104e5611709565b6040518060400160405280876000600281106104fd57fe5b602002015181526020018760016002811061051457fe5b60200201518152508160000181905250604051806040016040528060405180604001604052808860006002811061054757fe5b602002015160006002811061055857fe5b602002015181526020018860006002811061056f57fe5b602002015160016002811061058057fe5b602002015181525081526020016040518060400160405280886001600281106105a557fe5b60200201516000600281106105b657fe5b60200201518152602001886001600281106105cd57fe5b60200201516001600281106105de57fe5b6020020151815250815250816020018190525060405180604001604052808560006002811061060957fe5b602002015181526020018560016002811061062057fe5b60200201518152508160400181905250606060036040519080825280602002602001820160405280156106625781602001602082028038833980820191505090505b50905060008090505b60038110156106aa5784816003811061068057fe5b602002015182828151811061069157fe5b602002602001018181525050808060010191505061066b565b5060006106b782846107aa565b1415610713577f3f3cfdb26fb5f9f1786ab4f1a1f9cd4c0b5e726cbdfc26e495261731aad44e3960405180806020018281038252602281526020018061189b6022913960400191505060405180910390a160019250505061071a565b6000925050505b949350505050565b61072b85610485565b61073457600080fd5b610740848484846104db565b61074957600080fd5b6001600080878152602001908152602001600020600082825401925050819055505050505050565b60006020528060005260406000206000915090505481565b6001818154811061079657fe5b906000526020600020016000915090505481565b6000807f30644e72e131a029b85045b68181585d2833e84879b9709143e1f593f000000190506107d861173d565b6107e061095a565b90508060a00151516001865101146107f757600080fd5b6107ff611792565b6040518060400160405280600081526020016000815250905060008090505b8651811015610895578387828151811061083457fe5b60200260200101511061084657600080fd5b610886826108818560a00151600185018151811061086057fe5b60200260200101518a858151811061087457fe5b6020026020010151610e75565b610f09565b9150808060010191505061081e565b506108b8818360a001516000815181106108ab57fe5b6020026020010151610f09565b905061090882602001518360400151838560800151896040015187600001516108f16108ec8d600001518b60200151610f09565b610fbc565b6109038d602001518b60400151611056565b611254565b6109185760019350505050610954565b61093c856000015183608001516109328560600151610fbc565b88602001516113b8565b61094c5760029350505050610954565b600093505050505b92915050565b61096261173d565b604051806040016040528060405180604001604052807f0fea20ba467638092edaab455502aaad077b39044a43db413807e7874e4a2fa181526020017f08e25fe90a1ebea197a014d93d49b4a9e8eb172bdce06ed370eb39590526cf73815250815260200160405180604001604052807f2b4459ce2d1b3b36e922d0b8c647bb1ff12422f1702b09284ed8346ab2ef673181526020017f15bd0730dbc7a0482f02af7f8cd6511c0833753459cdd149fa94152dc70feaea815250815250816000018190525060405180604001604052807f101302ce45f94c55a6aec1bb6bd7f2d7db7c7694c3280ec8918fe1e01d03455881526020017f2eeb1d6774a27eb23ae0a0b3318dc77a33192945b38ac2e3132dc2bfe11f5b568152508160200181905250604051806040016040528060405180604001604052807e2cbb39ce893a8a0904e34b673acb9c2c0e3cff34a51d2370d88f833364d9bd81526020017f1be111b982bee17f41f5aec9399a8750ddc18807ce83384c2b251d5361c0312c815250815260200160405180604001604052807f124a4eb8e6caa2ec92e4e6bd74de41f4fbf138b1f3323294f63d3c97028f624381526020017f2f2b9867c6f514b879bb43296ce63e4e443a4acaa089a36023ee0e5f8afd8454815250815250816040018190525060405180604001604052807f279df5b20e06e097022f58a77c51b028026628f77ec8213b212a4125485c6a6681526020017f0dff62916f69d766e7f19950da686d2fba43de1d024344f2381f238534ba4fb18152508160600181905250604051806040016040528060405180604001604052807f086387566b565807f26743c7f2ebb3ba2d8659f136f977fa8dee25a995ab8b9081526020017f10f2a3ba9e02edf2e3c63c8663ddddadbc0b8d8540f4b05787bdeb81afa56041815250815260200160405180604001604052807f21843e22094d9b30ec6ae0dc7cbf6c75f0d3f59f878307425f32bb22ae90a17381526020017f1e35c7a9d892080c1b798ca5450f82aad3d9f1041e108e9e512aff20d7cf5f3381525081525081608001819052506004604051908082528060200260200182016040528015610ca557816020015b610c926117ac565b815260200190600190039081610c8a5790505b508160a0018190525060405180604001604052807f2e0e968a8cd5bcae2afa5ced6b9ef88f1af7d46eed8683f6d6d2889eef29b86a81526020017f26d645d1cd29e5c224d852be8ba7ff60dbeab6bc33e91274fb6c4a63a19c07fb8152508160a00151600081518110610d1457fe5b602002602001018190525060405180604001604052807f2ed52e461ee405b80d8152844233bcbd93709426c38658a9c07543fcabd2380d81526020017f2bc3e91d617a09fdc66f9b66caab2479bae2b44794d72b8b2c26e41e87ccc0c48152508160a00151600181518110610d8557fe5b602002602001018190525060405180604001604052807f150d55fee766c560f430ddabbf774a7f4efef3e70f33c882dafb617725d6475781526020017f16a5dda1f842d5b7741a94cf700a6305cf2463e2f8fd79850e4071b6f1b21e2b8152508160a00151600281518110610df657fe5b602002602001018190525060405180604001604052807f175eedcbfe47eff10fb2324af41b66fb3bcbb00812180ba013107b9363d6f58281526020017f077c0d3488124a12aaf3ec65d7e3a78a34d27b48b34d1fe03da1b3784328b3cd8152508160a00151600381518110610e6757fe5b602002602001018190525090565b610e7d611792565b610e856117c6565b836000015181600060038110610e9757fe5b602002018181525050836020015181600160038110610eb257fe5b6020020181815250508281600260038110610ec957fe5b6020020181815250506000606083608084600060076107d05a03f190508060008114610ef457610ef6565bfe5b5080610f0157600080fd5b505092915050565b610f11611792565b610f196117e8565b836000015181600060048110610f2b57fe5b602002018181525050836020015181600160048110610f4657fe5b602002018181525050826000015181600260048110610f6157fe5b602002018181525050826020015181600360048110610f7c57fe5b602002018181525050600060608360c084600060066107d05a03f190508060008114610fa757610fa9565bfe5b5080610fb457600080fd5b505092915050565b610fc4611792565b60007f30644e72e131a029b85045b68181585d97816a916871ca8d3c208c16d87cfd47905060008360000151148015611001575060008360200151145b15611025576040518060400160405280600081526020016000815250915050611051565b6040518060400160405280846000015181526020018285602001518161104757fe5b0683038152509150505b919050565b61105e61180a565b73__BN256G2_______________________________6361a931ec846000015160016002811061108957fe5b6020020151856000015160006002811061109f57fe5b602002015186602001516001600281106110b557fe5b602002015187602001516000600281106110cb57fe5b602002015187600001516001600281106110e157fe5b602002015188600001516000600281106110f757fe5b6020020151896020015160016002811061110d57fe5b60200201518a6020015160006002811061112357fe5b60200201516040518963ffffffff1660e01b8152600401808981526020018881526020018781526020018681526020018581526020018481526020018381526020018281526020019850505050505050505060806040518083038186803b15801561118d57600080fd5b505af41580156111a1573d6000803e3d6000fd5b505050506040513d60808110156111b757600080fd5b810190808051906020019092919080519060200190929190805190602001909291908051906020019092919050505084600001516001600281106111f757fe5b60200201856000015160006002811061120c57fe5b60200201866020015160016002811061122157fe5b60200201876020015160006002811061123657fe5b60200201848152508481525084815250848152505050505092915050565b60006060600460405190808252806020026020018201604052801561129357816020015b6112806117ac565b8152602001906001900390816112785790505b509050606060046040519080825280602002602001820160405280156112d357816020015b6112c0611830565b8152602001906001900390816112b85790505b5090508a826000815181106112e457fe5b602002602001018190525088826001815181106112fd57fe5b6020026020010181905250868260028151811061131657fe5b6020026020010181905250848260038151811061132f57fe5b6020026020010181905250898160008151811061134857fe5b6020026020010181905250878160018151811061136157fe5b6020026020010181905250858160028151811061137a57fe5b6020026020010181905250838160038151811061139357fe5b60200260200101819052506113a882826114b4565b9250505098975050505050505050565b6000606060026040519080825280602002602001820160405280156113f757816020015b6113e46117ac565b8152602001906001900390816113dc5790505b5090506060600260405190808252806020026020018201604052801561143757816020015b611424611830565b81526020019060019003908161141c5790505b509050868260008151811061144857fe5b6020026020010181905250848260018151811061146157fe5b6020026020010181905250858160008151811061147a57fe5b6020026020010181905250838160018151811061149357fe5b60200260200101819052506114a882826114b4565b92505050949350505050565b600081518351146114c457600080fd5b60008351905060006006820290506060816040519080825280602002602001820160405280156115035781602001602082028038833980820191505090505b50905060008090505b838110156116a95786818151811061152057fe5b60200260200101516000015182600060068402018151811061153e57fe5b60200260200101818152505086818151811061155657fe5b60200260200101516020015182600160068402018151811061157457fe5b60200260200101818152505085818151811061158c57fe5b6020026020010151600001516000600281106115a457fe5b60200201518260026006840201815181106115bb57fe5b6020026020010181815250508581815181106115d357fe5b6020026020010151600001516001600281106115eb57fe5b602002015182600360068402018151811061160257fe5b60200260200101818152505085818151811061161a57fe5b60200260200101516020015160006002811061163257fe5b602002015182600460068402018151811061164957fe5b60200260200101818152505085818151811061166157fe5b60200260200101516020015160016002811061167957fe5b602002015182600560068402018151811061169057fe5b602002602001018181525050808060010191505061150c565b506116b2611856565b60006020826020860260208601600060086107d05a03f1905080600081146116d9576116db565bfe5b50806116e657600080fd5b6000826000600181106116f557fe5b602002015114159550505050505092915050565b60405180610100016040528061171d6117ac565b815260200161172a611830565b81526020016117376117ac565b81525090565b604051806102200160405280611751611830565b815260200161175e6117ac565b815260200161176b611830565b81526020016117786117ac565b8152602001611785611830565b8152602001606081525090565b604051806040016040528060008152602001600081525090565b604051806040016040528060008152602001600081525090565b6040518060600160405280600390602082028038833980820191505090505090565b6040518060800160405280600490602082028038833980820191505090505090565b604051806080016040528061181d611878565b815260200161182a611878565b81525090565b6040518060800160405280611843611878565b8152602001611850611878565b81525090565b6040518060200160405280600190602082028038833980820191505090505090565b604051806040016040528060029060208202803883398082019150509050509056fe5472616e73616374696f6e207375636365737366756c6c792076657269666965642ea165627a7a7230582098867b59da0dc73540a1a846c24e5f7d72869b1310c38fd5d354e1dd3792b6b00029",
  "source": "pragma solidity >=0.4.0 <0.6.0;\n// We have to specify what version of compiler this code will compile with\n\nimport './verifier.sol';\n\ncontract Voting is Verifier {\n  /* mapping field below is equivalent to an associative array or hash.\n  The key of the mapping is candidate name stored as type bytes32 and value is\n  an unsigned integer to store the vote count\n  */\n  \n  mapping (bytes32 => uint256) public votesReceived;\n  \n  /* Solidity doesn't let you pass in an array of strings in the constructor (yet).\n  We will use an array of bytes32 instead to store the list of candidates\n  */\n  \n  bytes32[] public candidateList;\n\n  /* This is the constructor which will be called once when you\n  deploy the contract to the blockchain. When we deploy the contract,\n  we will pass an array of candidates who will be contesting in the election\n  */\n  constructor(bytes32[] memory candidateNames) public {\n    candidateList = candidateNames;\n  }\n\n  // This function returns the total votes a candidate has received so far\n  function totalVotesFor(bytes32 candidate) view public returns (uint256) {\n    require(validCandidate(candidate));\n    return votesReceived[candidate];\n  }\n\n  // This function increments the vote count for the specified candidate. This\n  // is equivalent to casting a vote\n  function voteForCandidate(\n    bytes32 candidate,\n    uint[2] memory a,\n    uint[2][2] memory b,\n    uint[2] memory c,\n    uint[3] memory input\n  ) public {\n    require(validCandidate(candidate));\n    require(verifyTx(a, b, c, input));\n    votesReceived[candidate] += 1;\n  }\n\n  function validCandidate(bytes32 candidate) view public returns (bool) {\n    for(uint i = 0; i < candidateList.length; i++) {\n      if (candidateList[i] == candidate) {\n        return true;\n      }\n    }\n    return false;\n  }\n}",
  "sourcePath": "/Users/alvaro/uni/Bachelor Arbeit/Ethereum-Anonymous-Voting/contracts/Voting.sol",
  "compiler": {
    "name": "solc",
    "version": "0.5.8+commit.23d335f2.Emscripten.clang"
  },
  "schemaVersion": "3.0.16",
  "updatedAt": "2020-01-15T22:12:16.415Z",
  "devdoc": {
    "methods": {}
  },
  "userdoc": {
    "methods": {}
  }
}