{
  "contractName": "Voting",
  "abi": [
    {
      "constant": false,
      "inputs": [
        {
          "name": "a",
          "type": "uint256[2]"
        },
        {
          "name": "b",
          "type": "uint256[2][2]"
        },
        {
          "name": "c",
          "type": "uint256[2]"
        },
        {
          "name": "input",
          "type": "uint256[3]"
        }
      ],
      "name": "verifyTx",
      "outputs": [
        {
          "name": "r",
          "type": "bool"
        }
      ],
      "payable": false,
      "stateMutability": "nonpayable",
      "type": "function"
    },
    {
      "constant": true,
      "inputs": [
        {
          "name": "",
          "type": "bytes32"
        }
      ],
      "name": "votesReceived",
      "outputs": [
        {
          "name": "",
          "type": "uint256"
        }
      ],
      "payable": false,
      "stateMutability": "view",
      "type": "function"
    },
    {
      "constant": true,
      "inputs": [
        {
          "name": "",
          "type": "uint256"
        }
      ],
      "name": "candidateList",
      "outputs": [
        {
          "name": "",
          "type": "bytes32"
        }
      ],
      "payable": false,
      "stateMutability": "view",
      "type": "function"
    },
    {
      "inputs": [
        {
          "name": "candidateNames",
          "type": "bytes32[]"
        }
      ],
      "payable": true,
      "stateMutability": "payable",
      "type": "constructor"
    },
    {
      "anonymous": false,
      "inputs": [
        {
          "indexed": false,
          "name": "s",
          "type": "string"
        }
      ],
      "name": "Verified",
      "type": "event"
    },
    {
      "constant": true,
      "inputs": [
        {
          "name": "candidate",
          "type": "bytes32"
        }
      ],
      "name": "totalVotesFor",
      "outputs": [
        {
          "name": "",
          "type": "uint256"
        }
      ],
      "payable": false,
      "stateMutability": "view",
      "type": "function"
    },
    {
      "constant": false,
      "inputs": [
        {
          "name": "candidate",
          "type": "bytes32"
        },
        {
          "name": "a",
          "type": "uint256[2]"
        },
        {
          "name": "b",
          "type": "uint256[2][2]"
        },
        {
          "name": "c",
          "type": "uint256[2]"
        },
        {
          "name": "input",
          "type": "uint256[3]"
        }
      ],
      "name": "voteForCandidate",
      "outputs": [
        {
          "name": "",
          "type": "bool"
        }
      ],
      "payable": false,
      "stateMutability": "nonpayable",
      "type": "function"
    },
    {
      "constant": true,
      "inputs": [
        {
          "name": "candidate",
          "type": "bytes32"
        }
      ],
      "name": "validCandidate",
      "outputs": [
        {
          "name": "",
          "type": "bool"
        }
      ],
      "payable": false,
      "stateMutability": "view",
      "type": "function"
    },
    {
      "constant": true,
      "inputs": [],
      "name": "getBalance",
      "outputs": [
        {
          "name": "",
          "type": "uint256"
        }
      ],
      "payable": false,
      "stateMutability": "view",
      "type": "function"
    }
  ],
  "bytecode": "0x608060405260405162001c0c38038062001c0c833981018060405260208110156200002957600080fd5b8101908080516401000000008111156200004257600080fd5b828101905060208101848111156200005957600080fd5b81518560208202830111640100000000821117156200007757600080fd5b50509291905050508060019080519060200190620000979291906200009f565b505062000119565b828054828255906000526020600020908101928215620000de579160200282015b82811115620000dd578251825591602001919060010190620000c0565b5b509050620000ed9190620000f1565b5090565b6200011691905b8082111562000112576000816000905550600101620000f8565b5090565b90565b611ae380620001296000396000f3fe608060405234801561001057600080fd5b506004361061007d5760003560e01c8063415df87c1161005b578063415df87c14610128578063613d46e3146102a15780637021939f14610424578063b13c744b146104665761007d565b806312065fe0146100825780632f265cf7146100a0578063392e6678146100e2575b600080fd5b61008a6104a8565b6040518082815260200191505060405180910390f35b6100cc600480360360208110156100b657600080fd5b81019080803590602001909291905050506104c7565b6040518082815260200191505060405180910390f35b61010e600480360360208110156100f857600080fd5b810190808035906020019092919050505061055e565b604051808215151515815260200191505060405180910390f35b610287600480360361016081101561013f57600080fd5b8101908080604001906002806020026040519081016040528092919082600260200280828437600081840152601f19601f82011690508083019250505050505091929192908060800190600280602002604051908101604052809291906000905b828210156101f4578382604002016002806020026040519081016040528092919082600260200280828437600081840152601f19601f820116905080830192505050505050815260200190600101906101a0565b50505050919291929080604001906002806020026040519081016040528092919082600260200280828437600081840152601f19601f820116905080830192505050505050919291929080606001906003806020026040519081016040528092919082600360200280828437600081840152601f19601f82011690508083019250505050505091929192905050506105b4565b604051808215151515815260200191505060405180910390f35b61040a60048036036101808110156102b857600080fd5b810190808035906020019092919080604001906002806020026040519081016040528092919082600260200280828437600081840152601f19601f82011690508083019250505050505091929192908060800190600280602002604051908101604052809291906000905b82821015610377578382604002016002806020026040519081016040528092919082600260200280828437600081840152601f19601f82011690508083019250505050505081526020019060010190610323565b50505050919291929080604001906002806020026040519081016040528092919082600260200280828437600081840152601f19601f820116905080830192505050505050919291929080606001906003806020026040519081016040528092919082600360200280828437600081840152601f19601f82011690508083019250505050505091929192905050506107fb565b604051808215151515815260200191505060405180910390f35b6104506004803603602081101561043a57600080fd5b810190808035906020019092919050505061096c565b6040518082815260200191505060405180910390f35b6104926004803603602081101561047c57600080fd5b8101908080359060200190929190505050610984565b6040518082815260200191505060405180910390f35b60003073ffffffffffffffffffffffffffffffffffffffff1631905090565b60006104d28261055e565b610544576040517f08c379a00000000000000000000000000000000000000000000000000000000081526004018080602001828103825260168152602001807f496e76616c69642063616e646964617465206e616d650000000000000000000081525060200191505060405180910390fd5b600080838152602001908152602001600020549050919050565b600080600090505b6001805490508110156105a957826001828154811061058157fe5b9060005260206000200154141561059c5760019150506105af565b8080600101915050610566565b50600090505b919050565b60006105be611904565b6040518060400160405280876000600281106105d657fe5b60200201518152602001876001600281106105ed57fe5b60200201518152508160000181905250604051806040016040528060405180604001604052808860006002811061062057fe5b602002015160006002811061063157fe5b602002015181526020018860006002811061064857fe5b602002015160016002811061065957fe5b6020020151815250815260200160405180604001604052808860016002811061067e57fe5b602002015160006002811061068f57fe5b60200201518152602001886001600281106106a657fe5b60200201516001600281106106b757fe5b602002015181525081525081602001819052506040518060400160405280856000600281106106e257fe5b60200201518152602001856001600281106106f957fe5b602002015181525081604001819052506060600360405190808252806020026020018201604052801561073b5781602001602082028038833980820191505090505b50905060008090505b60038110156107835784816003811061075957fe5b602002015182828151811061076a57fe5b6020026020010181815250508080600101915050610744565b50600061079082846109a5565b14156107ec577f3f3cfdb26fb5f9f1786ab4f1a1f9cd4c0b5e726cbdfc26e495261731aad44e39604051808060200182810382526022815260200180611a966022913960400191505060405180910390a16001925050506107f3565b6000925050505b949350505050565b60006108068661055e565b610878576040517f08c379a00000000000000000000000000000000000000000000000000000000081526004018080602001828103825260168152602001807f496e76616c69642063616e646964617465206e616d650000000000000000000081525060200191505060405180910390fd5b610884858585856105b4565b6108f6576040517f08c379a00000000000000000000000000000000000000000000000000000000081526004018080602001828103825260158152602001807f496e636f72726563742070726f6f6620676976656e000000000000000000000081525060200191505060405180910390fd5b6001600080888152602001908152602001600020600082825401925050819055503373ffffffffffffffffffffffffffffffffffffffff166108fc60019081150290604051600060405180830381858888f1935050505015801561095e573d6000803e3d6000fd5b506001905095945050505050565b60006020528060005260406000206000915090505481565b6001818154811061099157fe5b906000526020600020016000915090505481565b6000807f30644e72e131a029b85045b68181585d2833e84879b9709143e1f593f000000190506109d3611938565b6109db610b55565b90508060a00151516001865101146109f257600080fd5b6109fa61198d565b6040518060400160405280600081526020016000815250905060008090505b8651811015610a905783878281518110610a2f57fe5b602002602001015110610a4157600080fd5b610a8182610a7c8560a001516001850181518110610a5b57fe5b60200260200101518a8581518110610a6f57fe5b6020026020010151611070565b611104565b91508080600101915050610a19565b50610ab3818360a00151600081518110610aa657fe5b6020026020010151611104565b9050610b038260200151836040015183856080015189604001518760000151610aec610ae78d600001518b60200151611104565b6111b7565b610afe8d602001518b60400151611251565b61144f565b610b135760019350505050610b4f565b610b3785600001518360800151610b2d85606001516111b7565b88602001516115b3565b610b475760029350505050610b4f565b600093505050505b92915050565b610b5d611938565b604051806040016040528060405180604001604052807f0fea20ba467638092edaab455502aaad077b39044a43db413807e7874e4a2fa181526020017f08e25fe90a1ebea197a014d93d49b4a9e8eb172bdce06ed370eb39590526cf73815250815260200160405180604001604052807f2b4459ce2d1b3b36e922d0b8c647bb1ff12422f1702b09284ed8346ab2ef673181526020017f15bd0730dbc7a0482f02af7f8cd6511c0833753459cdd149fa94152dc70feaea815250815250816000018190525060405180604001604052807f101302ce45f94c55a6aec1bb6bd7f2d7db7c7694c3280ec8918fe1e01d03455881526020017f2eeb1d6774a27eb23ae0a0b3318dc77a33192945b38ac2e3132dc2bfe11f5b568152508160200181905250604051806040016040528060405180604001604052807e2cbb39ce893a8a0904e34b673acb9c2c0e3cff34a51d2370d88f833364d9bd81526020017f1be111b982bee17f41f5aec9399a8750ddc18807ce83384c2b251d5361c0312c815250815260200160405180604001604052807f124a4eb8e6caa2ec92e4e6bd74de41f4fbf138b1f3323294f63d3c97028f624381526020017f2f2b9867c6f514b879bb43296ce63e4e443a4acaa089a36023ee0e5f8afd8454815250815250816040018190525060405180604001604052807f279df5b20e06e097022f58a77c51b028026628f77ec8213b212a4125485c6a6681526020017f0dff62916f69d766e7f19950da686d2fba43de1d024344f2381f238534ba4fb18152508160600181905250604051806040016040528060405180604001604052807f086387566b565807f26743c7f2ebb3ba2d8659f136f977fa8dee25a995ab8b9081526020017f10f2a3ba9e02edf2e3c63c8663ddddadbc0b8d8540f4b05787bdeb81afa56041815250815260200160405180604001604052807f21843e22094d9b30ec6ae0dc7cbf6c75f0d3f59f878307425f32bb22ae90a17381526020017f1e35c7a9d892080c1b798ca5450f82aad3d9f1041e108e9e512aff20d7cf5f3381525081525081608001819052506004604051908082528060200260200182016040528015610ea057816020015b610e8d6119a7565b815260200190600190039081610e855790505b508160a0018190525060405180604001604052807f2e0e968a8cd5bcae2afa5ced6b9ef88f1af7d46eed8683f6d6d2889eef29b86a81526020017f26d645d1cd29e5c224d852be8ba7ff60dbeab6bc33e91274fb6c4a63a19c07fb8152508160a00151600081518110610f0f57fe5b602002602001018190525060405180604001604052807f2ed52e461ee405b80d8152844233bcbd93709426c38658a9c07543fcabd2380d81526020017f2bc3e91d617a09fdc66f9b66caab2479bae2b44794d72b8b2c26e41e87ccc0c48152508160a00151600181518110610f8057fe5b602002602001018190525060405180604001604052807f150d55fee766c560f430ddabbf774a7f4efef3e70f33c882dafb617725d6475781526020017f16a5dda1f842d5b7741a94cf700a6305cf2463e2f8fd79850e4071b6f1b21e2b8152508160a00151600281518110610ff157fe5b602002602001018190525060405180604001604052807f175eedcbfe47eff10fb2324af41b66fb3bcbb00812180ba013107b9363d6f58281526020017f077c0d3488124a12aaf3ec65d7e3a78a34d27b48b34d1fe03da1b3784328b3cd8152508160a0015160038151811061106257fe5b602002602001018190525090565b61107861198d565b6110806119c1565b83600001518160006003811061109257fe5b6020020181815250508360200151816001600381106110ad57fe5b60200201818152505082816002600381106110c457fe5b6020020181815250506000606083608084600060076107d05a03f1905080600081146110ef576110f1565bfe5b50806110fc57600080fd5b505092915050565b61110c61198d565b6111146119e3565b83600001518160006004811061112657fe5b60200201818152505083602001518160016004811061114157fe5b60200201818152505082600001518160026004811061115c57fe5b60200201818152505082602001518160036004811061117757fe5b602002018181525050600060608360c084600060066107d05a03f1905080600081146111a2576111a4565bfe5b50806111af57600080fd5b505092915050565b6111bf61198d565b60007f30644e72e131a029b85045b68181585d97816a916871ca8d3c208c16d87cfd479050600083600001511480156111fc575060008360200151145b1561122057604051806040016040528060008152602001600081525091505061124c565b6040518060400160405280846000015181526020018285602001518161124257fe5b0683038152509150505b919050565b611259611a05565b73__BN256G2_______________________________6361a931ec846000015160016002811061128457fe5b6020020151856000015160006002811061129a57fe5b602002015186602001516001600281106112b057fe5b602002015187602001516000600281106112c657fe5b602002015187600001516001600281106112dc57fe5b602002015188600001516000600281106112f257fe5b6020020151896020015160016002811061130857fe5b60200201518a6020015160006002811061131e57fe5b60200201516040518963ffffffff1660e01b8152600401808981526020018881526020018781526020018681526020018581526020018481526020018381526020018281526020019850505050505050505060806040518083038186803b15801561138857600080fd5b505af415801561139c573d6000803e3d6000fd5b505050506040513d60808110156113b257600080fd5b810190808051906020019092919080519060200190929190805190602001909291908051906020019092919050505084600001516001600281106113f257fe5b60200201856000015160006002811061140757fe5b60200201866020015160016002811061141c57fe5b60200201876020015160006002811061143157fe5b60200201848152508481525084815250848152505050505092915050565b60006060600460405190808252806020026020018201604052801561148e57816020015b61147b6119a7565b8152602001906001900390816114735790505b509050606060046040519080825280602002602001820160405280156114ce57816020015b6114bb611a2b565b8152602001906001900390816114b35790505b5090508a826000815181106114df57fe5b602002602001018190525088826001815181106114f857fe5b6020026020010181905250868260028151811061151157fe5b6020026020010181905250848260038151811061152a57fe5b6020026020010181905250898160008151811061154357fe5b6020026020010181905250878160018151811061155c57fe5b6020026020010181905250858160028151811061157557fe5b6020026020010181905250838160038151811061158e57fe5b60200260200101819052506115a382826116af565b9250505098975050505050505050565b6000606060026040519080825280602002602001820160405280156115f257816020015b6115df6119a7565b8152602001906001900390816115d75790505b5090506060600260405190808252806020026020018201604052801561163257816020015b61161f611a2b565b8152602001906001900390816116175790505b509050868260008151811061164357fe5b6020026020010181905250848260018151811061165c57fe5b6020026020010181905250858160008151811061167557fe5b6020026020010181905250838160018151811061168e57fe5b60200260200101819052506116a382826116af565b92505050949350505050565b600081518351146116bf57600080fd5b60008351905060006006820290506060816040519080825280602002602001820160405280156116fe5781602001602082028038833980820191505090505b50905060008090505b838110156118a45786818151811061171b57fe5b60200260200101516000015182600060068402018151811061173957fe5b60200260200101818152505086818151811061175157fe5b60200260200101516020015182600160068402018151811061176f57fe5b60200260200101818152505085818151811061178757fe5b60200260200101516000015160006002811061179f57fe5b60200201518260026006840201815181106117b657fe5b6020026020010181815250508581815181106117ce57fe5b6020026020010151600001516001600281106117e657fe5b60200201518260036006840201815181106117fd57fe5b60200260200101818152505085818151811061181557fe5b60200260200101516020015160006002811061182d57fe5b602002015182600460068402018151811061184457fe5b60200260200101818152505085818151811061185c57fe5b60200260200101516020015160016002811061187457fe5b602002015182600560068402018151811061188b57fe5b6020026020010181815250508080600101915050611707565b506118ad611a51565b60006020826020860260208601600060086107d05a03f1905080600081146118d4576118d6565bfe5b50806118e157600080fd5b6000826000600181106118f057fe5b602002015114159550505050505092915050565b6040518061010001604052806119186119a7565b8152602001611925611a2b565b81526020016119326119a7565b81525090565b60405180610220016040528061194c611a2b565b81526020016119596119a7565b8152602001611966611a2b565b81526020016119736119a7565b8152602001611980611a2b565b8152602001606081525090565b604051806040016040528060008152602001600081525090565b604051806040016040528060008152602001600081525090565b6040518060600160405280600390602082028038833980820191505090505090565b6040518060800160405280600490602082028038833980820191505090505090565b6040518060800160405280611a18611a73565b8152602001611a25611a73565b81525090565b6040518060800160405280611a3e611a73565b8152602001611a4b611a73565b81525090565b6040518060200160405280600190602082028038833980820191505090505090565b604051806040016040528060029060208202803883398082019150509050509056fe5472616e73616374696f6e207375636365737366756c6c792076657269666965642ea165627a7a7230582083516063265cf7e0613b66bbf04b0fe3339fb79fd2e0abd4f6525275eb3ac9590029",
  "source": "pragma solidity >=0.4.0 <0.6.0;\n// We have to specify what version of compiler this code will compile with\n\nimport './verifier.sol';\n\ncontract Voting is Verifier {\n  /* mapping field below is equivalent to an associative array or hash.\n  The key of the mapping is candidate name stored as type bytes32 and value is\n  an unsigned integer to store the vote count\n  */\n\n  mapping (bytes32 => uint256) public votesReceived;\n\n  /* Solidity doesn't let you pass in an array of strings in the constructor (yet).\n  We will use an array of bytes32 instead to store the list of candidates\n  */\n\n  bytes32[] public candidateList;\n\n  /* This is the constructor which will be called once when you\n  deploy the contract to the blockchain. When we deploy the contract,\n  we will pass an array of candidates who will be contesting in the election\n  */\n  constructor(bytes32[] memory candidateNames) public payable {\n    candidateList = candidateNames;\n  }\n\n  // This function returns the total votes a candidate has received so far\n  function totalVotesFor(bytes32 candidate) public view returns (uint256) {\n    require(validCandidate(candidate), \"Invalid candidate name\");\n    return votesReceived[candidate];\n  }\n\n  // This function increments the vote count for the specified candidate. This\n  // is equivalent to casting a vote\n  function voteForCandidate(\n    bytes32 candidate,\n    uint[2] memory a,\n    uint[2][2] memory b,\n    uint[2] memory c,\n    uint[3] memory input\n  ) public returns (bool) {\n    require(validCandidate(candidate), \"Invalid candidate name\");\n    require(verifyTx(a, b, c, input), \"Incorrect proof given\");\n    votesReceived[candidate] += 1;\n    msg.sender.transfer(1);\n    return true;\n  }\n\n  function validCandidate(bytes32 candidate) public view returns (bool) {\n    for(uint i = 0; i < candidateList.length; i++) {\n      if (candidateList[i] == candidate) {\n        return true;\n      }\n    }\n    return false;\n  }\n\n  function getBalance() public view returns (uint) {\n    return address(this).balance;\n  }\n}",
  "sourcePath": "/Users/alvaro/uni/Bachelor Arbeit/Ethereum-Anonymous-Voting/contracts/Voting.sol",
  "compiler": {
    "name": "solc",
    "version": "0.5.8+commit.23d335f2.Emscripten.clang"
  },
  "schemaVersion": "3.0.16",
  "updatedAt": "2020-01-19T15:45:45.072Z",
  "devdoc": {
    "methods": {}
  },
  "userdoc": {
    "methods": {}
  }
}